S0160000576174657254616E6B547269616C2E7372656381
S11300000C9434000C9451000C9451000C94510045
S11300100C9451000C9451000C9451000C94510018
S11300200C9451000C9451000C9440040C9428043A
S11300300C9451000C9451000C9451000C945100F8
S11300400C9451000C9451000C9451000C945100E8
S11300500C9451000C94F3060C9451000C94510030
S11300600C9451000C94510011241FBECFEFD8E022
S1130070DEBFCDBF11E0A0E0B1E0EAE5F8E102C0E7
S113008005900D92A435B107D9F721E0A4E5B1E0BC
S113009001C01D92A738B207E1F70E94CD060C9467
S11300A02B0C0C940000CF93C82F8EEE0E94ED040D
S11300B08C2F0E9415050E9411058FEE0E94ED04FD
S11300C00E943E05C82F0E9411058C2FCF910895E0
S11300D0CF93DF93C82F8EEE0E94ED048C2F0E94E5
S11300E015050E9411058FEE0E94ED040E9429055A
S11300F0C82FD0E0DC2FCC270E943E05C82B0E94DD
S11301001105CE01DF91CF910895CF92DF92EF9246
S1130110FF92F82E8EEE0E94ED048F2D0E9415059D
S11301200E9411058FEE0E94ED040E942905C82E3D
S1130130D12CE12CF12CFE2CED2CDC2CCC240E94B7
S11301402905C82AFE2CED2CDC2CCC240E943E056B
S1130150C82A0E941105C701B601FF90EF90DF90F5
S1130160CF9008954F925F926F927F928F929F9259
S1130170AF92BF92CF92DF92EF92FF920F931F93B1
S1130180CF93DF938AEF0E9485006B017C01C11439
S1130190D10480E8E806F10409F48CC0C09155014B
S11301A0D0915601E0915701F09158014D2C5E2CED
S11301B06F2C77242091550130915601609155019F
S11301C0709156010091590110915A015301420155
S11301D0821A930AA108B108A501940153014201AE
S11301E0861A970AA108B108C501B4010E94170A2A
S11301F09B01AC019CE056954795379527959A95B8
S1130200D1F7D8010E94460A4B015C012EE0B69456
S1130210A794979487942A95D1F7B701A60137E05C
S113022076956795579547953A95D1F7CE01A0E015
S1130230B0E0880F991FAA1FBB1F9A01AB01281BAE
S1130240390B4A0B5B0BDF010E94460ADC01CB0130
S1130250DBE0B695A79597958795DA95D1F7880E43
S1130260991EAA1EBB1E8092760190927701A092DD
S11302707801B09279012091760130917701409113
S1130280780150917901A5E0B0E00E943B0ADC01BD
S1130290CB0180589F4FAF4FBF4F692F7A2F8B2FC1
S11302A099270E94810820E030E048EC52E40E9443
S11302B0D30704C060E070E080EC9FE7DF91CF914A
S11302C01F910F91FF90EF90DF90CF90BF90AF9070
S11302D09F908F907F906F905F904F9008952F9292
S11302E03F924F925F926F927F928F929F92AF92C2
S11302F0BF92CF92DF92EF92FF920F931F93CF930F
S1130300DF93CDB7DEB7AC970FB6F894DEBF0FBE60
S1130310CDBF0E94B20087EF0E9485006A8B7B8B61
S11303208C8B9D8B611571058048910509F4DBC1A7
S11303308091760190917701A0917801B091790133
S11303405C016D01E12CF12C87018983BA82CB8297
S1130350DC82ED82FE820F8318879C01A60160E097
S113036070E080E090E0345F414051096109710917
S1130370810991092B873D873A014B018CA79CA3E6
S113038059016A017B018C010E944E0A322E232EF0
S11303904B8F5C8F6D8F7E8F8F8F98A3C09065017C
S11303A0D0906601DA86C986E0906301F09064011A
S11303B0FF86EE860091610110916201198B088B12
S11303C040905F015090600140915D0150915E0149
S11303D0952F990F990B630174010CA51CA19A0127
S11303E0492F592F692F792F892F0E944E0A0CE02B
S11303F00E947E0B2E8B3F8B488F598F6A8F79A377
S11304008AA39BA320915B0130915C013A832983E9
S1130410952D990F990BA32CB22CCB8CDC8CED8CE5
S1130420FE8C0F8D18A19201492F592F692F792F16
S1130430892F0E944E0A08E00E94970BAE88BF885D
S1130440C88CD98CEA8CF9A00AA11BA10E94B50B17
S113045070588F4F9F4FC980DA805601C12CD12C20
S1130460E12CF12C8701A982BA82CB82DC82ED8255
S1130470FE820F831887C12CD12CE12CF12C00E0D3
S113048010E00E944E0A01E20E94970B29833E8BE2
S11304904F8B588F698F472E582E9A8FA0E00E9459
S11304A0C70B09F425C19A85990F990BA32CB22C7B
S11304B0CB8CDC8CED8CFE8C0F8D18A129853A85B4
S11304C0492F592F692F792F892F0E944E0A19011C
S11304D049875B8F6C8F7D8F8E8F9F8F9F85990F40
S11304E0990BAB84BD84630174010CA51CA12E85FA
S11304F03F85492F592F692F792F892F0E944E0A42
S113050001E10E947E0B5101C984DB8CEC8CFD8CD3
S11305100E8D1F8D0E94B50B59016A017B01682E57
S1130520392E4A895B896C897D8984E07595679544
S1130530579547958A95D1F780E090E0A0E1B0E027
S1130540841B950BA60BB70B8C019D0140E050E07A
S1130550BA018CA31DA32EA33FA348A759A76AA73A
S11305607BA79C014EA15FA160E070E080E090E079
S11305700FE10E947E0B722E832E942E252EB62F11
S1130580A72FF82FE92F9989990F990B2889398971
S1130590492F592F692F792F892F03E20E947E0B4F
S11305A0062D132D0E94B50B59016A017B018C01A4
S11305B0272D382D492D522D6B2F7A2F8F2F9E2FBB
S11305C00E94BE0BE5E3AE2EFCE0BF2EC12CD12C65
S11305D0E12CF12C00E010E00E944E0AA980BE88B4
S11305E0CF88D88CE98CF42C052D1A8D0E94A90A89
S11305F02F8B3E8B4D8759876E87788B8A8B998397
S1130600E0916B01F0916C010DE00E94970B922E2A
S1130610832E292E2091690130916A013C872B8712
S11306209F2F990F990BA92CB82CC42ED52EE62EEA
S1130630F72E082F122D9F01492F592F692F792F3B
S1130640892F0E944E0A0E944E0A09E10E94970BCC
S1130650AF88BE88CD84D984EE84F8880A8919814C
S11306600E94B50B19012A013B014C019C85990F8D
S1130670990B2B853C85492F592F692F792F892F69
S11306800E944E0A03E10E94970B59016A017B0103
S11306908C019101A201B301C4010E94B50B08E0D1
S11306A00E94970B59016A017B01E82F192F409191
S11306B0670150916801952F990F990B9A01492F61
S11306C0592F692F792F892F04E00E947E0B0E2F5A
S11306D00E94B50B0E947B0820E030E040E85BE319
S11306E00E945D0908C060E070E080EC9FE703C0F1
S11306F060E070E0CB01AC960FB6F894DEBF0FBE9D
S1130700CDBFDF91CF911F910F91FF90EF90DF90BC
S1130710CF90BF90AF909F908F907F906F905F909D
S11307204F903F902F9008950E9468009827892742
S1130730982708951F93CF93DF9388E80E9494032A
S1130740C5E5D1E0998388838AE80E9494039B835A
S11307508A838CE80E9494039D838C838EE80E9494
S113076094039F838E8380E90E94940399878887EA
S113077082E90E9494039B878A8784E90E949403F8
S11307809D878C8786E90E9494039F878E8788E9DA
S11307900E949403998B888B8AE90E9494039B8B13
S11307A08A8B8CE90E9494039D8B8C8B8EE90E942A
S11307B094039F8B8E8B81EA0E945300888F81EE75
S11307C00E9494039A8F898F83EE0E9453008B8F2B
S11307D084EE0E945300182F85EE0E94530090E18E
S11307E0199F900111248F70282B3D8F2C8F86EE3A
S11307F00E945300182F85EE0E94530090E1199F28
S11308009001112482958F70282B3F8F2E8F87EEB5
S11308100E94530088A3DF91CF911F91089580ED2A
S11308200E945300803699F48EEE0E94ED0485EF09
S11308300E9415058CE60E94150584EF0E9415059B
S113084087EB0E9415050E9411050C949A030895E4
S11308501F920F920FB60F9211248F939F9395B10D
S113086084E0982795B994E09A95F1F795B1892792
S113087085B99F918F910F900FBE0F901F9018957F
S11308801F920F920FB60F921124CF92DF92EF9224
S1130890FF922F933F934F935F936F937F938F9325
S11308A09F93AF93BF93CF93DF93EF93FF93809185
S11308B0810086FF0EC0809181008F7B8093810030
S11308C080918600909187009093850180938401A4
S11308D042C0809181008064809381006091860091
S11308E07091870070937B0160937A0180918401F9
S11308F090918501EB01C81BD90BD0938301C09360
S11309008201609180017091810180E090E00E94F9
S113091081086B017C01BE01DD0F880B990B0E94DD
S113092083089B01AC01C701B6010E945D0920E068
S113093030E040E251E40E945D0920E030E041E112
S113094054E40E94D30760937C0170937D018093EB
S11309507E0190937F01FF91EF91DF91CF91BF9141
S1130960AF919F918F917F916F915F914F913F9143
S11309702F91FF90EF90DF90CF900F900FBE0F90CC
S11309801F901895229AE1E8F0E0808180688083C6
S1130990808183608083808188608083AFE6B0E05B
S11309A08C9182628C938081806480838CE594E452
S11309B0909389008093880084E090E09093810173
S11309C0809380017894089560917C0170917D01F9
S11309D080917E0190917F01089594EA9093BC00E8
S11309E020E431E09091BC0097FD07C0215031090B
S11309F0C9F780918601816010C08093BB0084E8B0
S1130A008093BC0080E491E02091BC0027FD08C0E5
S1130A100197D1F7809186018260809386010895C1
S1130A20089584E98093BC0008958093BB0084E812
S1130A308093BC0080E491E02091BC0027FD08C0B5
S1130A400197D1F78091860184608093860108958F
S1130A50089584EC8093BC0080E491E02091BC0074
S1130A6027FD09C00197D1F78091860188608093A2
S1130A70860180E008958091BB00089584E8809306
S1130A80BC0080E491E02091BC0027FD09C00197DF
S1130A90D1F78091860180618093860180E008957A
S1130AA08091BB000895299A85E08A95F1F70000AA
S1130AB029980895CF93C82F662311F0289A01C06E
S1130AC02898549A559A569A579A5F985E985D98C2
S1130AD05C98C7FD5F9AC6FD5E9AC5FD5D9AC4FD2C
S1130AE05C9A0E9453055F985E985D985C98C3FD7C
S1130AF05F9AC2FD5E9AC1FD5D9AC0FD5C9A0E9438
S1130B0053055C9A5D9A5E9A5F9A87EB9BE0019726
S1130B10F1F700C00000CF91089560E00C945A05ED
S1130B20611102C0805801C080540C948D0581E08D
S1130B300C948D0561E00C945A05CF93DF93EC017E
S1130B408991882319F00E949A05FACFDF91CF91F9
S1130B500895CF93C82F209A559A219A549A559A5A
S1130B60569A579A8FEF99EF0197F1F700C000005A
S1130B705D9A5C9A0E9453058FE19EE40197F1F718
S1130B8000C000000E9453058FEF90E00197F1F739
S1130B9000C000000E9453058FEF90E00197F1F729
S1130BA000C000005C980E9453058FEF90E001970D
S1130BB0F1F700C0000088E20E948D0588E00E94E1
S1130BC08D050E94970586E00E948D058C2FCF919C
S1130BD00C948D050F931F93CF93DF9300D0CDB763
S1130BE0DEB7182F062F80E290E09A83898360E0B5
S1130BF080E00E94900585E091E00E949D054AE016
S1130C00BE016F5F7F4F802F90E00E94F60B113082
S1130C1019F198F0123039F11330A9F560E080E051
S1130C200E94900586E491E00E949D0565E081E0C4
S1130C300E94900580E591E024C060E080E00E947D
S1130C4090058DE291E00E949D0565E081E00E949F
S1130C50900584E391E015C060E080E00E94900577
S1130C6087E391E006C060E080E00E94900580E4A4
S1130C7091E00E949D0565E081E00E9490058EE36D
S1130C8091E00E949D0560E081E00E949005CE0104
S1130C9001960E949D050F900F90DF91CF911F91B7
S1130CA00F910895CF92DF92EF92FF92CF93C82FC6
S1130CB00E946F016B017C016C2F70E080E090E07A
S1130CC00E948308A70196010E94660720E030E293
S1130CD049E156E40E945D0920E030E04AE754E42B
S1130CE00E94D3070E94CA090E944C08862FCF9104
S1130CF0FF90EF90DF90CF9008952091780030918D
S1130D007900223348F0273928F08F5F853088F046
S1130D1080E0089581500895FB01E80FF11DE80F6C
S1130D20F11D0190F081E02D9081923610F49B5FCB
S1130D30908308958F929F92AF92BF92CF92DF9249
S1130D40EF92FF92CF93C82F0E94E4044B015C0101
S1130D506C2F70E080E090E00E9483086B017C01BE
S1130D6020E030E048EC52E4C501B4010E94D3070E
S1130D709B01AC01C701B6010E9466070E94CA0923
S1130D800E944508862FCF91FF90EF90DF90CF907F
S1130D90BF90AF909F908F9008950E940F040E947F
S1130DA0C2048CE00E94A90562E070E084E290E055
S1130DB00E942707789480915401E82FF0E0E050D6
S1130DC0FF4F60810E94EA05809104010E949A0607
S1130DD0809300010E9452068093030184E690E010
S1130DE00E944A07FBCF1F920F920FB60F92112455
S1130DF02F933F934F935F936F937F938F939F931F
S1130E00AF93BF93CF93DF93EF93FF93C0E0D1E011
S1130E10688170E0809154010E947D0680935401A2
S1130E20898190E00E944A07FF91EF91DF91CF9171
S1130E30BF91AF919F918F917F916F915F914F91EE
S1130E403F912F910F900FBE0F901F901895FC01AA
S1130E50408121E030E001C0220F6A95EAF7242B9B
S1130E60208310928500109284008FE39CE9909374
S1130E70870080938600E0E8F0E080E8808380814A
S1130E8082608083E1E8F0E088E180838081826091
S1130E908083089520ED37E0482F429FC001439F8F
S1130EA0900D11246AE570E00E94270A072E000CB9
S1130EB0880B990B0E9483080E94CA090E944C085F
S1130EC070E070938B0060938A0008955058BB279C
S1130ED0AA270E947E070C9423090E94150938F062
S1130EE00E941C0920F039F49F3F19F426F40C9455
S1130EF002090EF4E095E7FB0C94FC08E92F0E942C
S1130F00340958F3BA17620773078407950720F06A
S1130F1079F4A6F50C9456090EF4E0950B2EBA2F2D
S1130F20A02D0B01B90190010C01CA01A0011124EB
S1130F30FF27591B99F0593F50F4503E68F11A1697
S1130F40F040A22F232F342F4427585FF3CF469528
S1130F5037952795A795F0405395C9F77EF41F164A
S1130F60BA0B620B730B840BBAF09150A1F0FF0F14
S1130F70BB1F661F771F881FC2F70EC0BA0F621F00
S1130F80731F841F48F4879577956795B795F795F0
S1130F909E3F08F0B0CF9395880F08F09927EE0F85
S1130FA09795879508950E94E7070C9423090E945A
S1130FB01C0958F00E94150940F029F45F3F29F0FC
S1130FC00C94FC0851110C9457090C9402090E94CA
S1130FD0340968F39923B1F3552391F3951B550B09
S1130FE0BB27AA2762177307840738F09F5F5F4FF8
S1130FF0220F331F441FAA1FA9F335D00E2E3AF037
S1131000E0E832D091505040E695001CCAF72BD04E
S1131010FE2F29D0660F771F881FBB1F261737079F
S11310204807AB07B0E809F0BB0B802DBF01FF27D1
S113103093585F4F3AF09E3F510578F00C94FC08AA
S11310400C9457095F3FE4F3983ED4F38695779563
S11310506795B795F7959F5FC9F7880F911D96958A
S1131060879597F90895E1E0660F771F881FBB1FE6
S1131070621773078407BA0720F0621B730B840B93
S1131080BA0BEE1F88F7E09508950E944C08689407
S1131090B1110C94570908950E943C0988F09F5798
S11310A098F0B92F9927B751B0F0E1F0660F771F88
S11310B0881F991F1AF0BA95C9F714C0B13091F07E
S11310C00E945609B1E008950C945609672F782FB1
S11310D08827B85F39F0B93FCCF386957795679543
S11310E0B395D9F73EF490958095709561957F4FAF
S11310F08F4F9F4F089597FB16F40E9405090C9497
S1131100BF08E89409C097FB3EF4909580957095CC
S113111061957F4F8F4F9F4F9923A9F0F92F96E93F
S1131120BB279395F695879577956795B795F111B4
S1131130F8CFFAF4BB0F11F460FF1BC06F5F7F4F51
S11311408F4F9F4F16C0882311F096E911C0772363
S113115021F09EE8872F762F05C0662371F096E86C
S1131160862F70E060E02AF09A95660F771F881F3B
S1131170DAF7880F9695879597F90895E894F92FEB
S113118096EBFF2381F0121613061406440B939575
S1131190F69587957795679557954040FF23B9F75E
S11311A01BC099270895882351F49850D2F7872BB0
S11311B0762F652F542F432F322F20E0B1F31216D0
S11311C013061406440B88233AF09A95440F551FCE
S11311D0661F771F881FCAF755234AF4440F551F0B
S11311E011F460FF04C06F5F7F4F8F4F9F4F880FD4
S11311F09695879597F9089597F99F6780E870E029
S113120060E008959FEF80EC089590958095709527
S1131210609550954095309521953F4F4F4F5F4FC6
S11312206F4F7F4F8F4F9F4F089500240A941616D7
S1131230170618060906089500240A9412161306C0
S1131240140605060895092E0394000C11F488234E
S113125052F0BB0F40F4BF2B11F460FF04C06F5F6A
S11312607F4F8F4F9F4F089557FD9058440F551F40
S113127059F05F3F71F04795880F97FB991F61F014
S11312809F3F79F087950895121613061406551F8B
S1131290F2CF4695F1DF08C0161617061806991FF7
S11312A0F1CF86957105610508940895E894BB27EC
S11312B066277727CB0197F908950E9470090C944B
S11312C023090E94150938F00E941C0920F0952377
S11312D011F00C94FC080C94020911240C94570985
S11312E00E94340970F3959FC1F3950F50E0551F88
S11312F0629FF001729FBB27F00DB11D639FAA2767
S1131300F00DB11DAA1F649F6627B00DA11D661FB5
S1131310829F2227B00DA11D621F739FB00DA11DD6
S1131320621F839FA00D611D221F749F3327A00D90
S1131330611D231F849F600D211D822F762F6A2F2C
S113134011249F5750409AF0F1F088234AF0EE0F91
S1131350FF1FBB1F661F771F881F91505040A9F7BE
S11313609E3F510580F00C94FC080C9457095F3F94
S1131370E4F3983ED4F3869577956795B795F795FA
S1131380E7959F5FC1F7FE2B880F911D9695879572
S113139097F908950E943C09E8F09E37E8F09639E1
S11313A0B8F49E3848F4672F782F8827985FF9CFD0
S11313B086957795679593959539D0F3B62FB17047
S11313C06B0F711D811D20F4879577956795939513
S11313D00C94EE090C94090A0C945709882371F4AF
S11313E0772321F09850872B762F07C0662311F4BA
S11313F099270DC09051862B70E060E02AF09A95F1
S1131400660F771F881FDAF7880F9695879597F9E7
S113141008959F3F31F0915020F487957795679513
S1131420B795880F911D9695879597F90895DB01D7
S11314308F939F930E943B0ABF91AF91A29F800D0F
S1131440911DA39F900DB29F900D1124089597FBB9
S1131450072E16F4009407D077FD09D00E94D30B11
S113146007FC05D03EF4909581959F4F08957095A3
S113147061957F4F08950E94E70BA59F900DB49F3F
S1131480900DA49F800D911D11240895B7FF0C9415
S11314903B0A0E943B0A821B930B0895DF93CF9370
S11314A01F930F939A9DF02D219FF00D8B9DF00DAE
S11314B08A9DE02DF10D039FF00D029FE00DF11DBB
S11314C04E9DE00DF11D5E9DF00D4F9DF00D7F933F
S11314D06F93BF92AF925F934F93D5010E94E70B36
S11314E08B01AC01D7010E94E70BEB01E80FF91F58
S11314F0D6010E949E0A2F913F91D6010E94E70BCC
S1131500C60FD71FE81FF91FAF91BF910E949E0A13
S11315102F913F910E94E70BC60FD71FE81FF91FB9
S1131520D6010E94E70BE60FF71F9801BE01CF0119
S113153011240F911F91CF91DF9108950E94E70B21
S1131540460F571FC81FD91F08F431960895689491
S113155001C0E894F92FF12B12F00C94DB0AA0E0FF
S1131560B0E0E5EBFAE00C944D0B092E059422F45F
S11315700E94370B112392F4F0E80F26FFEFE0945A
S1131580F09400951095B094C094D094A194BF0A9F
S1131590CF0ADF0AEF0AFF0A0F0B1F0B0E94E60AAD
S11315A007FC0E94370BCDB7DEB7ECE00C94690B57
S11315B0689401C0E8948F929F92CF93DF930E9426
S11315C0E60ADF91CF919F908F9008958824992403
S11315D0F401E401B0E49F93AA279A158B049C04B8
S11315E0ED05FE05CF05D007A10798F4AD2FDC2F3C
S11315F0CF2FFE2FE92D982C892E982F872F762F09
S1131600652F542F432F322F2227B85031F7BF9123
S113161027C01B2EBF91BB27220F331F441F551F0A
S1131620661F771F881F991F881C991CEE1FFF1FB8
S1131630CC1FDD1FAA1FBB1F8A149B04EC05FD05EC
S1131640CE05DF05A007B10748F08A189B08EC090E
S1131650FD09CE09DF09A00BB10B21601A94E1F654
S11316602EF49401AF01BE01CD01000C08956095E4
S113167070958095909530954095509521953F4F64
S11316804F4F5F4F6F4F7F4F8F4F9F4F08952F9254
S11316903F924F925F926F927F928F929F92AF92FE
S11316A0BF92CF92DF92EF92FF920F931F93CF934B
S11316B0DF93CDB7DEB7CA1BDB0B0FB6F894DEBFE2
S11316C00FBECDBF09942A88398848885F846E8408
S11316D07D848C849B84AA84B984C884DF80EE8052
S11316E0FD800C811B81AA81B981CE0FD11D0FB65B
S11316F0F894DEBF0FBECDBFED0108950F930830FF
S113170090F0982F872F762F652F542F432F322F49
S113171022270850F4CF220F331F441F551F661F82
S1131720771F881F991F0A95B2F70F91089597FBA9
S113173010F8169400080F93083098F00850232FDF
S1131740342F452F562F672F782F892F902DF4CFC4
S11317500594979587957795679557954795379508
S113176027950A95AAF70F9108952A0D3B1D4C1D44
S11317705D1D6E1D7F1D801F911F08952A193B0951
S11317804C095D096E097F09800B910B08950024B3
S1131790A7FD00942A173005400550056005700523
S11317A0800590050895AA1BBB1B51E107C0AA1F21
S11317B0BB1FA617B70710F0A61BB70B881F991FEE
S11317C05A95A9F780959095BC01CD010895A29FE3
S11317D0B001B39FC001A39F700D811D1124911D01
S11317E0B29F700D811D1124911D0895BB274A30AD
S11317F031F4992322F4BDE2909581959F4F0C9486
S1131800020CBB27FB015527AA27880F991FAA1F83
S1131810A41710F0A41B83955051B9F7A05DAA3307
S113182008F0A95DA193009779F7B111B1931192D2
S1131830CB010C941B0CDC01FC01672F7191772305
S1131840E1F7329704C07C916D9370836291AE1777
S10D1850BF07C8F30895F894FFCF12
S113185A3C503C000A202020202020202020202048
S113186A202020202020202020202020202020206A
S113187A20202020202020202020202000446570C1
S113188A74683A00636D0056616C76653A00250007
S113189A50756D703A0050726573737572653A00CB
S10718AA5061000085
S9030000FC
