S0160000576174657254616E6B547269616C2E7372656381
S11300000C9434000C9451000C9451000C94510045
S11300100C9451000C9451000C9451000C94510018
S11300200C9451000C9451000C9490000C947800A2
S11300300C9451000C9451000C9451000C945100F8
S11300400C9451000C9451000C9451000C945100E8
S11300500C9451000C9451000C9451000C945100D8
S11300600C9451000C94510011241FBECFEFD8E022
S1130070DEBFCDBF11E0A0E0B1E0E0EFFFE002C0E1
S113008005900D92AA3AB107D9F721E0AAEAB1E0A6
S113009001C01D92A83BB207E1F70E949C040C9496
S11300A0F6070C940000FC01408121E030E002C01E
S11300B0220F331F6A95E2F7242B20830895FC0155
S11300C0908121E030E002C0220F331F6A95E2F7ED
S11300D02095292320830895FC01408121E030E00C
S11300E002C0220F331F6A95E2F7242B2083089560
S11300F01F920F920FB60F9211248F939F9395B175
S113010088E0982795B994E09A95F1F795B18927F5
S113011085B99F918F910F900FBE0F901F901895E6
S11301201F920F920FB60F921124CF92DF92EF928B
S1130130FF922F933F934F935F936F937F938F938C
S11301409F93AF93BF93CF93DF93EF93FF938091EC
S1130150810086FF0EC0E1E8F0E080818F7B808320
S113016080918600909187009093B7018093B601A7
S113017040C0E1E8F0E08081806480836091860083
S1130180709187007093AD016093AC018091B601CA
S11301909091B701EB01C81BD90BD093B501C09363
S11301A0B4016091B2017091B30180E090E00E94CB
S11301B079066B017C01BE01DD0F880B990B0E944F
S11301C07B06A70196010E94070720E030E040E289
S11301D051E40E94070720E030E041E154E40E942A
S11301E0D1056093AE017093AF018093B0019093F9
S11301F0B101FF91EF91DF91CF91BF91AF919F91A9
S11302008F917F916F915F914F913F912F91FF90CB
S1130210EF90DF90CF900F900FBE0F901F90189526
S113022084B1886084B9E1E8F0E0808180688083EB
S1130230808183608083808188608083AFE6B0E0C2
S11302408C9182628C938081806480838CE594E4B9
S1130250909389008093880084E090E09093B301A8
S11302608093B20108956091AE017091AF018091C5
S1130270B0019091B101089585B1806885B985E098
S11302808A95F1F7000085B18F7785B90895CF93EA
S1130290C82F662321F085B1816085B903C085B17B
S11302A08E7F85B98AB180618AB98AB180628AB940
S11302B08AB180648AB98AB180688AB98BB18F7730
S11302C08BB98BB18F7B8BB98BB18F7D8BB98BB194
S11302D08F7E8BB9CC231CF48BB180688BB9C6FF9D
S11302E003C08BB180648BB9C5FF03C08BB180623E
S11302F08BB9C4FF03C08BB180618BB90E943C01F0
S11303008BB18F778BB98BB18F7B8BB98BB18F7D91
S11303108BB98BB18F7E8BB9C3FF03C08BB180685F
S11303208BB9C2FF03C08BB180648BB9C1FF03C01A
S11303308BB180628BB9C0FF03C08BB180618BB974
S11303400E943C018BB180618BB98BB180628BB907
S11303508BB180648BB98BB180688BB987EB9BE0E0
S11303600197F1F700C00000CF91089560E00E946A
S113037047010895611104C080580E94B601089590
S113038080540E94B601089581E00E94B601089548
S113039061E00E9447010895CF93DF93FC0103C0FD
S11303A00E94C801FE01EF01219680818111F8CFDE
S11303B0DF91CF910895CF93C82F84B1816084B920
S11303C08AB180628AB984B1806884B98AB1806153
S11303D08AB98AB180628AB98AB180648AB98AB1D9
S11303E080688AB98FEF99EF0197F1F700C0000098
S11303F08BB180628BB98BB180618BB90E943C0157
S11304008FE19EE40197F1F700C000000E943C01D7
S11304108FEF90E00197F1F700C000000E943C01CB
S11304208FEF90E00197F1F700C000008BB18F7E51
S11304308BB90E943C018FEF90E00197F1F700C067
S1130440000088E20E94B60188E00E94B6010E9482
S1130450C40186E00E94B6018C2F0E94B601CF91A0
S11304600895CF9363E088E290E00E946C0080914D
S1130470AB018531D0F08EEE0E942F0580E00E9402
S11304804C050E946005E1EBF0E080818760808389
S11304908FEE0E942F050E945605C82F0E9460050A
S11304A01092AB018C2F90E007C08F5F8093AB015B
S11304B08091090190910A01CF910895209105013D
S11304C03091060181E090E0232B11F080E090E070
S11304D09093060180930501019731F461E08BE26A
S11304E090E00E946C00089561E08BE290E00E942D
S11304F05F0008950E9404052FEF87EA91E62150DA
S113050080409040E1F700C0000060E08BE290E0A2
S11305100E945F008CE00E94DB0108950F931F93FB
S1130520CF93DF93C82F8B01CB0181559109879716
S113053070F4DFEFDC0FD23308F0D4E060E080E049
S11305400E94BA018CE091E00E94CC0101C0DC2F32
S1130550C801895C91098336910570F4D43018F48C
S1130560D1E0DC0F01C0D0E060E080E00E94BA017D
S11305708CE091E00E94CC01C80187589140879794
S1130580D8F4C130A9F42C2F30E0F901EE0FFF1F8D
S1130590EF5FFE4F80819181009751F00597220F04
S11305A0331FF901EF5FFE4F918380830E947A022B
S11305B0C23011F40E945E0200351105E4F42C2FC0
S11305C030E0F901EE0FFF1FEF5FFE4F8081918154
S11305D08436910561F0C13051F40596220F331F22
S11305E0F901EF5FFE4F918380830E947A02C2304B
S11305F011F40E945E028D2FDF91CF911F910F9114
S11306000895CF92DF92EF92FF921F93CF93DF93DF
S11306109091AB019B3050F1182F1092AB01C1E8BF
S1130620D0E08881887F88830E9410010E94330172
S11306306B017C018881887F88838CE00E94DB01C8
S1130640612F70E080E090E00E947B06A701960194
S11306500E94640520E030E040E251E40E94D105AC
S11306600E9474070E944306862F05C09F5F9093E3
S1130670AB0180910101DF91CF911F91FF90EF9029
S1130680DF90CF900895CF92DF92EF92FF92CF93B5
S113069063E088E290E00E946C008091AB018531B8
S11306A008F43FC08EEE0E942F0581E00E944C05A5
S11306B00E946005E1EBF0E08081876080838FEE2B
S11306C00E942F050E945605C82F0E9460051092B3
S11306D0AB0180910B010E940103682F70E080E060
S11306E090E00E947B062DEC3CEC4CE151E40E942E
S11306F0070720E030E048EC52E40E94D1056B018A
S11307007C016C2F70E080E090E00E947B06A701E2
S113071096010E9465050E9474070E944A06CB0157
S113072007C08F5F8093AB0180910701909108010E
S1130730CF91FF90EF90DF90CF9008950F931F9388
S1130740CF93DF9300D0CDB7DEB7082F80E290E0DF
S11307509A83898361E080E00E94BA01023009F43F
S113076066C028F4002351F00130B1F1DEC003303B
S113077009F482C0043009F4A8C0D7C080910B01E9
S11307800E940103082E000C990B909302018093A0
S11307900101E02FF0E0EE0FFF1FEF5FFE4F4AE094
S11307A0BE016F5F7F4F808191810E94C107CE019E
S11307B001960E94CC0160E080E00E94BA0184E7C7
S11307C091E00E94CC0161E085E00E94BA018BE7D0
S11307D091E00E94CC01A9C0E02FF0E0EE0FFF1FD2
S11307E0EF5FFE4F4AE0BE016F5F7F4F80819181D2
S11307F00E94C107CE0101960E94CC0161E082E013
S11308000E94BA0182E791E00E94CC0160E080E09E
S11308100E94BA018EE791E00E94CC0161E085E07C
S11308200E94BA0185E891E00E94CC017EC010E0EC
S1130830000F111F0F5F1E4F4AE0BE016F5F7F4F15
S1130840F801808191810E94C107F8018081918122
S1130850019729F487E891E00E94CC0104C08BE859
S113086091E00E94CC0160E080E00E94BA018FE830
S113087091E00E94CC0159C00E9443039093080167
S113088080930701E02FF0E0EE0FFF1FEF5FFE4FB4
S11308904AE0BE016F5F7F4F808191810E94C10752
S11308A0CE0101960E94CC0160E080E00E94BA0172
S11308B085E991E00E94CC0161E085E00E94BA01E3
S11308C08FE991E00E94CC0130C00E9431029093E4
S11308D00A0180930901E02FF0E0EE0FFF1FEF5FA4
S11308E0FE4F4AE0BE016F5F7F4F808191810E947D
S11308F0C107CE0101960E94CC0161E082E00E9412
S1130900BA0182E791E00E94CC0160E080E00E949D
S1130910BA0182EA91E00E94CC0161E085E00E9484
S1130920BA0185E891E00E94CC010F900F90DF910D
S1130930CF911F910F91089563E087E290E00E94A8
S113094053000E9410018CE00E94DB0161E08AE206
S113095090E00E94530060E08AE290E00E9453001D
S11309600E942005ECE7F0E0808180648083808130
S11309708F7780838081807F8083EAE7F0E08081C5
S1130980806880837894EAE7F0E0808180648083E3
S11309906091780070917900809100010E948E022C
S11309A0809300012FEF83EC99E021508040904028
S11309B0E1F700C00000809100010E949E0363E003
S11309C088E290E00E945F008091AA018730C8F01D
S11309D080910B010E940103C1E0D1E0082E000CBC
S11309E0990B998388830E9443039F838E830E947B
S11309F03102998788878091AA018F5F8093AA0129
S1130A00C2CF1092AA01BFCF109285001092840029
S1130A108FE39CE99093870080938600E0EBF0E0FD
S1130A2080E88083808182608083E1EBF0E088E16C
S1130A30808380818260808380ED8093B4000895F8
S1130A4087B18F7C87B988B1806388B9E9EBF0E01E
S1130A5080818C7F808388E98093B800089594EA2C
S1130A609093BC009091BC009923E4F78093BB0061
S1130A7084E88093BC008091BC008823E4F78091D3
S1130A80B900887F883121F0803421F480E0089512
S1130A9080E0089581E008958093BB0084E880930A
S1130AA0BC008091BC008823E4F7089584E8809317
S1130AB0BC008091BC008823E4F78091BB000895BA
S1130AC084E98093BC0008955058BB27AA270E944C
S1130AD07C050C94CD060E94BF0638F00E94C60621
S1130AE020F039F49F3F19F426F40C94BC060EF45C
S1130AF0E095E7FB0C94B606E92F0E94DE0658F356
S1130B00BA17620773078407950720F079F4A6F5EE
S1130B100C9400070EF4E0950B2EBA2FA02D0B01B8
S1130B20B90190010C01CA01A0011124FF27591B2E
S1130B3099F0593F50F4503E68F11A16F040A22F34
S1130B40232F342F4427585FF3CF469537952795A5
S1130B50A795F0405395C9F77EF41F16BA0B620BA4
S1130B60730B840BBAF09150A1F0FF0FBB1F661FEB
S1130B70771F881FC2F70EC0BA0F621F731F841F2E
S1130B8048F4879577956795B795F7959E3F08F054
S1130B90B0CF9395880F08F09927EE0F9795879516
S1130BA008950E94E5050C94CD060E94C60658F0EF
S1130BB00E94BF0640F029F45F3F29F00C94B6066A
S1130BC051110C9401070C94BC060E94DE0668F3D4
S1130BD09923B1F3552391F3951B550BBB27AA27F2
S1130BE062177307840738F09F5F5F4F220F331F2C
S1130BF0441FAA1FA9F335D00E2E3AF0E0E832D0F4
S1130C0091505040E695001CCAF72BD0FE2F29D0F6
S1130C10660F771F881FBB1F261737074807AB07C8
S1130C20B0E809F0BB0B802DBF01FF2793585F4F3D
S1130C303AF09E3F510578F00C94B6060C940107E7
S1130C405F3FE4F3983ED4F3869577956795B7951F
S1130C50F7959F5FC9F7880F911D9695879597F92A
S1130C600895E1E0660F771F881FBB1F62177307A3
S1130C708407BA0720F0621B730B840BBA0BEE1FB8
S1130C8088F7E09508950E944A066894B1110C947F
S1130C90010708950E94E60688F09F5798F0B92F3F
S1130CA09927B751B0F0E1F0660F771F881F991F9D
S1130CB01AF0BA95C9F714C0B13091F00E94000738
S1130CC0B1E008950C940007672F782F8827B85F48
S1130CD039F0B93FCCF3869577956795B395D9F7F5
S1130CE03EF490958095709561957F4F8F4F9F4FFF
S1130CF00895E89409C097FB3EF49095809570950B
S1130D0061957F4F8F4F9F4F9923A9F0F92F96E953
S1130D10BB279395F695879577956795B795F111C8
S1130D20F8CFFAF4BB0F11F460FF1BC06F5F7F4F65
S1130D308F4F9F4F16C0882311F096E911C0772377
S1130D4021F09EE8872F762F05C0662371F096E880
S1130D50862F70E060E02AF09A95660F771F881F4F
S1130D60DAF7880F9695879597F9089597F99F670D
S1130D7080E870E060E008959FEF80EC089500241F
S1130D800A941616170618060906089500240A94EC
S1130D9012161306140605060895092E0394000C72
S1130DA011F4882352F0BB0F40F4BF2B11F460FF01
S1130DB004C06F5F7F4F8F4F9F4F089557FD90582A
S1130DC0440F551F59F05F3F71F04795880F97FB0B
S1130DD0991F61F09F3F79F08795089512161306C5
S1130DE01406551FF2CF4695F1DF08C016161706F4
S1130DF01806991FF1CF8695710561050894089529
S1130E00E894BB2766277727CB0197F908950E94BA
S1130E101A070C94CD060E94BF0638F00E94C6063D
S1130E2020F0952311F00C94B6060C94BC06112402
S1130E300C9401070E94DE0670F3959FC1F3950F91
S1130E4050E0551F629FF001729FBB27F00DB11D4A
S1130E50639FAA27F00DB11DAA1F649F6627B00DDA
S1130E60A11D661F829F2227B00DA11D621F739FC3
S1130E70B00DA11D621F839FA00D611D221F749FD1
S1130E803327A00D611D231F849F600D211D822F18
S1130E90762F6A2F11249F5750409AF0F1F088233F
S1130EA04AF0EE0FFF1FBB1F661F771F881F91506C
S1130EB05040A9F79E3F510580F00C94B6060C945F
S1130EC001075F3FE4F3983ED4F3869577956795E1
S1130ED0B795F795E7959F5FC1F7FE2B880F911D96
S1130EE09695879597F908950E94E606E8F09E374F
S1130EF0E8F09639B8F49E3848F4672F782F88279D
S1130F00985FF9CF86957795679593959539D0F342
S1130F10B62FB1706B0F711D811D20F487957795E5
S1130F20679593950C9498070C94B3070C94010758
S1130F30882371F4772321F09850872B762F07C0EC
S1130F40662311F499270DC09051862B70E060E060
S1130F502AF09A95660F771F881FDAF7880F9695FF
S1130F60879597F908959F3F31F0915020F4879524
S1130F7077956795B795880F911D9695879597F9FD
S1130F800895BB274A3031F4992322F4BDE29095A9
S1130F9081959F4F0C94CD07BB27FB015527AA27AA
S1130FA0880F991FAA1FA41710F0A41B83955051F2
S1130FB0B9F7A05DAA3308F0A95DA193009779F76A
S1130FC0B111B1931192CB010C94E607DC01FC0141
S1130FD0672F71917723E1F7329704C07C916D9369
S1130FE070836291AE17BF07C8F30895F894FFCFDA
S1130FF0013C00500000000000460090202020200A
S113100020202020202020202020202020202020DC
S113101020202020202020202020202020202020CC
S113102020202020202020202020202020202020BC
S113103020202020202020202020202020202020AC
S1131040202020202020202020202020202020209C
S1131050202020202020202020202020202020208C
S11310602020200044657074683A00636D00566166
S11310706C76653A0025004F6E20004F666600507E
S1131080756D703A0050726573737572653A0050ED
S10D1090610048756D69643A0000C0
S9030000FC
