:100000000C9434000C9489020C9451000C9451000F
:100010000C9451000C9451000C9451000C9451001C
:100020000C9451000C9451000C9451000C9451000C
:100030000C9451000C9451000C9451000C945100FC
:100040000C9451000C9451000C9451000C945100EC
:100050000C9451000C9451000C9451000C945100DC
:100060000C9451000C94510011241FBECFEFD8E026
:10007000DEBFCDBF12E0A0E0B1E0E4EFF1E102C0ED
:1000800005900D92AE30B107D9F722E0AEE0B2E0B4
:1000900001C01D92A731B207E1F70E9419020C942A
:1000A000F8080C940000CF93FC0190910E0295315A
:1000B000D0F08EEE0E942D0681E00E944A060E943A
:1000C0005E06E1EBF0E08081876080838FEE0E9426
:1000D0002D060E945406C82F0E945E0610920E0242
:1000E0008C2F90E005C09F5F90930E0286819781D0
:1000F000CF910895CF93FC0190910E029531D0F0ED
:100100008EEE0E942D0680E00E944A060E945E0646
:10011000E1EBF0E08081876080838FEE0E942D0606
:100120000E945406C82F0E945E0610920E028C2F69
:1001300090E005C09F5F90930E0280859185CF91DE
:100140000895FC01408121E030E002C0220F331FFE
:100150006A95E2F7242B20830895FC01808121E039
:1001600030E002C0220F331F6A95E2F72095822308
:1001700080838181282321830895FC01908121E0DF
:1001800030E002C0220F331F6A95E2F72095292341
:1001900020830895FC01408121E030E002C0220F5D
:1001A000331F6A95E2F7242B2083089585B1806878
:1001B00085B985E08A95F1F7000085B18F7785B91B
:1001C0000895CF93C82F662321F085B1816085B94A
:1001D00003C085B18E7F85B98AB180618AB98AB141
:1001E00088608AB98AB180648AB98AB180688AB91C
:1001F0008BB18F778BB98BB18F7B8BB98BB1877FAD
:100200008BB98BB18F7E8BB9CC231CF48BB18068FA
:100210008BB9C6FF03C08BB180648BB9C5FF03C027
:100220008BB188608BB9C4FF03C08BB180618BB97F
:100230000E94D6008BB18F778BB98BB18F7B8BB936
:100240008BB1877F8BB98BB18F7E8BB9C3FF03C016
:100250008BB180688BB9C2FF03C08BB180648BB94E
:10026000C1FF03C08BB188608BB9C0FF03C08BB1E5
:1002700080618BB90E94D6008BB180618BB98BB144
:1002800088608BB98BB180648BB98BB180688BB976
:1002900087EB9BE00197F1F700C00000CF91089534
:1002A00060E00E94E1000895611104C080580E943E
:1002B0005001089580540E945001089581E00E94E9
:1002C0005001089561E00E94E1000895CF93DF930B
:1002D000FC0103C00E946201FE01EF0121968081B2
:1002E0008111F8CFDF91CF910895CF93C82F84B1BA
:1002F000816084B98AB180628AB984B1806884B926
:100300008AB180618AB98AB188608AB98AB1806409
:100310008AB98AB180688AB98FEF99EF0197F1F7AE
:1003200000C000008BB188608BB98BB180618BB944
:100330000E94D6008FE19EE40197F1F700C0000013
:100340000E94D6008FEF90E00197F1F700C0000007
:100350000E94D6008FEF90E00197F1F700C00000F7
:100360008BB18F7E8BB90E94D6008FEF90E0019702
:10037000F1F700C0000088E20E94500188E00E946E
:1003800050010E945E0186E00E9450018C2F0E9465
:100390005001CF9108958DB381608DBBE9E6F0E007
:1003A00080818160808380818D7F80831092B00006
:1003B00085E08093B100789481E08093160216C0A6
:1003C00065E085E290E00E94CA0020E52A95F1F7F9
:1003D00065E085E290E00E94BD008FEF99E628E19C
:1003E000815090402040E1F700C00000809116024B
:1003F0008111E6CF80910F02909110020895CF9362
:1004000090911402953160F0C82F109214020E944E
:10041000CB012C2F30E0A901481B590BCA0107C0A2
:100420009F5F909314028091020190910301CF91FC
:1004300008958CE00E94750161E08AE290E00E94DC
:10044000A10065E08AE290E00E94A10066E08AE2F5
:1004500090E00E94AD008DB381608DBBE9E6F0E0D5
:10046000808181608083ECE7F0E08081806480831C
:1004700080818F7780838081807F8083EAE7F0E0CE
:1004800080818068808378940E941E06EAE7F0E00D
:10049000808180648083609178007091790042E06F
:1004A00051E0809101010E945105809301012FEFDD
:1004B00083EC99E0215080409040E1F700C00000BB
:1004C0004091000162E071E0809101010E94C80248
:1004D000809115028730C8F0809100010E94FF01D1
:1004E000C2E0D1E09983888360910001CE010E942F
:1004F00053009F838E8360910001CE010E947A0099
:100500009987888710921502C1CF8F5F809315025B
:10051000BDCF1F920F920FB60F9211248F939F930E
:10052000EF93FF938091120290911302892B61F453
:10053000E1EBF0E080818160808381E090E0909346
:100540001302809312021BC0E2EBF0E0808190E086
:100550009093100280930F021092B10010821092BB
:10056000130210921202809111028F5F8093110288
:10057000863028F08DB38E7F8DBB10921602FF91CE
:10058000EF919F918F910F900FBE0F901F90189534
:100590008F929F92AF92BF92DF92EF92FF920F9352
:1005A0001F93CF93DF9300D0CDB7DEB7D82E8B014A
:1005B000E42E80E290E09A83898361E070E080E03D
:1005C00090E00E94540122E0D21609F4DBC02D1500
:1005D00038F0DD2089F081E0D81609F48CC053C2D0
:1005E000E4E0DE1609F455C1DE1608F4F3C0F5E0C8
:1005F000DF1609F4C5C147C2F12CC7010E94FF01F3
:10060000F8019183808360E070E080E090E00E94D8
:1006100054018CE091E00E946601F8018081918193
:100620008E159F0558F061E070E080E090E00E9438
:10063000540183E191E00E94660125C261E070E00F
:1006400080E090E00E9454018D2D90E0880F991F6A
:10065000080F191F4AE0BE016F5F7F4FF8018081CC
:1006600091810E94C308CE0101960E94660161E05B
:1006700070E083E090E00E9454018CE092E00E94E0
:100680006601F80180819181883E934050F461E0D9
:1006900070E083E090E00E9454018CE092E00E94C0
:1006A0006601F801808191818436910550F461E002
:1006B00070E082E090E00E9454018CE092E00E94A1
:1006C0006601F801808191810A9750F461E070E041
:1006D00081E090E00E9454018CE092E00E9466016B
:1006E00061E070E085E090E00E94540188E191E0D3
:1006F0000E946601C8C18D2D90E0880F991F080FD8
:10070000191F4AE0BE016F5F7F4FF8018081918120
:100710000E94C308CE0101960E946601F801808103
:1007200091818036910550F461E070E082E090E0C4
:100730000E9454018CE092E00E946601F8018081E1
:100740009181059751F461E070E081E090E00E94B2
:1007500054018CE092E00E94660160E070E080E06D
:1007600090E00E9454018BE191E00E94660161E0FB
:1007700070E085E090E00E94540182E291E00E94E6
:10078000660181C18D2D90E0880F991F080F191FF8
:100790004AE0BE016F5F7F4FF801808191810E9426
:1007A000C308F80180819181019729F484E291E0E6
:1007B0000E94660104C088E291E00E94660160E048
:1007C00070E080E090E00E9454018CE291E00E9491
:1007D000660159C16E2D70E0C8010E945300F801F6
:1007E000978386838D2D90E0880F991F080F191F1E
:1007F0004AE0BE016F5F7F4FF801808191810E94C6
:10080000C308CE0101960E946601F80180819181A2
:10081000883E934050F461E070E083E090E00E94F5
:1008200054018CE092E00E946601F8018081918180
:100830008436910550F461E070E082E090E00E941F
:1008400054018CE092E00E946601F8018081918160
:100850000A9750F461E070E081E090E00E9454015A
:100860008CE092E00E94660160E070E080E090E041
:100870000E94540182E391E00E94660161E070E011
:1008800085E090E00E94540182E491E00E946601BC
:10089000FAC06E2D70E0C8010E947A00F8019187BD
:1008A000808760E070E080E090E00E94540186E480
:1008B00091E00E9466018D2D90E0880F991F080F2E
:1008C000191FF8018081918184369105A8F061E0BB
:1008D00070E080E090E00E9454018DE491E00E947D
:1008E000660161E070E085E090E00E9454018CE0D8
:1008F00092E00E946601C7C04AE0BE016F5F7F4F71
:100900000E94C30861E070E083E090E00E9454011F
:100910008CE092E00E94660161E070E080E090E08F
:100920000E945401CE0101960E946601F801808167
:1009300091818436910550F461E070E082E090E0AE
:100940000E9454018CE092E00E946601F8018081CF
:1009500091810A9750F461E070E081E090E00E949C
:1009600054018CE092E00E94660161E070E085E055
:1009700090E00E94540182E291E00E94660183C0EF
:10098000F12CB701C8010E945300F80197838683B8
:10099000C7010E94FF01F80191838083E680F78000
:1009A000BC0180E090E00E947B072DEC3CEC4CE128
:1009B00051E40E94090820E030E543EC57E40E942E
:1009C000DA064B015C01B70180E090E00E947B07F2
:1009D000A50194010E946E060E944C07DC01CB0128
:1009E0004AE0BE016F5F7F4F0E94C308CE010196AF
:1009F0000E9466018D2D90E0880F991F080F191F26
:100A0000F80180819181883E934050F461E070E06C
:100A100083E090E00E9454018CE092E00E94660125
:100A2000F801808191818436910550F461E070E095
:100A300082E090E00E9454018CE092E00E94660106
:100A4000F801808191810A9750F461E070E081E0C3
:100A500090E00E9454018CE092E00E94660160E008
:100A600070E080E090E00E94540182E591E00E94F5
:100A7000660161E070E085E090E00E94540182E44C
:100A800091E00E9466010F900F90DF91CF911F912E
:100A90000F91FF90EF90DF90BF90AF909F908F905D
:100AA0000895EF92FF920F931F93CF93DF93C82F78
:100AB0008B017A01CB0181559109879780F4DFEF93
:100AC000DC0FD23308F0D5E060E070E080E090E029
:100AD0000E94540181E691E00E94660101C0DC2F72
:100AE000C801895C91098336910580F4D63018F4E9
:100AF000D1E0DC0F01C0D0E060E070E080E090E089
:100B00000E94540189EC91E00E946601C801875857
:100B100091408797B0F4C13079F4EC2FF0E0EE0FFC
:100B2000FF1FEE0DFF1D80819181009729F0059731
:100B3000918380830E946206C23019F4C7010E942B
:100B4000C30500351105BCF4EC2FF0E0EE0FFF1FDC
:100B5000EE0DFF1D808191818436910539F0C13001
:100B600029F40596918380830E946206C23019F4AD
:100B7000C7010E94C3058D2FDF91CF911F910F9167
:100B8000FF90EF900895FC014481558121E030E011
:100B9000452B11F020E030E0FC0135832483213027
:100BA000310531F461E08BE290E00E94CA000895C3
:100BB00061E08BE290E00E94BD000895CF93C82FC2
:100BC00088E00E9475018AB180628AB98FEF87BD83
:100BD0006C2F70E080E090E00E947D072AEC3EEFF1
:100BE00049EF5CE30E9409082CEF3BE742E151E446
:100BF0000E946E0620E030E040E853E40E940908BD
:100C000020E030E048EC52E40E94DA069B01AC019F
:100C100060E070E08FE793E40E946D060E94760822
:100C20000E944C0768BD84B5836384BD85B5896027
:100C300085BD85B58C6085BDCF91089587B18F7CCA
:100C400087B988B1806388B9E9EBF0E080818C7F57
:100C5000808388E98093B800089594EA9093BC005B
:100C60009091BC009923E4F78093BB0084E88093C3
:100C7000BC008091BC008823E4F78091B900887F94
:100C8000883121F0803421F480E0089580E00895D7
:100C900081E008958093BB0084E88093BC0080913C
:100CA000BC008823E4F7089584E88093BC00809119
:100CB000BC008823E4F78091BB00089584E9809309
:100CC000BC000895E1E8F0E09081987F90830E9455
:100CD000DE058CE00E94750108955058BB27AA27B5
:100CE0000E9485060C94CF070E94C10738F00E942D
:100CF000C80720F039F49F3F19F426F40C94BE077E
:100D00000EF4E095E7FB0C94B807E92F0E94E0078A
:100D100058F3BA17620773078407950720F079F430
:100D2000A6F50C9402080EF4E0950B2EBA2FA02D18
:100D30000B01B90190010C01CA01A0011124FF2788
:100D4000591B99F0593F50F4503E68F11A16F04083
:100D5000A22F232F342F4427585FF3CF4695379582
:100D60002795A795F0405395C9F77EF41F16BA0B47
:100D7000620B730B840BBAF09150A1F0FF0FBB1FF5
:100D8000661F771F881FC2F70EC0BA0F621F731F3E
:100D9000841F48F4879577956795B795F7959E3F9B
:100DA00008F0B0CF9395880F08F09927EE0F97952C
:100DB000879508950E94EE060C94CF070E94C807FD
:100DC00058F00E94C10740F029F45F3F29F00C94CD
:100DD000B80751110C9403080C94BE070E94E00759
:100DE00068F39923B1F3552391F3951B550BBB275A
:100DF000AA2762177307840738F09F5F5F4F220F9F
:100E0000331F441FAA1FA9F335D00E2E3AF0E0E895
:100E100032D091505040E695001CCAF72BD0FE2FDF
:100E200029D0660F771F881FBB1F26173707480773
:100E3000AB07B0E809F0BB0B802DBF01FF2793582B
:100E40005F4F3AF09E3F510578F00C94B8070C9430
:100E500003085F3FE4F3983ED4F386957795679552
:100E6000B795F7959F5FC9F7880F911D9695879560
:100E700097F90895E1E0660F771F881FBB1F62177F
:100E800073078407BA0720F0621B730B840BBA0B3D
:100E9000EE1F88F7E09508950E94E80788F09F57B5
:100EA00098F0B92F9927B751B0F0E1F0660F771F8E
:100EB000881F991F1AF0BA95C9F714C0B13091F084
:100EC0000E940208B1E008950C940208672F782F61
:100ED0008827B85F39F0B93FCCF386957795679549
:100EE000B395D9F73EF490958095709561957F4FB5
:100EF0008F4F9F4F0895E89409C097FB3EF490955B
:100F00008095709561957F4F8F4F9F4F9923A9F0E2
:100F1000F92F96E9BB279395F69587957795679571
:100F2000B795F111F8CFFAF4BB0F11F460FF1BC0B5
:100F30006F5F7F4F8F4F9F4F16C0882311F096E948
:100F400011C0772321F09EE8872F762F05C06623F6
:100F500071F096E8862F70E060E02AF09A95660FAF
:100F6000771F881FDAF7880F9695879597F9089568
:100F700097F99F6780E870E060E008959FEF80EC4C
:100F8000089500240A9416161706180609060895EF
:100F900000240A9412161306140605060895092E55
:100FA0000394000C11F4882352F0BB0F40F4BF2BC4
:100FB00011F460FF04C06F5F7F4F8F4F9F4F089504
:100FC00057FD9058440F551F59F05F3F71F04795FA
:100FD000880F97FB991F61F09F3F79F087950895DF
:100FE000121613061406551FF2CF4695F1DF08C0FE
:100FF000161617061806991FF1CF8695710561051B
:1010000008940895E894BB2766277727CB0197F9C2
:1010100008950E941C080C94CF070E94C10738F065
:101020000E94C80720F0952311F00C94B8070C9487
:10103000BE0711240C9403080E94E00770F3959FEB
:10104000C1F3950F50E0551F629FF001729FBB27BF
:10105000F00DB11D639FAA27F00DB11DAA1F649F5B
:101060006627B00DA11D661F829F2227B00DA11D0E
:10107000621F739FB00DA11D621F839FA00D611D94
:10108000221F749F3327A00D611D231F849F600DB5
:10109000211D822F762F6A2F11249F5750409AF0DE
:1010A000F1F088234AF0EE0FFF1FBB1F661F771F6A
:1010B000881F91505040A9F79E3F510580F00C9435
:1010C000B8070C9403085F3FE4F3983ED4F3869589
:1010D00077956795B795F795E7959F5FC1F7FE2BD5
:1010E000880F911D9695879597F908950E94E807B6
:1010F000E8F09E37E8F09639B8F49E3848F4672F48
:10110000782F8827985FF9CF86957795679593957F
:101110009539D0F3B62FB1706B0F711D811D20F47E
:1011200087957795679593950C949A080C94B508D4
:101130000C940308882371F4772321F09850872BAF
:10114000762F07C0662311F499270DC09051862B86
:1011500070E060E02AF09A95660F771F881FDAF733
:10116000880F9695879597F908959F3F31F0915094
:1011700020F4879577956795B795880F911D96957B
:10118000879597F90895BB274A3031F4992322F4C3
:10119000BDE2909581959F4F0C94CF08BB27FB0132
:1011A0005527AA27880F991FAA1FA41710F0A41B60
:1011B00083955051B9F7A05DAA3308F0A95DA193BA
:1011C000009779F7B111B1931192CB010C94E80813
:1011D000DC01FC01672F71917723E1F7329704C09E
:1011E0007C916D9370836291AE17BF07C8F3089529
:0411F000F894FFCFA1
:1011F40090013C000000000000004600446570744B
:10120400683A0046554C4C00636D0056616C766537
:101214003A0025004F6E20004F66660050756D70D1
:101224003A0041746D6F7320507265737375726503
:101234003A004B50610048756D69643A0052414967
:101244004E0054616E6B2050726573737572653A0B
:1012540000202020202020202020202020202020AA
:10126400202020202020202020202020202020207A
:10127400202020202020202020202020202020206A
:10128400202020202020202020202020202020205A
:10129400202020202020202020202020202020204A
:1012A400202020202020202020202020202020203A
:1012B40020202020202020200009090909090909EB
:1012C400090909090920202020202020202020208D
:1012D400202020202020202020202020202020200A
:1012E40020202020202020202020202020202020FA
:0E12F40020202020202020202020202020004C
:00000001FF
