S0160000576174657254616E6B547269616C2E7372656381
S11300000C9434000C9451000C9451000C94510045
S11300100C9451000C9451000C9451000C94510018
S11300200C9451000C9451000C949C000C9484008A
S11300300C9451000C9451000C9451000C945100F8
S11300400C9451000C9451000C9451000C945100E8
S11300500C9451000C9451000C9451000C945100D8
S11300600C9451000C94510011241FBECFEFD8E022
S1130070DEBFCDBF11E0A0E0B1E0E8E8F9E002C0E6
S113008005900D92AA39B107D9F721E0AAE9B1E0A8
S113009001C01D92A63AB207E1F70E94F3020C9444
S11300A0C2040C940000FC01408121E030E002C055
S11300B0220F331F6A95E2F7242B20830895FC0155
S11300C0908121E030E002C0220F331F6A95E2F7ED
S11300D02095292320830895FC01408121E030E00C
S11300E002C0220F331F6A95E2F7242B2083089560
S11300F0FC01408121E030E002C0220F331F6A95E9
S1130100E2F72427208308951F920F920FB60F92CF
S113011011248F939F9395B188E0982795B994E023
S11301209A95F1F795B1892785B99F918F910F9091
S11301300FBE0F901F9018951F920F920FB60F923B
S11301401124CF92DF92EF92FF922F933F934F931C
S11301505F936F937F938F939F93AF93BF93CF934B
S1130160DF93EF93FF938091810086FF0EC0E1E857
S1130170F0E080818F7B808380918600909187005E
S11301809093A5018093A40140C0E1E8F0E0808150
S113019080648083609186007091870070939B01D6
S11301A060939A018091A4019091A501EB01C81B71
S11301B0D90BD093A301C093A2016091A0017091C7
S11301C0A10180E090E00E9492036B017C01BE01DA
S11301D0DD0F880B990B0E949403A70196010E94DE
S11301E0200420E030E040E251E40E94200420E0BA
S11301F030E041E154E40E94200360939C01709339
S11302009D0180939E0190939F01FF91EF91DF9157
S1130210CF91BF91AF919F918F917F916F915F919A
S11302204F913F912F91FF90EF90DF90CF900F90DF
S11302300FBE0F901F90189585B1826085B985E037
S11302408A95F1F7000085B18D7F85B90895CF9324
S1130250C82F662321F085B1816085B903C085B1BB
S11302608E7F85B98AB180618AB98AB180628AB980
S11302708AB180648AB98AB180688AB98BB18F7770
S11302808BB98BB18F7B8BB98BB18F7D8BB98BB1D4
S11302908F7E8BB9CC231CF48BB180688BB9C6FFDD
S11302A003C08BB180648BB9C5FF03C08BB180627E
S11302B08BB9C4FF03C08BB180618BB90E941C0150
S11302C08BB18F778BB98BB18F7B8BB98BB18F7DD2
S11302D08BB98BB18F7E8BB9C3FF03C08BB18068A0
S11302E08BB9C2FF03C08BB180648BB9C1FF03C05B
S11302F08BB180628BB9C0FF03C08BB180618BB9B5
S11303000E941C018BB180618BB98BB180628BB967
S11303108BB180648BB98BB180688BB987EB9BE020
S11303200197F1F700C00000CF91089560E00E94AA
S113033027010895611104C080580E949601089510
S113034080540E949601089581E00E9496010895C8
S113035061E00E9427010895CF93DF93FC0103C05D
S11303600E94A801FE01EF01219680818111F8CF3E
S1130370DF91CF910895CF93C82F84B1816084B960
S11303808AB180628AB984B1826084B98AB1806199
S11303908AB98AB180628AB98AB180648AB98AB119
S11303A080688AB98FEF99EF0197F1F700C00000D8
S11303B08BB180628BB98BB180618BB90E941C01B7
S11303C08FE19EE40197F1F700C000000E941C0138
S11303D08FEF90E00197F1F700C000000E941C012C
S11303E08FEF90E00197F1F700C000008BB18F7E92
S11303F08BB90E941C018FEF90E00197F1F700C0C8
S1130400000088E20E94960188E00E9496010E9402
S1130410A40186E00E9496018C2F0E949601CF9140
S113042008950F931F93CF93DF9300D0CDB7DEB71A
S1130430182F062F80E290E09A8389834AE0BE0158
S11304406F5F7F4F802F90E00E948D0461E080E019
S11304500E949A011130E1F030F0123071F1133042
S113046009F447C05AC0CE0101960E94AC0160E075
S113047080E00E949A0185E091E00E94AC0161E075
S113048085E00E949A018CE091E00E94AC0145C095
S1130490CE0101960E94AC0160E080E00E949A01C6
S11304A08FE091E00E94AC0161E085E00E949A0136
S11304B086E191E00E94AC0130C0013029F488E16A
S11304C091E00E94AC0104C08BE191E00E94AC0178
S11304D060E080E00E949A018FE191E00E94AC010B
S11304E061E085E00E949A0186E191E00E94AC01FE
S11304F014C0CE0101960E94AC0160E080E00E942D
S11305009A0185E291E00E94AC0161E085E00E94DD
S11305109A018FE291E00E94AC010F900F90DF915D
S1130520CF911F910F9108951F93CF93DF93182FAD
S113053061E08AE290E00E945300C12FD0E061E0C4
S1130540CE010E947800113031F461E08BE290E03A
S11305500E946C0005C061E08BE290E00E945F00A5
S1130560CE01DF91CF911F9108950F931F93CF93E5
S1130570C82F8B0160E080E00E949A0182E391E041
S11305800E94AC018091780090917900823340F010
S1130590873920F0CF5FC43000F520C0C1501EC0A1
S11305A0EC2FF0E0EE0FFF1FE00FF11F0190F08140
S11305B0E02D908121E0923608F020E081E0C13006
S11305C009F080E0822B11F09B5F9083C23031F4FC
S11305D0F80184810E94940201C0C0E08C2FCF9165
S11305E01F910F9108958CE00E94BB01ECE7F0E0AD
S11305F080818064808380818F7780838081807F05
S11306008083EAE7F0E0808180688083808188606D
S11306108083808187608083789480910001E82FB3
S1130620F0E0EF5FFE4F60810E94110260910101D2
S113063070E0809100010E94B50280930001EDCF2B
S11306400E9434030C94E6030E94DF0358F00E94D6
S1130650D80340F029F45F3F29F00C94CF035111E3
S11306600C941A040C94D5030E94F70368F399239D
S1130670B1F3552391F3951B550BBB27AA2762179A
S11306807307840738F09F5F5F4F220F331F441FA7
S1130690AA1FA9F335D00E2E3AF0E0E832D09150DB
S11306A05040E695001CCAF72BD0FE2F29D0660FC8
S11306B0771F881FBB1F261737074807AB07B0E80B
S11306C009F0BB0B802DBF01FF2793585F4F3AF011
S11306D09E3F510578F00C94CF030C941A045F3FAD
S11306E0E4F3983ED4F3869577956795B795F79597
S11306F09F5FC9F7880F911D9695879597F908957F
S1130700E1E0660F771F881FBB1F6217730784071A
S1130710BA0720F0621B730B840BBA0BEE1F88F729
S1130720E0950895E89409C097FB3EF49095809570
S1130730709561957F4F8F4F9F4F9923A9F0F92FA3
S113074096E9BB279395F695879577956795B79521
S1130750F111F8CFFAF4BB0F11F460FF1BC06F5F07
S11307607F4F8F4F9F4F16C0882311F096E911C019
S1130770772321F09EE8872F762F05C0662371F03A
S113078096E8862F70E060E02AF09A95660F771F4E
S1130790881FDAF7880F9695879597F9089597F942
S11307A09F6780E870E060E008959FEF80EC089513
S11307B000240A941616170618060906089500243C
S11307C00A9412161306140605060895092E0394B6
S11307D0000C11F4882352F0BB0F40F4BF2B11F42A
S11307E060FF04C06F5F7F4F8F4F9F4F089557FD89
S11307F09058440F551F59F05F3F71F04795880F8B
S113080097FB991F61F09F3F79F087950895121621
S113081013061406551FF2CF4695F1DF08C01616CD
S113082017061806991FF1CF86957105610508947E
S11308300895E894BB2766277727CB0197F9089595
S11308400E9433040C94E6030E94D80338F00E94FB
S1130850DF0320F0952311F00C94CF030C94D503FF
S113086011240C941A040E94F70370F3959FC1F3AA
S1130870950F50E0551F629FF001729FBB27F00D4A
S1130880B11D639FAA27F00DB11DAA1F649F66279F
S1130890B00DA11D661F829F2227B00DA11D621FEE
S11308A0739FB00DA11D621F839FA00D611D221FA8
S11308B0749F3327A00D611D231F849F600D211D8C
S11308C0822F762F6A2F11249F5750409AF0F1F00F
S11308D088234AF0EE0FFF1FBB1F661F771F881F78
S11308E091505040A9F79E3F510580F00C94CF03DE
S11308F00C941A045F3FE4F3983ED4F386957795FD
S11309006795B795F795E7959F5FC1F7FE2B880F1D
S1130910911D9695879597F90895BB274A3031F430
S1130920992322F4BDE2909581959F4F0C949904EC
S1130930BB27FB015527AA27880F991FAA1FA417B5
S113094010F0A41B83955051B9F7A05DAA3308F0A9
S1130950A95DA193009779F7B111B1931192CB01DD
S11309600C94B204DC01FC01672F71917723E1F749
S1130970329704C07C916D9370836291AE17BF0768
S10B0980C8F30895F894FFCFB9
S1130988033C50000044657074683A00636D005677
S1130998616C76653A0025004F6E004F666600501C
S11309A8756D703A0050726573737572653A0050CC
S11309B8610020202020202020202020202020200A
S11309C8202020202020202020202020202020201B
S11309D8202020202020202020202020202020200B
S11309E820202020202020202020202020202020FB
S11309F820202020202020202020202020202020EB
S1130A0820202020202020202020202020202020DA
S10D0A1820202020202020202000B0
S9030000FC
