S0160000576174657254616E6B547269616C2E7372656381
S11300000C9434000C9451000C9451000C94510045
S11300100C9451000C9451000C9451000C94510018
S11300200C9451000C9451000C9490000C947800A2
S11300300C9451000C9451000C9451000C945100F8
S11300400C9451000C9451000C9451000C945100E8
S11300500C9451000C9451000C9451000C945100D8
S11300600C9451000C94510011241FBECFEFD8E022
S1130070DEBFCDBF11E0A0E0B1E0EAECF9E002C0E0
S113008005900D92AA39B107D9F721E0AAE9B1E0A8
S113009001C01D92A63AB207E1F70E9408030C942E
S11300A0E3040C940000FC01908121E030E002C0E4
S11300B0220F331F6A95E2F72095292320830895A0
S11300C0FC01408121E030E002C0220F331F6A9519
S11300D0E2F7242B20830895FC01408121E030E0E5
S11300E002C0220F331F6A95E2F724272083089564
S11300F01F920F920FB60F9211248F939F9395B175
S113010088E0982795B994E09A95F1F795B18927F5
S113011085B99F918F910F900FBE0F901F901895E6
S11301201F920F920FB60F921124CF92DF92EF928B
S1130130FF922F933F934F935F936F937F938F938C
S11301409F93AF93BF93CF93DF93EF93FF938091EC
S1130150810086FF0EC0E1E8F0E080818F7B808320
S113016080918600909187009093A5018093A401CB
S113017040C0E1E8F0E08081806480836091860083
S11301807091870070939B0160939A018091A40100
S11301909091A501EB01C81BD90BD093A301C09387
S11301A0A2016091A0017091A10180E090E00E9401
S11301B0B3036B017C01BE01DD0F880B990B0E9418
S11301C0B503A70196010E94410420E030E040E21B
S11301D051E40E94410420E030E041E154E40E94F3
S11301E0410360939C0170939D0180939E019093C1
S11301F09F01FF91EF91DF91CF91BF91AF919F91BB
S11302008F917F916F915F914F913F912F91FF90CB
S1130210EF90DF90CF900F900FBE0F901F90189526
S113022085B1826085B985E08A95F1F7000085B1D2
S11302308D7F85B90895CF93C82F662321F085B1AA
S1130240816085B903C085B18E7F85B98AB180612B
S11302508AB98AB180628AB98AB180648AB98AB15A
S113026080688AB98BB18F778BB98BB18F7B8BB94F
S11302708BB18F7D8BB98BB18F7E8BB9CC231CF462
S11302808BB180688BB9C6FF03C08BB180648BB916
S1130290C5FF03C08BB180628BB9C4FF03C08BB1AF
S11302A080618BB90E9410018BB18F778BB98BB1B0
S11302B08F7B8BB98BB18F7D8BB98BB18F7E8BB9D3
S11302C0C3FF03C08BB180688BB9C2FF03C08BB17D
S11302D080648BB9C1FF03C08BB180628BB9C0FF4E
S11302E003C08BB180618BB90E9410018BB1806116
S11302F08BB98BB180628BB98BB180648BB98BB1B4
S113030080688BB987EB9BE00197F1F700C0000090
S1130310CF91089560E00E941B010895611104C00B
S113032080580E948A01089580540E948A01089589
S113033081E00E948A01089561E00E941B010895F2
S1130340CF93DF93FC0103C00E949C01FE01EF01E7
S1130350219680818111F8CFDF91CF910895CF93B9
S1130360C82F84B1816084B98AB180628AB984B1AA
S1130370826084B98AB180618AB98AB180628AB99B
S11303808AB180648AB98AB180688AB98FEF99EF9B
S11303900197F1F700C000008BB180628BB98BB17B
S11303A080618BB90E9410018FE19EE40197F1F7FF
S11303B000C000000E9410018FEF90E00197F1F758
S11303C000C000000E9410018FEF90E00197F1F748
S11303D000C000008BB18F7E8BB90E9410018FEF9B
S11303E090E00197F1F700C0000088E20E948A01C2
S11303F088E00E948A010E94980186E00E948A0196
S11304008C2F0E948A01CF9108950F931F93CF934D
S1130410DF9300D0CDB7DEB7182F062F80E290E02F
S11304209A8389834AE0BE016F5F7F4F802F90E0FB
S11304300E94AE0461E080E00E948E011130E1F080
S113044030F0123071F1133009F43FC052C0CE01C4
S113045001960E94A00160E080E00E948E0185E088
S113046091E00E94A00161E085E00E948E018CE091
S113047091E00E94A0013DC0CE0101960E94A0011E
S113048060E080E00E948E018FE091E00E94A00174
S113049061E085E00E948E0186E191E00E94A00166
S11304A028C0013029F488E191E00E94A00104C031
S11304B08BE191E00E94A00160E080E00E948E0147
S11304C08FE191E00E94A00114C0CE0101960E9428
S11304D0A00160E080E00E948E0185E291E00E942C
S11304E0A00161E085E00E948E018FE291E00E940C
S11304F0A0010F900F90DF91CF911F910F9108955C
S11305001F93CF93DF93182FC82FD0E061E0CE0163
S11305100E946C00113031F461E08BE290E00E94A3
S1130520600005C061E08BE290E00E945300CE01C0
S1130530DF91CF911F9108950F931F93CF93DF9372
S1130540C82F8B01D82FCB0181559109879770F45F
S1130550CC2319F0DFEFDC0F01C0D3E060E080E0D2
S11305600E948E0182E391E00E94A001C801895C8F
S113057091098336910570F4D33019F0D1E0DC0F82
S113058001C0D0E060E080E00E948E0182E391E04F
S11305900E94A001C801875891408797D8F42C2F56
S11305A030E0F901EF5FFE4F908141E0C13009F086
S11305B040E081E0911101C080E0842329F0F90139
S11305C0EF5FFE4F95509083C23021F48091030178
S11305D00E94800200351105ACF48C2F90E0FC01E0
S11305E0EF5FFE4F2081243639F0C13029F4FC013D
S11305F0EF5FFE4F2B5F2083C23021F48091030113
S11306000E9480028D2FDF91CF911F910F91089549
S11306108CE00E94AF01ECE7F0E08081806480838D
S113062080818F7780838081807F8083EAE7F0E018
S113063080818068808380818860808380818760F6
S11306408083EAE7F0E080818064808360917800B1
S113065070917900809100010E949C0280930001B6
S1130660E82FF0E0EF5FFE4F60810E9405022FEF5C
S113067083EC99E0215080409040E1F700C00000F5
S1130680E0CF0E9455030C9407040E94000458F024
S11306900E94F90340F029F45F3F29F00C94F00321
S11306A051110C943B040C94F6030E94180468F353
S11306B09923B1F3552391F3951B550BBB27AA2717
S11306C062177307840738F09F5F5F4F220F331F51
S11306D0441FAA1FA9F335D00E2E3AF0E0E832D019
S11306E091505040E695001CCAF72BD0FE2F29D01C
S11306F0660F771F881FBB1F261737074807AB07EE
S1130700B0E809F0BB0B802DBF01FF2793585F4F62
S11307103AF09E3F510578F00C94F0030C943B049E
S11307205F3FE4F3983ED4F3869577956795B79544
S1130730F7959F5FC9F7880F911D9695879597F94F
S11307400895E1E0660F771F881FBB1F62177307C8
S11307508407BA0720F0621B730B840BBA0BEE1FDD
S113076088F7E0950895E89409C097FB3EF49095C6
S11307708095709561957F4F8F4F9F4F9923A9F076
S1130780F92F96E9BB279395F69587957795679505
S1130790B795F111F8CFFAF4BB0F11F460FF1BC049
S11307A06F5F7F4F8F4F9F4F16C0882311F096E9DC
S11307B011C0772321F09EE8872F762F05C066238A
S11307C071F096E8862F70E060E02AF09A95660F43
S11307D0771F881FDAF7880F9695879597F90895FC
S11307E097F99F6780E870E060E008959FEF80ECE0
S11307F0089500240A941616170618060906089583
S113080000240A9412161306140605060895092EE8
S11308100394000C11F4882352F0BB0F40F4BF2B57
S113082011F460FF04C06F5F7F4F8F4F9F4F089597
S113083057FD9058440F551F59F05F3F71F047958D
S1130840880F97FB991F61F09F3F79F08795089572
S1130850121613061406551FF2CF4695F1DF08C091
S1130860161617061806991FF1CF869571056105AE
S113087008940895E894BB2766277727CB0197F956
S113088008950E9454040C9407040E94F90338F05C
S11308900E94000420F0952311F00C94F0030C94B2
S11308A0F60311240C943B040E94180470F3959FE2
S11308B0C1F3950F50E0551F629FF001729FBB2753
S11308C0F00DB11D639FAA27F00DB11DAA1F649FEF
S11308D06627B00DA11D661F829F2227B00DA11DA2
S11308E0621F739FB00DA11D621F839FA00D611D28
S11308F0221F749F3327A00D611D231F849F600D49
S1130900211D822F762F6A2F11249F5750409AF071
S1130910F1F088234AF0EE0FFF1FBB1F661F771FFD
S1130920881F91505040A9F79E3F510580F00C94C8
S1130930F0030C943B045F3FE4F3983ED4F38695B4
S113094077956795B795F795E7959F5FC1F7FE2B68
S1130950880F911D9695879597F90895BB274A307E
S113096031F4992322F4BDE2909581959F4F0C9424
S1130970BA04BB27FB015527AA27880F991FAA1F72
S1130980A41710F0A41B83955051B9F7A05DAA33A6
S113099008F0A95DA193009779F7B111B193119271
S11309A0CB010C94D304DC01FC01672F71917723F4
S11309B0E1F7329704C07C916D9370836291AE1716
S10D09C0BF07C8F30895F894FFCFB1
S11309CA023C50000044657074683A00636D005636
S11309DA616C76653A0025004F6E004F66660050DA
S11309EA756D703A0050726573737572653A00508A
S11309FA61002020202020202020202020202020C8
S1130A0A20202020202020202020202020202020D8
S1130A1A20202020202020202020202020202020C8
S1130A2A20202020202020202020202020202020B8
S1130A3A20202020202020202020202020202020A8
S1130A4A2020202020202020202020202020202098
S10D0A5A202020202020202020006E
S9030000FC
