S0160000576174657254616E6B547269616C2E7372656381
S11300000C9434000C9451000C9451000C94510045
S11300100C9451000C9451000C9451000C94510018
S11300200C9451000C9451000C9465010C944D01F6
S11300300C9451000C9451000C9451000C945100F8
S11300400C9451000C9451000C9451000C945100E8
S11300500C9451000C9451000C9451000C945100D8
S11300600C9451000C94510011241FBECFEFD8E022
S1130070DEBFCDBF11E0A0E0B1E0E0E7FCE002C0EC
S113008005900D92AA39B107D9F721E0AAE9B1E0A8
S113009001C01D92AC3CB207E1F70E945E040C94CF
S11300A036060C940000CF93C82F8EEE0E940902EE
S11300B08C2F0E943A020E9436028FEE0E9409029F
S11300C00E946902C82F0E9436028C2FCF91089596
S11300D0CF93DF93C82F8EEE0E9409028C2F0E94CB
S11300E03A020E9436028FEE0E9409020E945102D7
S11300F0C82FD0E0DC2FCC270E946902C82B0E94B5
S11301003602CE01DF91CF9108950E9468009827AE
S11301108927982708950E94850008950F931F93B7
S1130120CF93DF9388E80E948500CAE9D1E09983E0
S113013088838AE80E948B009B838A838CE80E94D0
S11301408B009D838C838EE80E9485009F838E8321
S113015080E90E948B009987888782E90E948B003E
S11301609B878A8784E90E948B009D878C8786E918
S11301700E948B009F878E8788E90E948B00998B51
S1130180888B8AE90E948B009B8B8A8B8CE90E9466
S11301908B009D8B8C8B8EE90E948B009F8B8E8BAA
S11301A081EA0E945300888F81EE0E948B009A8F0F
S11301B0898F83EE0E9453008B8F84EE0E9453003C
S11301C090E1899F8001112485EE0E9453008F7075
S11301D0082B1D8F0C8F86EE0E94530090E1899F9F
S11301E08001112485EE0E94530082958F70082BA4
S11301F01F8F0E8F87EE0E94530088A3DF91CF914B
S11302001F910F91089580ED0E945300803699F458
S11302108EEE0E94090285EF0E943A028CE60E944B
S11302203A0284EF0E943A0287EB0E943A020E944B
S113023036020E948E000895FC01408121E030E0E6
S113024002C0220F331F6A95E2F7242B20830895FE
S1130250FC01908121E030E002C0220F331F6A9537
S1130260E2F72095292320830895FC01408121E0B1
S113027030E002C0220F331F6A95E2F7242B20835B
S11302800895FC01408121E030E002C0220F331FB9
S11302906A95E2F72427208308951F920F920FB6E0
S11302A00F9211248F939F9395B188E0982795B965
S11302B094E09A95F1F795B1892785B99F918F912B
S11302C00F900FBE0F901F9018951F920F920FB6AC
S11302D00F921124CF92DF92EF92FF922F933F93CC
S11302E04F935F936F937F938F939F93AF93BF933A
S11302F0CF93DF93EF93FF938091810086FF0EC02D
S1130300E1E8F0E080818F7B80838091860090918A
S113031087009093CA018093C90140C0E1E8F0E0EE
S113032080818064808360918600709187007093DF
S1130330C0016093BF018091C9019091CA01EB0192
S1130340C81BD90BD093C801C093C7016091C501E4
S11303507091C60180E090E00E9406056B017C016B
S1130360BE01DD0F880B990B0E940805A7019601B9
S11303700E94940520E030E040E251E40E9494059C
S113038020E030E041E154E40E9494046093C10110
S11303907093C2018093C3019093C401FF91EF91C4
S11303A0DF91CF91BF91AF919F918F917F916F9189
S11303B05F914F913F912F91FF90EF90DF90CF90FD
S11303C00F900FBE0F901F90189584B1886084B968
S11303D0E1E8F0E0808180688083808183608083AD
S11303E0808188608083AFE6B0E08C9182628C93D8
S11303F08081806480838CE594E490938900809369
S1130400880084E090E09093C6018093C5017894BD
S1130410089594EA9093BC0020E431E009C021508F
S1130420310931F48091CB0181608093CB0108952F
S11304309091BC0099231CF02115310581F780931C
S1130440BB0084E88093BC0080E491E008C001977D
S113045031F48091CB0182608093CB010895209187
S1130460BC00222314F0009791F7089584E9809347
S1130470BC0008958093BB0084E88093BC0080E4B2
S113048091E008C0019731F48091CB01846080939E
S1130490CB0108952091BC00222314F0009791F71A
S11304A0089584EC8093BC0080E491E009C0019736
S11304B039F48091CB0188608093CB0180E008956A
S11304C02091BC00222314F0009789F78091BB008F
S11304D0089584E88093BC0080E491E009C001970A
S11304E039F48091CB0180618093CB0180E0089541
S11304F02091BC00222314F0009789F78091BB005F
S1130500089585B1826085B985E08A95F1F7000088
S113051085B18D7F85B90895CF93C82F662321F0C7
S113052085B1816085B903C085B18E7F85B98AB1F3
S113053080618AB98AB180628AB98AB180648AB9D1
S11305408AB180688AB98BB18F778BB98BB18F7B75
S11305508BB98BB18F7D8BB98BB18F7E8BB9CC234B
S11305601CF48BB180688BB9C6FF03C08BB1806467
S11305708BB9C5FF03C08BB180628BB9C4FF03C0C4
S11305808BB180618BB90E9481028BB18F778BB95B
S11305908BB18F7B8BB98BB18F7D8BB98BB18F7EF8
S11305A08BB9C3FF03C08BB180688BB9C2FF03C092
S11305B08BB180648BB9C1FF03C08BB180628BB9EE
S11305C0C0FF03C08BB180618BB90E9481028BB1E3
S11305D080618BB98BB180628BB98BB180648BB92C
S11305E08BB180688BB987EB9BE00197F1F700C072
S11305F00000CF91089560E00E948C02089561117B
S113060004C080580E94FB02089580540E94FB029B
S1130610089581E00E94FB02089561E00E948C022B
S11306200895CF93DF93FC0103C00E940D03FE01E4
S1130630EF01219680818111F8CFDF91CF91089548
S1130640CF93C82F84B1816084B98AB180628AB99A
S113065084B1826084B98AB180618AB98AB18062C6
S11306608AB98AB180648AB98AB180688AB98FEFFD
S113067099EF0197F1F700C000008BB180628BB94C
S11306808BB180618BB90E9481028FE19EE4019756
S1130690F1F700C000000E9481028FEF90E0019703
S11306A0F1F700C000000E9481028FEF90E00197F3
S11306B0F1F700C000008BB18F7E8BB90E948102DC
S11306C08FEF90E00197F1F700C0000088E20E94EC
S11306D0FB0288E00E94FB020E94090386E00E945C
S11306E0FB028C2F0E94FB02CF9108950F931F935E
S11306F0CF93DF9300D0CDB7DEB7182F062F80E25B
S113070090E09A8389834AE0BE016F5F7F4F802F18
S113071090E00E94010661E080E00E94FF02113037
S1130720E1F030F0123071F1133009F447C05AC0CF
S1130730CE0101960E94110360E080E00E94FF0256
S113074085E091E00E94110361E085E00E94FF02D0
S11307508CE091E00E94110345C0CE0101960E94F5
S1130760110360E080E00E94FF028FE091E00E94AC
S1130770110361E085E00E94FF0286E191E00E949E
S1130780110330C0013029F488E191E00E94110383
S113079004C08BE191E00E94110360E080E00E94BC
S11307A0FF028FE191E00E94110361E085E00E9465
S11307B0FF0286E191E00E94110314C0CE0101966C
S11307C00E94110360E080E00E94FF0285E291E054
S11307D00E94110361E085E00E94FF028FE291E034
S11307E00E9411030F900F90DF91CF911F910F91F1
S11307F008951F93CF93DF93182FC82FD0E061E0A3
S1130800CE010E944101113031F461E08BE290E0AD
S11308100E94350105C061E08BE290E00E9428014E
S1130820CE01DF91CF911F910895EF92FF921F9314
S1130830CF93DF93C82F7B0180917800909179004A
S1130840182F8155873258F4DFEFDC0F60E080E029
S11308500E94FF0282E391E00E94110301C0DC2F99
S1130860193C68F0D1E0DC0FD43008F0D0E060E04F
S113087080E00E94FF0282E391E00E9411031035A0
S1130880B0F4EC2FF0E0EE0FFF1FEE0DFF1D019012
S1130890F081E02D8081843621F0C13011F48B5F2A
S11308A08083C23021F4F70184810E94F9038D2FE3
S11308B0DF91CF911F91FF90EF9008958CE00E94FB
S11308C0200361E08AE290E00E941C010E9403017F
S11308D00E94E501ECE7F0E0808180648083808100
S11308E08F7780838081807F8083EAE7F0E0808156
S11308F08068808380818860808380818760808332
S1130900789480910001E82FF0E0EF5FFE4F608162
S11309100E9476036091010170E0809100010E94C1
S1130920150480930001EDCF0E94A8040C945A058D
S11309300E94530558F00E944C0540F029F45F3F93
S113094029F00C94430551110C948E050C9449051F
S11309500E946B0568F39923B1F3552391F3951B1A
S1130960550BBB27AA2762177307840738F09F5FCC
S11309705F4F220F331F441FAA1FA9F335D00E2E39
S11309803AF0E0E832D091505040E695001CCAF7A6
S11309902BD0FE2F29D0660F771F881FBB1F261769
S11309A037074807AB07B0E809F0BB0B802DBF0140
S11309B0FF2793585F4F3AF09E3F510578F00C940F
S11309C043050C948E055F3FE4F3983ED4F386957B
S11309D077956795B795F7959F5FC9F7880F911D30
S11309E09695879597F90895E1E0660F771F881F1C
S11309F0BB1F621773078407BA0720F0621B730BCF
S1130A00840BBA0BEE1F88F7E0950895E89409C0AB
S1130A1097FB3EF490958095709561957F4F8F4F2D
S1130A209F4F9923A9F0F92F96E9BB279395F69543
S1130A30879577956795B795F111F8CFFAF4BB0FC1
S1130A4011F460FF1BC06F5F7F4F8F4F9F4F16C025
S1130A50882311F096E911C0772321F09EE8872FAF
S1130A60762F05C0662371F096E8862F70E060E06B
S1130A702AF09A95660F771F881FDAF7880F9695E4
S1130A80879597F9089597F99F6780E870E060E08B
S1130A9008959FEF80EC089500240A941616170613
S1130AA018060906089500240A941216130614065B
S1130AB005060895092E0394000C11F4882352F0BE
S1130AC0BB0F40F4BF2B11F460FF04C06F5F7F4F76
S1130AD08F4F9F4F089557FD9058440F551F59F05D
S1130AE05F3F71F04795880F97FB991F61F09F3F17
S1130AF079F087950895121613061406551FF2CF40
S1130B004695F1DF08C0161617061806991FF1CF8F
S1130B1086957105610508940895E894BB276627B6
S1130B207727CB0197F908950E94A7050C945A05DD
S1130B300E944C0538F00E94530520F0952311F0D3
S1130B400C9443050C94490511240C948E050E94C1
S1130B506B0570F3959FC1F3950F50E0551F629F8D
S1130B60F001729FBB27F00DB11D639FAA27F00D02
S1130B70B11DAA1F649F6627B00DA11D661F829F29
S1130B802227B00DA11D621F739FB00DA11D621F0E
S1130B90839FA00D611D221F749F3327A00D611D2B
S1130BA0231F849F600D211D822F762F6A2F11240D
S1130BB09F5750409AF0F1F088234AF0EE0FFF1F40
S1130BC0BB1F661F771F881F91505040A9F79E3F97
S1130BD0510580F00C9443050C948E055F3FE4F3BB
S1130BE0983ED4F3869577956795B795F795E795ED
S1130BF09F5FC1F7FE2B880F911D9695879597F9F6
S1130C000895BB274A3031F4992322F4BDE290952C
S1130C1081959F4F0C940D06BB27FB015527AA27EE
S1130C20880F991FAA1FA41710F0A41B8395505175
S1130C30B9F7A05DAA3308F0A95DA193009779F7ED
S1130C40B111B1931192CB010C942606DC01FC0185
S1130C50672F71917723E1F7329704C07C916D93EC
S1130C6070836291AE17BF07C8F30895F894FFCF5D
S1130C70033C50000044657074683A00636D00568C
S1130C80616C76653A0025004F6E004F6666005031
S1130C90756D703A0050726573737572653A0050E1
S1130CA0610020202020202020202020202020201F
S1130CB02020202020202020202020202020202030
S1130CC02020202020202020202020202020202020
S1130CD02020202020202020202020202020202010
S1130CE02020202020202020202020202020202000
S1130CF020202020202020202020202020202020F0
S10D0D0020202020202020202000C5
S9030000FC
