:100000000C9434000C9451000C9451000C94510049
:100010000C9451000C9451000C9451000C9451001C
:100020000C9451000C9451000C94CD040C94B50424
:100030000C9451000C94BD080C9451000C94510088
:100040000C9451000C9451000C9451000C945100EC
:100050000C9451000C947B080C9451000C945100AA
:100060000C9451000C94510011241FBECFEFD8E026
:10007000DEBFCDBF11E0A0E0B1E0E2EBFBE102C0EA
:1000800005900D92AC39B107D9F721E0ACE9B1E0A8
:1000900001C01D92AE3CB207E1F70E942D080C94FE
:1000A000D70D0C940000CF93C82F8EEE0E945605FA
:1000B0008C2F0E9487050E9483058FEE0E945605B3
:1000C0000E94B605C82F0E9483058C2FCF910895FA
:1000D000CF93DF93C82F8EEE0E9456058C2F0E947F
:1000E00087050E9483058FEE0E9456050E949E059B
:1000F000C82FD0E0DC2FCC270E94B605C82B0E9469
:100100008305CE01DF91CF910895CF92DF92EF92D8
:10011000FF92F82E8EEE0E9456058F2D0E948705C5
:100120000E9483058FEE0E9456050E949E05C82EF0
:10013000D12CE12CF12CFE2CED2CDC2CCC240E94BB
:100140009E05C82AFE2CED2CDC2CCC240E94B60582
:10015000C82A0E948305C701B601FF90EF90DF9087
:10016000CF9008954F925F926F927F928F929F925D
:10017000AF92BF92CF92DF92EF92FF928AEF0E94EE
:1001800085006B017C01C114D10480E8E806F1040C
:1001900009F48EC0B701A601689416F876956795A4
:1001A000579547951694D1F7ECE9F1E0808191815C
:1001B000A0E0B0E0880F991FAA1FBB1F9A01AB01F6
:1001C000281B390B4A0B5B0BA281B3810E94F20BF7
:1001D0004B015C01072E7BE0B694A794979487941B
:1001E0007A95D1F7702DCD2CDE2CEF2CFF24808159
:1001F0009181A7019601281B390B41095109808182
:10020000918126013701481A590A61087108C30112
:10021000B2010E94C30B9B01AC01012E1CE056955C
:100220004795379527951A95D1F7102DA481B5815B
:100230000E94F20BDC01CB01072E7EE0B695A7955C
:10024000979587957A95D1F7702D880D991DAA1DE0
:10025000BB1D8093BD019093BE01A093BF01B093DD
:10026000C0018091BD019091BE01A091BF01B091EC
:10027000C001AC01BD01440F551F661F771F440F1D
:10028000551F661F771F840F951FA61FB71F805825
:100290009F4FAF4FBF4F692F7A2F8B2F99270E9407
:1002A0002D0A20E030E048EC52E40E947F0904C0AF
:1002B00060E070E080EC9FE7FF90EF90DF90CF90E0
:1002C000BF90AF909F908F907F906F905F904F9076
:1002D00008952F923F924F925F926F927F928F92EA
:1002E0009F92AF92BF92CF92DF92EF92FF920F93C5
:1002F0001F93CF93DF93CDB7DEB76E970FB6F89409
:10030000DEBF0FBECDBF0E94B20087EF0E94850006
:100310006115710500E88007910509F43DC29B0154
:10032000AC01689413F85595479537952795169421
:10033000D1F7298B3A8B4B8B5C8B8091BD019091CF
:10034000BE01A091BF01B091C0018C019D0140E0B0
:1003500050E0BA018F8B188F298F3A8F4B8F5C8FAB
:100360006D8F7E8F282F312F498D5A8D60E070E080
:1003700080E090E0345F41405109610971098109D1
:10038000910929833A83442E552E662E772E282EE6
:10039000392EA22EB32EC42ED52EE62EF72E082FE0
:1003A000192F0E94FA0B2B833C834D835E836F834E
:1003B00078878B879C878091AC019091AD01192F34
:1003C000110F110BA82EB92EC12ED12EE12EF12E18
:1003D000012F8B859C850E94FA0B29873A874D87D0
:1003E0005E87862E972E8F87988B8091AA01909199
:1003F000AB01192F110F110BA82EB92EC12ED12E22
:10040000E12EF12E012F29813A81442D552D662DA3
:10041000772D822D932D0E94FA0B01E10E942A0D67
:10042000A22EB32EC42ED52EE62EF72E082F192F6E
:1004300029853A854D855E85682D792D8F8598892A
:100440000E94610D822E932E49875A87B62FA72FBF
:10045000F82FE92F8091A8019091A901192F110F70
:10046000110B282F392F412F512F612F712F812FE1
:10047000912F03E20E942A0DA22EB32EC42ED52E58
:10048000E62EF72E082F192F282D392D49855A854C
:100490006B2F7A2F8F2F9E2F0E94610D29873A870D
:1004A0004D875E876F87788B8D8B9E8B8091A601A1
:1004B0009091A701192F110F110BA82EB92EC12E43
:1004C000D12EE12EF12E012F2B813C814D815E81B9
:1004D0006F8178858B859C850E94FA0B08E00E94CD
:1004E000430D2B833C834D835E83862E972E8F8313
:1004F00098878091A4019091A501192F110F110BDC
:10050000A82EB92EC12ED12EE12EF12E012F298138
:100510003A81442D552D662D772D822D932D0E94E5
:10052000FA0B0CE00E942A0DA22EB32EC42ED52E5B
:10053000E62EF72E082F192F2B813C814D815E81ED
:10054000682D792D8F8198850E94610D70588F4F8D
:100550009F4FE091A201F091A3011F01AE2EB32C99
:10056000C12CD12CE12CF12C00E010E00E94FA0B00
:1005700001E20E94430D422E532E642E752E862ECC
:10058000972E8A839983A0E00E94730D09F409C114
:1005900080E090E0A0E1B0E029893A894B895C894C
:1005A000821B930BA40BB50B5C016D01282F3B2D17
:1005B0004C2D5D2D60E070E080E090E00FE10E9446
:1005C0002A0DA984BA84CD84DE84EF84F8880D894D
:1005D0001E890E946A0D0F2EF5E3AF2EF02D0F2E0F
:1005E000FCE0BF2EF02DC12CD12CE12CF12C00E031
:1005F00010E00E94FA0BA42CB52CC62CD72CE82CAA
:10060000F92C0A8119810E94550C29833A834B8366
:100610005C836D837E838F839887A091B201B091B4
:10062000B301EB2FEE0FEE0B0DE00E94430D222ED7
:10063000332E442E552E662E772E882E992EA22EDE
:10064000B32EC42ED52EE62EF72E082F192F2A2FC3
:100650003B2F4E2F5E2F6E2F7E2F8E2F9E2F0E94B0
:10066000FA0BA22EB32EC42ED52EE62EF72E082F6F
:10067000192F222D332D442D552D662D772D882DA4
:10068000992D0E94FA0B09E10E94430D522E432E30
:10069000342E252E6B877C8789879A878091B001BD
:1006A0009091B101192F110F110BA82EB92EC12E47
:1006B000D12EE12EF12E012F29813A814B815C81CF
:1006C0006D817E818F8198850E94FA0B03E10E94E3
:1006D000430D622E732E842E952EB62FA72FF82F42
:1006E000E92F29813A814B815C816D817E818F81E7
:1006F0009885A52CB42CC32CD22CEB84FC840985C2
:100700001A850E94610DA22EB32EC42ED52EE62E80
:10071000F72E082F192F262D372D482D592D6B2FE9
:100720007A2F8F2F9E2F0E94610D08E00E94430DAB
:10073000822E932E642E752EB62FA72FF82FE92F19
:100740004091AE015091AF01952F990F990B242F35
:10075000352F492F592F692F792F892F04E00E94B7
:100760002A0DA22EB32EC42ED52EE62EF72E082F3C
:10077000192F282D392D462D572D6B2F7A2F8F2F7E
:100780009E2F0E94610D0E94270A20E030E040E881
:100790005BE30E94090B08C060E070E080EC9FE71B
:1007A00003C060E070E0CB016E960FB6F894DEBF38
:1007B0000FBECDBFDF91CF911F910F91FF90EF90B2
:1007C000DF90CF90BF90AF909F908F907F906F9071
:1007D0005F904F903F902F9008950E946800982757
:1007E0008927982708950E94ED0308950F931F937A
:1007F000CF93DF9388E80E94ED03CCE9D1E09983A1
:1008000088838AE80E94F3039B838A838CE80E9492
:10081000F3039D838C838EE80E94ED039F838E8378
:1008200080E90E94F3039987888782E90E94F30395
:100830009B878A8784E90E94F3039D878C8786E9DA
:100840000E94F3039F878E8788E90E94F303998BA8
:10085000888B8AE90E94F3039B8B8A8B8CE90E9428
:10086000F3039D8B8C8B8EE90E94F3039F8B8E8B01
:1008700081EA0E945300888F81EE0E94F3039A8FD1
:10088000898F83EE0E9453008B8F84EE0E94530069
:1008900090E1899F8001112485EE0E9453008F70A2
:1008A000082B1D8F0C8F86EE0E94530090E1899FCC
:1008B0008001112485EE0E94530082958F70082BD1
:1008C0001F8F0E8F87EE0E94530088A3DF91CF9178
:1008D0001F910F91089580ED0E945300803699F486
:1008E0008EEE0E94560585EF0E9487058CE60E94D9
:1008F000870584EF0E94870587EB0E9487050E9489
:1009000083050E94F6030895FC01408121E030E058
:1009100002C0220F331F6A95E2F7242B208308952B
:10092000FC01908121E030E002C0220F331F6A9564
:10093000E2F72095292320830895FC01408121E0DE
:1009400030E002C0220F331F6A95E2F7242B208388
:100950000895FC01408121E030E002C0220F331FE6
:100960006A95E2F72427208308951F920F920FB60D
:100970000F9211248F939F9395B188E0982795B992
:1009800094E09A95F1F795B1892785B99F918F9158
:100990000F900FBE0F901F9018951F920F920FB6D9
:1009A0000F921124CF92DF92EF92FF922F933F93F9
:1009B0004F935F936F937F938F939F93AF93BF9367
:1009C000CF93DF93EF93FF938091810086FF0EC05A
:1009D000E1E8F0E080818F7B8083809186009091B8
:1009E00087009093CC018093CB0140C0E1E8F0E018
:1009F000808180648083609186007091870070930D
:100A0000C2016093C1018091CB019091CC01EB01B7
:100A1000C81BD90BD093CA01C093C9016091C7010B
:100A20007091C80180E090E00E942D0A6B017C016A
:100A3000BE01DD0F880B990B0E942F0AA7019601BA
:100A40000E94090B20E030E040E251E40E94090BD3
:100A500020E030E041E154E40E947F096093C3014B
:100A60007093C4018093C5019093C601FF91EF91EB
:100A7000DF91CF91BF91AF919F918F917F916F91B6
:100A80005F914F913F912F91FF90EF90DF90CF902A
:100A90000F900FBE0F901F9018956091C301709139
:100AA000C4018091C5019091C601089594EA909384
:100AB000BC0020E431E009C02150310931F48091BB
:100AC000CD0181608093CD0108959091BC00992360
:100AD0001CF02115310581F78093BB0084E88093D9
:100AE000BC0080E491E008C0019731F48091CD0111
:100AF00082608093CD0108952091BC00222314F0E0
:100B0000009791F7089584E98093BC00089580933D
:100B1000BB0084E88093BC0080E491E008C00197AA
:100B200031F48091CD0184608093CD0108952091AE
:100B3000BC00222314F0009791F7089584EC809371
:100B4000BC0080E491E009C0019739F48091CD01A7
:100B500088608093CD0180E008952091BC0022231D
:100B600014F0009789F78091BB00089584E8809382
:100B7000BC0080E491E009C0019739F48091CD0177
:100B800080618093CD0180E008952091BC002223F4
:100B900014F0009789F78091BB00089585B18260B9
:100BA00085B985E08A95F1F7000085B18D7F85B91B
:100BB0000895CF93C82F662321F085B1816085B950
:100BC00003C085B18E7F85B98AB180618AB98AB147
:100BD00080628AB98AB180648AB98AB180688AB928
:100BE0008BB18F778BB98BB18F7B8BB98BB18F7DAD
:100BF0008BB98BB18F7E8BB9CC231CF48BB1806801
:100C00008BB9C6FF03C08BB180648BB9C5FF03C02D
:100C10008BB180628BB9C4FF03C08BB180618BB98B
:100C20000E94CE058BB18F778BB98BB18F7B8BB93F
:100C30008BB18F7D8BB98BB18F7E8BB9C3FF03C016
:100C40008BB180688BB9C2FF03C08BB180648BB954
:100C5000C1FF03C08BB180628BB9C0FF03C08BB1F1
:100C600080618BB90E94CE058BB180618BB98BB14D
:100C700080628BB98BB180648BB98BB180688BB982
:100C800087EB9BE00197F1F700C00000CF9108953A
:100C900060E00E94D9050895611104C080580E9447
:100CA0004806089580540E944806089581E00E94F5
:100CB0004806089561E00E94D9050895CF93DF9317
:100CC000FC0103C00E945A06FE01EF0121968081BB
:100CD0008111F8CFDF91CF910895CF93C82F84B1C0
:100CE000816084B98AB180628AB984B1826084B932
:100CF0008AB180618AB98AB180628AB98AB1806416
:100D00008AB98AB180688AB98FEF99EF0197F1F7B4
:100D100000C000008BB180628BB98BB180618BB950
:100D20000E94CE058FE19EE40197F1F700C000001C
:100D30000E94CE058FEF90E00197F1F700C0000010
:100D40000E94CE058FEF90E00197F1F700C0000000
:100D50008BB18F7E8BB90E94CE058FEF90E001970B
:100D6000F1F700C0000088E20E94480688E00E9477
:100D700048060E94560686E00E9448068C2F0E9474
:100D80004806CF9108950F931F93CF93DF9300D020
:100D9000CDB7DEB7182F062F80E290E09A838983C3
:100DA0004AE0BE016F5F7F4F802F90E00E94A20D4E
:100DB00061E080E00E944C061130E1F030F012302A
:100DC00071F1133009F43FC052C0CE0101960E9468
:100DD0005E0660E080E00E944C0686E091E00E94A2
:100DE0005E0661E085E00E944C068DE091E00E9485
:100DF0005E063DC0CE0101960E945E0660E080E086
:100E00000E944C0680E191E00E945E0661E085E070
:100E10000E944C0687E191E00E945E0628C00130E6
:100E200029F489E191E00E945E0604C08CE191E022
:100E30000E945E0660E080E00E944C0680E291E045
:100E40000E945E0614C0CE0101960E945E0660E01C
:100E500080E00E944C0686E291E00E945E0661E01E
:100E600085E00E944C0680E391E00E945E060F90B0
:100E70000F90DF91CF911F910F910895CF92DF9244
:100E8000EF92FF92CF93C82F0E9469016B017C0102
:100E90006C2F70E080E090E00E942F0AA70196017D
:100EA0000E94120920E030E249E156E40E94090B59
:100EB00020E030E04AE754E40E947F090E94760B6C
:100EC0000E94F809862FCF91FF90EF90DF90CF908E
:100ED00008951F93CF93DF93182FC82FD0E061E0C0
:100EE000CE010E94A904113031F461E08BE290E060
:100EF0000E949D0405C061E08BE290E00E94900496
:100F0000CE01DF91CF911F910895CF93C82F62E05A
:100F100084E290E00E94D2088C2F0E94F608CF91C4
:100F20000895EF92FF920F931F93CF93DF93C82FF3
:100F30007B018A01D82FCA0181559109879760F4F6
:100F4000DFEFDC0F0AF4D3E060E080E00E944C06A3
:100F500083E391E00E945E06C801895C91098336B3
:100F6000910568F4D1E0DC0FD4300CF0D0E060E003
:100F700080E00E944C0683E391E00E945E06C80177
:100F800087589140879700F5EC2FF0E0EE0FFF1F98
:100F9000EE0DFF1D0190F081E02D91E0C13009F0D0
:100FA00090E081E0309709F480E0892319F0808196
:100FB00085508083C23041F4D7011496ED91FC91A5
:100FC000159780810E94690700351105D4F4EC2F34
:100FD000F0E0EE0FFF1FEE0DFF1D0190F081E02D00
:100FE0008081843621F0C13011F48B5F8083C23060
:100FF00041F4D7011496ED91FC91159780810E94E0
:1010000069078D2FDF91CF911F910F91FF90EF9086
:101010000895CF92DF92EF92FF92682F70E080E008
:1010200090E00E942F0A6B017C010E944D0520E098
:1010300030E048EC52E40E947F099B01AC01C701FB
:10104000B6010E9412090E94760B0E94F109862FB8
:10105000FF90EF90DF90CF9008958CE00E946D0696
:1010600061E08AE290E00E9484040E946B04ECE755
:10107000F0E080818064808380818F7780838081AD
:10108000807F8083EAE7F0E08081806880838081D0
:1010900088608083808187608083EAE7F0E08081D8
:1010A000806480832FEF83EC99E021508040904052
:1010B000E1F700C0000080910001C1E0D1E0E82F1D
:1010C000F0E0EF5FFE4F60810E94C3068091050152
:1010D0000E94090888830E943E078B834091780014
:1010E00050917900688170E0809100010E94910721
:1010F00080930001D2CF1F920F920FB60F9211244E
:101100002F933F934F935F936F937F938F939F930F
:10111000AF93BF93CF93DF93EF93FF938091000141
:10112000C1E0D1E0E82FF0E0EF5FFE4F60810E9468
:10113000C3064091780050917900BE018091000172
:101140000E9491078093000189810E9485078A810E
:101150000E946907FF91EF91DF91CF91BF91AF910D
:101160009F918F917F916F915F914F913F912F91BF
:101170000F900FBE0F901F9018951F920F920FB6F1
:101180000F9211248F93EF93FF93EAE7F0E08081B1
:1011900080648083FF91EF918F910F900FBE0F902D
:1011A0001F901895FC01408121E030E002C0220F21
:1011B000331F6A95E2F7242B20831092850010924A
:1011C00084008FE39CE99093870080938600E0E899
:1011D000F0E080E88083808182608083E1E8F0E055
:1011E00088E18083808182608083089520ED37E0EC
:1011F000482F429FC001439F900D11246AE570E083
:101200000E94D30B072E000C880B990B0E942F0A0B
:101210000E94760B0E94F80970E070938B00609337
:101220008A0008955058BB27AA270E942A090C94C7
:10123000CF0A0E94C10A38F00E94C80A20F039F48F
:101240009F3F19F426F40C94AE0A0EF4E095E7FBE8
:101250000C94A80AE92F0E94E00A58F3BA17620713
:1012600073078407950720F079F4A6F50C94020B18
:101270000EF4E0950B2EBA2FA02D0B01B9019001B1
:101280000C01CA01A0011124FF27591B99F0593FF5
:1012900050F4503E68F11A16F040A22F232F342F3D
:1012A0004427585FF3CF469537952795A795F0408B
:1012B0005395C9F77EF41F16BA0B620B730B840BA0
:1012C000BAF09150A1F0FF0FBB1F661F771F881F58
:1012D000C2F70EC0BA0F621F731F841F48F48795B0
:1012E00077956795B795F7959E3F08F0B0CF9395A2
:1012F000880F08F09927EE0F9795879508950E941B
:1013000093090C94CF0A0E94C80A58F00E94C10A9F
:1013100040F029F45F3F29F00C94A80A51110C9475
:10132000030B0C94AE0A0E94E00A68F39923B1F310
:10133000552391F3951B550BBB27AA2762177307FB
:10134000840738F09F5F5F4F220F331F441FAA1F8F
:10135000A9F335D00E2E3AF0E0E832D0915050404B
:10136000E695001CCAF72BD0FE2F29D0660F771FF9
:10137000881FBB1F261737074807AB07B0E809F0DF
:10138000BB0B802DBF01FF2793585F4F3AF09E3F64
:10139000510578F00C94A80A0C94030B5F3FE4F31A
:1013A000983ED4F3869577956795B795F7959F5FA7
:1013B000C9F7880F911D9695879597F90895E1E0F3
:1013C000660F771F881FBB1F621773078407BA0752
:1013D00020F0621B730B840BBA0BEE1F88F7E095AD
:1013E00008950E94F8096894B1110C94030B0895B4
:1013F0000E94E80A88F09F5798F0B92F9927B751B3
:10140000B0F0E1F0660F771F881F991F1AF0BA95A8
:10141000C9F714C0B13091F00E94020BB1E00895F9
:101420000C94020B672F782F8827B85F39F0B93FEB
:10143000CCF3869577956795B395D9F73EF490955B
:101440008095709561957F4F8F4F9F4F089597FBC3
:1014500016F40E94B10A0C946B0AE89409C097FB39
:101460003EF490958095709561957F4F8F4F9F4F7B
:101470009923A9F0F92F96E9BB279395F6958795BF
:1014800077956795B795F111F8CFFAF4BB0F11F482
:1014900060FF1BC06F5F7F4F8F4F9F4F16C0882329
:1014A00011F096E911C0772321F09EE8872F762F5F
:1014B00005C0662371F096E8862F70E060E02AF0A0
:1014C0009A95660F771F881FDAF7880F969587958C
:1014D00097F90895E894F92F96EBFF2381F01216FF
:1014E00013061406440B9395F695879577956795A3
:1014F00057954040FF23B9F71BC0992708958823CB
:1015000051F49850D2F7872B762F652F542F432F05
:10151000322F20E0B1F3121613061406440B882371
:101520003AF09A95440F551F661F771F881FCAF718
:1015300055234AF4440F551F11F460FF04C06F5F38
:101540007F4F8F4F9F4F880F9695879597F90895F6
:1015500097F99F6780E870E060E008959FEF80EC66
:10156000089590958095709560955095409530952B
:1015700021953F4F4F4F5F4F6F4F7F4F8F4F9F4F83
:10158000089500240A9416161706180609060895E9
:1015900000240A9412161306140605060895092E4F
:1015A0000394000C11F4882352F0BB0F40F4BF2BBE
:1015B00011F460FF04C06F5F7F4F8F4F9F4F0895FE
:1015C00057FD9058440F551F59F05F3F71F04795F4
:1015D000880F97FB991F61F09F3F79F087950895D9
:1015E000121613061406551FF2CF4695F1DF08C0F8
:1015F000161617061806991FF1CF86957105610515
:1016000008940895E894BB2766277727CB0197F9BC
:1016100008950E941C0B0C94CF0A0E94C10A38F056
:101620000E94C80A20F0952311F00C94A80A0C948B
:10163000AE0A11240C94030B0E94E00A70F3959FEC
:10164000C1F3950F50E0551F629FF001729FBB27B9
:10165000F00DB11D639FAA27F00DB11DAA1F649F55
:101660006627B00DA11D661F829F2227B00DA11D08
:10167000621F739FB00DA11D621F839FA00D611D8E
:10168000221F749F3327A00D611D231F849F600DAF
:10169000211D822F762F6A2F11249F5750409AF0D8
:1016A000F1F088234AF0EE0FFF1FBB1F661F771F64
:1016B000881F91505040A9F79E3F510580F00C942F
:1016C000A80A0C94030B5F3FE4F3983ED4F386958D
:1016D00077956795B795F795E7959F5FC1F7FE2BCF
:1016E000880F911D9695879597F908950E94E80AAD
:1016F000E8F09E37E8F09639B8F49E3848F4672F42
:10170000782F8827985FF9CF869577956795939579
:101710009539D0F3B62FB1706B0F711D811D20F478
:1017200087957795679593950C949A0B0C94B50BC8
:101730000C94030B882371F4772321F09850872BA6
:10174000762F07C0662311F499270DC09051862B80
:1017500070E060E02AF09A95660F771F881FDAF72D
:10176000880F9695879597F908959F3F31F091508E
:1017700020F4879577956795B795880F911D969575
:10178000879597F90895DB018F939F930E94E70B4C
:10179000BF91AF91A29F800D911DA39F900DB29F0D
:1017A000900D1124089597FB072E16F4009407D08E
:1017B00077FD09D00E947F0D07FC05D03EF490957F
:1017C00081959F4F0895709561957F4F08950E9470
:1017D000930DA59F900DB49F900DA49F800D911D1A
:1017E00011240895B7FF0C94E70B0E94E70B821BAE
:1017F000930B0895DF93CF931F930F939A9DF02D32
:10180000219FF00D8B9DF00D8A9DE02DF10D039F22
:10181000F00D029FE00DF11D4E9DE00DF11D5E9D4E
:10182000F00D4F9DF00D7F936F93BF92AF925F933A
:101830004F93D5010E94930D8B01AC01D7010E94FB
:10184000930DEB01E80FF91FD6010E944A0C2F916E
:101850003F91D6010E94930DC60FD71FE81FF91FB5
:10186000AF91BF910E944A0C2F913F910E94930D1E
:10187000C60FD71FE81FF91FD6010E94930DE60F70
:10188000F71F9801BE01CF0111240F911F91CF9135
:10189000DF9108950E94930D460F571FC81FD91F4F
:1018A00008F431960895689401C0E894F92FF12B5B
:1018B00012F00C94870CA0E0B0E0E1E6FCE00C94A0
:1018C000F90C092E059422F40E94E30C112392F4E2
:1018D000F0E80F26FFEFE094F09400951095B09497
:1018E000C094D094A194BF0ACF0ADF0AEF0AFF0A7E
:1018F0000F0B1F0B0E94920C07FC0E94E30CCDB74C
:10190000DEB7ECE00C94150D689401C0E8948F925A
:101910009F92CF93DF930E94920CDF91CF919F9083
:101920008F90089588249924F401E401B0E49F93F2
:10193000AA279A158B049C04ED05FE05CF05D00758
:10194000A10798F4AD2FDC2FCF2FFE2FE92D982C77
:10195000892E982F872F762F652F542F432F322FC4
:101960002227B85031F7BF9127C01B2EBF91BB274C
:10197000220F331F441F551F661F771F881F991F93
:10198000881C991CEE1FFF1FCC1FDD1FAA1FBB1F49
:101990008A149B04EC05FD05CE05DF05A007B10701
:1019A00048F08A189B08EC09FD09CE09DF09A00B55
:1019B000B10B21601A94E1F62EF49401AF01BE013F
:1019C000CD01000C089560957095809590953095A7
:1019D0004095509521953F4F4F4F5F4F6F4F7F4F31
:1019E0008F4F9F4F08952F923F924F925F926F9229
:1019F0007F928F929F92AF92BF92CF92DF92EF929F
:101A0000FF920F931F93CF93DF93CDB7DEB7CA1B1F
:101A1000DB0B0FB6F894DEBF0FBECDBF09942A884A
:101A2000398848885F846E847D848C849B84AA84F2
:101A3000B984C884DF80EE80FD800C811B81AA817F
:101A4000B981CE0FD11D0FB6F894DEBF0FBECDBF4A
:101A5000ED0108950F93083090F0982F872F762F7F
:101A6000652F542F432F322F22270850F4CF220FF7
:101A7000331F441F551F661F771F881F991F0A9524
:101A8000B2F70F91089597FB10F8169400080F9382
:101A9000083098F00850232F342F452F562F672FEA
:101AA000782F892F902DF4CF05949795879577956A
:101AB000679557954795379527950A95AAF70F91FA
:101AC00008952A0D3B1D4C1D5D1D6E1D7F1D801F41
:101AD000911F08952A193B094C095D096E097F0978
:101AE000800B910B08950024A7FD00942A17300560
:101AF0004005500560057005800590050895AA1BF6
:101B0000BB1B51E107C0AA1FBB1FA617B70710F0E8
:101B1000A61BB70B881F991F5A95A9F7809590951A
:101B2000BC01CD010895A29FB001B39FC001A39F46
:101B3000700D811D1124911DB29F700D811D112406
:101B4000911D0895BB274A3031F4992322F4BDE258
:101B5000909581959F4F0C94AE0DBB27FB015527A7
:101B6000AA27880F991FAA1FA41710F0A41B8395FA
:101B70005051B9F7A05DAA3308F0A95DA193009771
:101B800079F7B111B1931192CB010C94C70DDC011F
:101B9000FC01672F71917723E1F7329704C07C91A4
:101BA0006D9370836291AE17BF07C8F30895F894E0
:021BB000FFCF65
:101BB200023C5000006444657074683A00636D0032
:101BC20056616C76653A0025004F6E004F666600DE
:101BD20050756D703A0050726573737572653A0094
:101BE20050610020202020202020202020202020A2
:101BF20020202020202020202020202020202020E3
:101C020020202020202020202020202020202020D2
:101C120020202020202020202020202020202020C2
:101C220020202020202020202020202020202020B2
:101C320020202020202020202020202020202020A2
:0C1C420020202020202020202020000056
:00000001FF
