S0160000576174657254616E6B547269616C2E7372656381
S11300000C9434000C9451000C9451000C94510045
S11300100C9451000C9451000C9451000C94510018
S11300200C9451000C9451000C9459010C9441010E
S11300300C9451000C9451000C9451000C945100F8
S11300400C9451000C9451000C9451000C945100E8
S11300500C9451000C9451000C9451000C945100D8
S11300600C9451000C94510011241FBECFEFD8E022
S1130070DEBFCDBF11E0A0E0B1E0E8E3FCE002C0E8
S113008005900D92AC39B107D9F721E0ACE9B1E0A4
S113009001C01D92AE3CB207E1F70E9438040C94F3
S11300A01A060C940000CF93C82F8EEE0E94D9013B
S11300B08C2F0E940A020E9406028FEE0E94D90130
S11300C00E943902C82F0E9406028C2FCF910895F6
S11300D0CF93DF93C82F8EEE0E94D9018C2F0E94FC
S11300E00A020E9406028FEE0E94D9010E94210298
S11300F0C82FD0E0DC2FCC270E943902C82B0E94E5
S11301000602CE01DF91CF9108950E9468009827DE
S11301108927982708950E94850008950F931F93B7
S1130120CF93DF9388E80E948500CCE9D1E09983DE
S113013088838AE80E948B009B838A838CE80E94D0
S11301408B009D838C838EE80E9485009F838E8321
S113015080E90E948B009987888782E90E948B003E
S11301609B878A8784E90E948B009D878C8786E918
S11301700E948B009F878E8788E90E948B00998B51
S1130180888B8AE90E948B009B8B8A8B8CE90E9466
S11301908B009D8B8C8B8EE90E948B009F8B8E8BAA
S11301A081EA0E945300888F81EE0E948B009A8F0F
S11301B0898F83EE0E9453008B8F84EE0E9453003C
S11301C090E1899F8001112485EE0E9453008F7075
S11301D0082B1D8F0C8F86EE0E94530090E1899F9F
S11301E08001112485EE0E94530082958F70082BA4
S11301F01F8F0E8F87EE0E94530088A3DF91CF914B
S11302001F910F91089580ED0E945300803699F458
S11302108EEE0E94D90185EF0E940A028CE60E94AC
S11302200A0284EF0E940A0287EB0E940A020E94DB
S113023006020E948E000895FC01408121E030E016
S113024002C0220F331F6A95E2F7242B20830895FE
S1130250FC01908121E030E002C0220F331F6A9537
S1130260E2F72095292320830895FC01408121E0B1
S113027030E002C0220F331F6A95E2F7242B20835B
S113028008951F920F920FB60F9211248F939F938C
S113029095B188E0982795B994E09A95F1F795B1CE
S11302A0892785B99F918F910F900FBE0F901F9052
S11302B018951F920F920FB60F921124CF92DF92CE
S11302C0EF92FF922F933F934F935F936F937F939C
S11302D08F939F93AF93BF93CF93DF93EF93FF934A
S11302E08091810086FF0EC0E1E8F0E080818F7B81
S11302F0808380918600909187009093CC018093B5
S1130300CB0140C0E1E8F0E08081806480836091AB
S11303108600709187007093C2016093C10180913F
S1130320CB019091CC01EB01C81BD90BD093CA012E
S1130330C093C9016091C7017091C80180E090E049
S11303400E94EA046B017C01BE01DD0F880B990B4E
S11303500E94EC04A70196010E94780520E030E099
S113036040E251E40E94780520E030E041E154E4A9
S11303700E9478046093C3017093C4018093C50103
S11303809093C601FF91EF91DF91CF91BF91AF910F
S11303909F918F917F916F915F914F913F912F9199
S11303A0FF90EF90DF90CF900F900FBE0F901F90B3
S11303B0189594EA9093BC0020E431E009C02150E0
S11303C0310931F48091CD0181608093CD0108958C
S11303D09091BC0099231CF02115310581F780937D
S11303E0BB0084E88093BC0080E491E008C00197DE
S11303F031F48091CD0182608093CD0108952091E4
S1130400BC00222314F0009791F7089584E98093A7
S1130410BC0008958093BB0084E88093BC0080E412
S113042091E008C0019731F48091CD0184608093FC
S1130430CD0108952091BC00222314F0009791F778
S1130440089584EC8093BC0080E491E009C0019796
S113045039F48091CD0188608093CD0180E00895C6
S11304602091BC00222314F0009789F78091BB00EF
S1130470089584E88093BC0080E491E009C001976A
S113048039F48091CD0180618093CD0180E008959D
S11304902091BC00222314F0009789F78091BB00BF
S11304A0089585B1806885B985E08A95F1F70000E3
S11304B085B18F7785B90895CF93C82F662321F02E
S11304C085B1816085B903C085B18E7F85B98AB154
S11304D080618AB98AB180628AB98AB180648AB932
S11304E08AB180688AB98BB18F778BB98BB18F7BD6
S11304F08BB98BB18F7D8BB98BB18F7E8BB9CC23AC
S11305001CF48BB180688BB9C6FF03C08BB18064C7
S11305108BB9C5FF03C08BB180628BB9C4FF03C024
S11305208BB180618BB90E9451028BB18F778BB9EB
S11305308BB18F7B8BB98BB18F7D8BB98BB18F7E58
S11305408BB9C3FF03C08BB180688BB9C2FF03C0F2
S11305508BB180648BB9C1FF03C08BB180628BB94E
S1130560C0FF03C08BB180618BB90E9451028BB173
S113057080618BB98BB180628BB98BB180648BB98C
S11305808BB180688BB987EB9BE00197F1F700C0D2
S11305900000CF91089560E00E945C02089561110B
S11305A004C080580E94CB02089580540E94CB025C
S11305B0089581E00E94CB02089561E00E945C02EC
S11305C00895CF93DF93FC0103C00E94DD02FE0176
S11305D0EF01219680818111F8CFDF91CF910895A9
S11305E0CF93C82F84B1816084B98AB180628AB9FB
S11305F084B1806884B98AB180618AB98AB1806221
S11306008AB98AB180648AB98AB180688AB98FEF5D
S113061099EF0197F1F700C000008BB180628BB9AC
S11306208BB180618BB90E9451028FE19EE40197E6
S1130630F1F700C000000E9451028FEF90E0019793
S1130640F1F700C000000E9451028FEF90E0019783
S1130650F1F700C000008BB18F7E8BB90E9451026C
S11306608FEF90E00197F1F700C0000088E20E944C
S1130670CB0288E00E94CB020E94D90286E00E944D
S1130680CB028C2F0E94CB02CF9108950F931F931E
S1130690CF93DF9300D0CDB7DEB7182F062F80E2BB
S11306A090E09A8389834AE0BE016F5F7F4F802F79
S11306B090E00E94E50561E080E00E94CF021130E5
S11306C0E1F030F0123071F1133009F43FC052C040
S11306D0CE0101960E94E10260E080E00E94CF0218
S11306E085E091E00E94E10261E085E00E94CF0292
S11306F08CE091E00E94E1023DC0CE0101960E948F
S1130700E10260E080E00E94CF028FE091E00E946D
S1130710E10261E085E00E94CF0286E191E00E945F
S1130720E10228C0013029F488E191E00E94E1024D
S113073004C08CE191E00E94E10260E080E00E944C
S1130740CF0280E291E00E94E10214C0CE01019642
S11307500E94E10260E080E00E94CF0286E291E024
S11307600E94E10261E085E00E94CF0280E391E013
S11307700E94E1020F900F90DF91CF911F910F9192
S113078008959091030181E0911180E08093030129
S1130790813031F461E08BE290E00E9435010895EC
S11307A061E08BE290E00E94280108950F931F936B
S11307B0CF93DF93C82F8B01D82FCB01815591099B
S11307C0879770F4CC2319F0DFEFDC0F01C0D3E07E
S11307D060E080E00E94CF0283E391E00E94E102A6
S11307E0C801895C91098336910570F4D33019F0FE
S11307F0D1E0DC0F01C0D0E060E080E00E94CF02D5
S113080083E391E00E94E102C801875891408797F1
S113081098F4C13069F48C2F90E0FC01EF5FFE4F37
S11308202081222329F0FC01EF5FFE4F2550208315
S1130830C23011F40E94C103003511059CF48C2FC1
S113084090E0FC01EF5FFE4F2081243639F0C13087
S113085029F4FC01EF5FFE4F2B5F2083C23011F4BB
S11308600E94C1038D2FDF91CF911F910F910895A5
S11308708CE00E94F00261E08AE290E00E941C0198
S11308800E940301ECE7F0E0808180648083808132
S11308908F7780838081807F8083EAE7F0E08081A6
S11308A08068808380818860808380818760808382
S11308B0EAE7F0E080818064808360917800709141
S11308C07900809100010E94D60380930001E82FF3
S11308D0F0E0EF5FFE4F60810E9446032FEF83EC50
S11308E099E0215080409040E1F700C00000E0CF43
S11308F00E948C040C943E050E94370558F00E9417
S1130900300540F029F45F3F29F00C94270551117C
S11309100C9472050C942D050E944F0568F39923DD
S1130920B1F3552391F3951B550BBB27AA276217E7
S11309307307840738F09F5F5F4F220F331F441FF4
S1130940AA1FA9F335D00E2E3AF0E0E832D0915028
S11309505040E695001CCAF72BD0FE2F29D0660F15
S1130960771F881FBB1F261737074807AB07B0E858
S113097009F0BB0B802DBF01FF2793585F4F3AF05E
S11309809E3F510578F00C9427050C9472055F3F47
S1130990E4F3983ED4F3869577956795B795F795E4
S11309A09F5FC9F7880F911D9695879597F90895CC
S11309B0E1E0660F771F881FBB1F62177307840768
S11309C0BA0720F0621B730B840BBA0BEE1F88F777
S11309D0E0950895E89409C097FB3EF490958095BE
S11309E0709561957F4F8F4F9F4F9923A9F0F92FF1
S11309F096E9BB279395F695879577956795B7956F
S1130A00F111F8CFFAF4BB0F11F460FF1BC06F5F54
S1130A107F4F8F4F9F4F16C0882311F096E911C066
S1130A20772321F09EE8872F762F05C0662371F087
S1130A3096E8862F70E060E02AF09A95660F771F9B
S1130A40881FDAF7880F9695879597F9089597F98F
S1130A509F6780E870E060E008959FEF80EC089560
S1130A6000240A9416161706180609060895002489
S1130A700A9412161306140605060895092E039403
S1130A80000C11F4882352F0BB0F40F4BF2B11F477
S1130A9060FF04C06F5F7F4F8F4F9F4F089557FDD6
S1130AA09058440F551F59F05F3F71F04795880FD8
S1130AB097FB991F61F09F3F79F08795089512166F
S1130AC013061406551FF2CF4695F1DF08C016161B
S1130AD017061806991FF1CF8695710561050894CC
S1130AE00895E894BB2766277727CB0197F90895E3
S1130AF00E948B050C943E050E94300538F00E943C
S1130B00370520F0952311F00C9427050C942D053E
S1130B1011240C9472050E944F0570F3959FC1F344
S1130B20950F50E0551F629FF001729FBB27F00D97
S1130B30B11D639FAA27F00DB11DAA1F649F6627EC
S1130B40B00DA11D661F829F2227B00DA11D621F3B
S1130B50739FB00DA11D621F839FA00D611D221FF5
S1130B60749F3327A00D611D231F849F600D211DD9
S1130B70822F762F6A2F11249F5750409AF0F1F05C
S1130B8088234AF0EE0FFF1FBB1F661F771F881FC5
S1130B9091505040A9F79E3F510580F00C942705D1
S1130BA00C9472055F3FE4F3983ED4F386957795F1
S1130BB06795B795F795E7959F5FC1F7FE2B880F6B
S1130BC0911D9695879597F90895BB274A3031F47E
S1130BD0992322F4BDE2909581959F4F0C94F105E1
S1130BE0BB27FB015527AA27880F991FAA1FA41703
S1130BF010F0A41B83955051B9F7A05DAA3308F0F7
S1130C00A95DA193009779F7B111B1931192CB012A
S1130C100C940A06DC01FC01672F71917723E1F73C
S1130C20329704C07C916D9370836291AE17BF07B5
S10B0C30C8F30895F894FFCF06
S1130C38023C50000044657074683A00636D0056C5
S1130C48616C76653A0025004F6E20004F66660099
S1130C5850756D703A0050726573737572653A0019
S1130C685061002020202020202020202020202027
S1130C782020202020202020202020202020202068
S1130C882020202020202020202020202020202058
S1130C982020202020202020202020202020202048
S1130CA82020202020202020202020202020202038
S1130CB82020202020202020202020202020202028
S10F0CC8202020202020202020200000DC
S9030000FC
