:100000000C9434000C9451000C9451000C94510049
:100010000C9451000C9451000C9451000C9451001C
:100020000C9451000C9451000C949C040C94840486
:100030000C9451000C9451000C9451000C945100FC
:100040000C9451000C9451000C9451000C945100EC
:100050000C9451000C94C3070C9451000C94510063
:100060000C9451000C94510011241FBECFEFD8E026
:10007000DEBFCDBF11E0A0E0B1E0EAEFF9E102C0E0
:1000800005900D92A435B107D9F721E0A4E5B1E0C0
:1000900001C01D92A738B207E1F70E949E070C9499
:1000A000FB0C0C940000CF93C82F8EEE0E944905E4
:1000B0008C2F0E947A050E9476058FEE0E944905DA
:1000C0000E94A905C82F0E9476058C2FCF91089514
:1000D000CF93DF93C82F8EEE0E9449058C2F0E948C
:1000E0007A050E9476058FEE0E9449050E949105CF
:1000F000C82FD0E0DC2FCC270E94A905C82B0E9476
:100100007605CE01DF91CF910895CF92DF92EF92E5
:10011000FF92F82E8EEE0E9449058F2D0E947A05DF
:100120000E9476058FEE0E9449050E949105C82E17
:10013000D12CE12CF12CFE2CED2CDC2CCC240E94BB
:100140009105C82AFE2CED2CDC2CCC240E94A9059C
:10015000C82A0E947605C701B601FF90EF90DF9094
:10016000CF9008954F925F926F927F928F929F925D
:10017000AF92BF92CF92DF92EF92FF928AEF0E94EE
:1001800085006B017C01C114D10480E8E806F1040C
:1001900009F48EC0B701A601689416F876956795A4
:1001A000579547951694D1F7E5E5F1E08081918167
:1001B000A0E0B0E0880F991FAA1FBB1F9A01AB01F6
:1001C000281B390B4A0B5B0BA281B3810E94160BD3
:1001D0004B015C01072E7BE0B694A794979487941B
:1001E0007A95D1F7702DCD2CDE2CEF2CFF24808159
:1001F0009181A7019601281B390B41095109808182
:10020000918126013701481A590A61087108C30112
:10021000B2010E94E70A9B01AC01012E1CE0569539
:100220004795379527951A95D1F7102DA481B5815B
:100230000E94160BDC01CB01072E7EE0B695A79538
:10024000979587957A95D1F7702D880D991DAA1DE0
:10025000BB1D8093760190937701A0937801B093B2
:1002600079018091760190917701A0917801B09108
:100270007901AC01BD01440F551F661F771F440F64
:10028000551F661F771F840F951FA61FB71F805825
:100290009F4FAF4FBF4F692F7A2F8B2F99270E9407
:1002A000510920E030E048EC52E40E94A30804C069
:1002B00060E070E080EC9FE7FF90EF90DF90CF90E0
:1002C000BF90AF909F908F907F906F905F904F9076
:1002D00008952F923F924F925F926F927F928F92EA
:1002E0009F92AF92BF92CF92DF92EF92FF920F93C5
:1002F0001F93CF93DF93CDB7DEB76E970FB6F89409
:10030000DEBF0FBECDBF0E94B20087EF0E94850006
:100310006115710500E88007910509F43DC29B0154
:10032000AC01689413F85595479537952795169421
:10033000D1F7298B3A8B4B8B5C8B80917601909116
:100340007701A0917801B09179018C019D0140E085
:1003500050E0BA018F8B188F298F3A8F4B8F5C8FAB
:100360006D8F7E8F282F312F498D5A8D60E070E080
:1003700080E090E0345F41405109610971098109D1
:10038000910929833A83442E552E662E772E282EE6
:10039000392EA22EB32EC42ED52EE62EF72E082FE0
:1003A000192F0E941E0B2B833C834D835E836F832A
:1003B00078878B879C878091650190916601192FC2
:1003C000110F110BA82EB92EC12ED12EE12EF12E18
:1003D000012F8B859C850E941E0B29873A874D87AC
:1003E0005E87862E972E8F87988B809163019091E0
:1003F0006401192F110F110BA82EB92EC12ED12E69
:10040000E12EF12E012F29813A81442D552D662DA3
:10041000772D822D932D0E941E0B01E10E944E0C20
:10042000A22EB32EC42ED52EE62EF72E082F192F6E
:1004300029853A854D855E85682D792D8F8598892A
:100440000E94850C822E932E49875A87B62FA72F9C
:10045000F82FE92F8091610190916201192F110FFE
:10046000110B282F392F412F512F612F712F812FE1
:10047000912F03E20E944E0CA22EB32EC42ED52E35
:10048000E62EF72E082F192F282D392D49855A854C
:100490006B2F7A2F8F2F9E2F0E94850C29873A87EA
:1004A0004D875E876F87788B8D8B9E8B80915F01E8
:1004B00090916001192F110F110BA82EB92EC12E8A
:1004C000D12EE12EF12E012F2B813C814D815E81B9
:1004D0006F8178858B859C850E941E0B08E00E94A9
:1004E000670C2B833C834D835E83862E972E8F83F0
:1004F000988780915D0190915E01192F110F110B6A
:10050000A82EB92EC12ED12EE12EF12E012F298138
:100510003A81442D552D662D772D822D932D0E94E5
:100520001E0B0CE00E944E0CA22EB32EC42ED52E14
:10053000E62EF72E082F192F2B813C814D815E81ED
:10054000682D792D8F8198850E94850C70588F4F6A
:100550009F4FE0915B01F0915C011F01AE2EB32C27
:10056000C12CD12CE12CF12C00E010E00E941E0BDC
:1005700001E20E94670C422E532E642E752E862EA9
:10058000972E8A839983A0E00E94970C09F409C1F1
:1005900080E090E0A0E1B0E029893A894B895C894C
:1005A000821B930BA40BB50B5C016D01282F3B2D17
:1005B0004C2D5D2D60E070E080E090E00FE10E9446
:1005C0004E0CA984BA84CD84DE84EF84F8880D892A
:1005D0001E890E948E0C0F2EF5E3AF2EF02D0F2EEC
:1005E000FCE0BF2EF02DC12CD12CE12CF12C00E031
:1005F00010E00E941E0BA42CB52CC62CD72CE82C86
:10060000F92C0A8119810E94790B29833A834B8343
:100610005C836D837E838F839887A0916B01B091FB
:100620006C01EB2FEE0FEE0B0DE00E94670C222EFB
:10063000332E442E552E662E772E882E992EA22EDE
:10064000B32EC42ED52EE62EF72E082F192F2A2FC3
:100650003B2F4E2F5E2F6E2F7E2F8E2F9E2F0E94B0
:100660001E0BA22EB32EC42ED52EE62EF72E082F4B
:10067000192F222D332D442D552D662D772D882DA4
:10068000992D0E941E0B09E10E94670C522E432EE9
:10069000342E252E6B877C8789879A878091690104
:1006A00090916A01192F110F110BA82EB92EC12E8E
:1006B000D12EE12EF12E012F29813A814B815C81CF
:1006C0006D817E818F8198850E941E0B03E10E94BF
:1006D000670C622E732E842E952EB62FA72FF82F1F
:1006E000E92F29813A814B815C816D817E818F81E7
:1006F0009885A52CB42CC32CD22CEB84FC840985C2
:100700001A850E94850CA22EB32EC42ED52EE62E5D
:10071000F72E082F192F262D372D482D592D6B2FE9
:100720007A2F8F2F9E2F0E94850C08E00E94670C65
:10073000822E932E642E752EB62FA72FF82FE92F19
:100740004091670150916801952F990F990B242FC3
:10075000352F492F592F692F792F892F04E00E94B7
:100760004E0CA22EB32EC42ED52EE62EF72E082F19
:10077000192F282D392D462D572D6B2F7A2F8F2F7E
:100780009E2F0E94850C0E944B0920E030E040E83B
:100790005BE30E942D0A08C060E070E080EC9FE7F8
:1007A00003C060E070E0CB016E960FB6F894DEBF38
:1007B0000FBECDBFDF91CF911F910F91FF90EF90B2
:1007C000DF90CF90BF90AF909F908F907F906F9071
:1007D0005F904F903F902F9008950E946800982757
:1007E0008927982708950E94ED0308950F931F937A
:1007F000CF93DF9388E80E94ED03C5E5D1E09983AC
:1008000088838AE80E94F3039B838A838CE80E9492
:10081000F3039D838C838EE80E94ED039F838E8378
:1008200080E90E94F3039987888782E90E94F30395
:100830009B878A8784E90E94F3039D878C8786E9DA
:100840000E94F3039F878E8788E90E94F303998BA8
:10085000888B8AE90E94F3039B8B8A8B8CE90E9428
:10086000F3039D8B8C8B8EE90E94F3039F8B8E8B01
:1008700081EA0E945300888F81EE0E94F3039A8FD1
:10088000898F83EE0E9453008B8F84EE0E94530069
:1008900090E1899F8001112485EE0E9453008F70A2
:1008A000082B1D8F0C8F86EE0E94530090E1899FCC
:1008B0008001112485EE0E94530082958F70082BD1
:1008C0001F8F0E8F87EE0E94530088A3DF91CF9178
:1008D0001F910F91089580ED0E945300803699F486
:1008E0008EEE0E94490585EF0E947A058CE60E94F3
:1008F0007A0584EF0E947A0587EB0E947A050E94B0
:1009000076050E94F60308951F920F920FB60F927C
:1009100011248F939F9395B184E0982795B994E023
:100920009A95F1F795B1892785B99F918F910F908D
:100930000FBE0F901F9018951F920F920FB60F9237
:100940001124CF92DF92EF92FF922F933F934F9318
:100950005F936F937F938F939F93AF93BF93CF9347
:10096000DF93EF93FF938091810086FF0EC0E1E853
:10097000F0E080818F7B808380918600909187005A
:10098000909385018093840140C0E1E8F0E080818C
:1009900080648083609186007091870070937B01F2
:1009A00060937A018091840190918501EB01C81BCD
:1009B000D90BD0938301C093820160918001709123
:1009C000810180E090E00E9451096B017C01BE0131
:1009D000DD0F880B990B0E945309A70196010E9415
:1009E0002D0A20E030E040E251E40E942D0A20E090
:1009F00030E041E154E40E94A30860937C017093CD
:100A00007D0180937E0190937F01FF91EF91DF91B3
:100A1000CF91BF91AF919F918F917F916F915F9196
:100A20004F913F912F91FF90EF90DF90CF900F90DB
:100A30000FBE0F901F90189584B1846084B9E1E8CF
:100A4000F0E0808180688083808183608083808102
:100A500088608083AFE6B0E08C9182628C93808165
:100A6000806480838CE594E490938900809388006F
:100A700084E090E0909381018093800178940895C0
:100A800060917C0170917D0180917E0190917F0148
:100A9000089594EA9093BC0020E431E009C021500D
:100AA000310931F480918601816080938601089537
:100AB0009091BC0099231CF02115310581F780939A
:100AC000BB0084E88093BC0080E491E008C00197FB
:100AD00031F480918601826080938601089520918F
:100AE000BC00222314F0009791F7089584E98093C5
:100AF000BC0008958093BB0084E88093BC0080E430
:100B000091E008C0019731F4809186018460809360
:100B1000860108952091BC00222314F0009791F7DC
:100B2000089584EC8093BC0080E491E009C00197B3
:100B300039F48091860188608093860180E0089571
:100B40002091BC00222314F0009789F78091BB000C
:100B5000089584E88093BC0080E491E009C0019787
:100B600039F48091860180618093860180E0089548
:100B70002091BC00222314F0009789F78091BB00DC
:100B8000089585B1826085B985E08A95F1F7000006
:100B900085B18D7F85B90895CF93C82F662321F045
:100BA00085B1816085B903C085B18E7F85B98AB171
:100BB00080618AB98AB180628AB98AB180648AB94F
:100BC0008AB180688AB98BB18F778BB98BB18F7BF3
:100BD0008BB98BB18F7D8BB98BB18F7E8BB9CC23C9
:100BE0001CF48BB180688BB9C6FF03C08BB18064E5
:100BF0008BB9C5FF03C08BB180628BB9C4FF03C042
:100C00008BB180618BB90E94C1058BB18F778BB995
:100C10008BB18F7B8BB98BB18F7D8BB98BB18F7E75
:100C20008BB9C3FF03C08BB180688BB9C2FF03C00F
:100C30008BB180648BB9C1FF03C08BB180628BB96B
:100C4000C0FF03C08BB180618BB90E94C1058BB11D
:100C500080618BB98BB180628BB98BB180648BB9A9
:100C60008BB180688BB987EB9BE00197F1F700C0EF
:100C70000000CF91089560E00E94CC0508956111B5
:100C800004C080580E943B06089580540E943B0691
:100C9000089581E00E943B06089561E00E94CC0522
:100CA0000895CF93DF93FC0103C00E944D06FE011F
:100CB000EF01219680818111F8CFDF91CF910895C6
:100CC000CF93C82F84B1816084B98AB180628AB918
:100CD00084B1826084B98AB180618AB98AB1806244
:100CE0008AB98AB180648AB98AB180688AB98FEF7B
:100CF00099EF0197F1F700C000008BB180628BB9CA
:100D00008BB180618BB90E94C1058FE19EE4019790
:100D1000F1F700C000000E94C1058FEF90E001973D
:100D2000F1F700C000000E94C1058FEF90E001972D
:100D3000F1F700C000008BB18F7E8BB90E94C10516
:100D40008FEF90E00197F1F700C0000088E20E9469
:100D50003B0688E00E943B060E94490686E00E940E
:100D60003B068C2F0E943B06CF9108950F931F9353
:100D7000CF93DF9300D0CDB7DEB7182F062F80E2D8
:100D800090E09A83898360E080E00E943F0685E0DE
:100D900091E00E9451064AE0BE016F5F7F4F802FB5
:100DA00090E00E94C60C1130B9F028F0123029F101
:100DB0001330A1F143C060E080E00E943F068DE265
:100DC00091E00E94510665E081E00E943F0684E3C5
:100DD00091E00E94510632C060E080E00E943F0630
:100DE00087E391E00E94510665E081E00E943F06A2
:100DF0008EE391E00E94510621C060E080E00E94F5
:100E00003F0680E491E00E94510665E081E00E9487
:100E10003F068EE391E00E94510610C060E080E042
:100E20000E943F0686E491E00E94510665E081E061
:100E30000E943F0680E591E00E94510660E081E05B
:100E40000E943F06CE0101960E9451060F900F901E
:100E5000DF91CF911F910F910895CF92DF92EF9282
:100E6000FF92CF93C82F0E9469016B017C016C2F08
:100E700070E080E090E00E945309A70196010E9473
:100E8000360820E030E249E156E40E942D0A20E0D5
:100E900030E04AE754E40E94A3080E949A0A0E94A4
:100EA0001C09862FCF91FF90EF90DF90CF9008958F
:100EB0002091780030917900223348F0273928F0CA
:100EC0008F5F853090F080E0089581500895E82F7D
:100ED000F0E0EE0FFF1FE60FF71F0190F081E02D0D
:100EE0009081923610F49B5F90830895CF92DF92A9
:100EF000EF92FF92682F70E080E090E00E9453092B
:100F00006B017C010E94400520E030E048EC52E497
:100F10000E94A3089B01AC01C701B6010E943608DC
:100F20000E949A0A0E941509862FFF90EF90DF9089
:100F3000CF90089590E00E941A0808950E946B04D3
:100F40000E941C058CE00E94600662E070E084E272
:100F500090E00E94F607789480915401C0E0D1E0BF
:100F6000E82FF0E0E050FF4F60810E94B6068091CC
:100F700004010E94760788830E942D078B8384E6F4
:100F80000E949A07FCCF1F920F920FB60F92112466
:100F90002F933F934F935F936F937F938F939F9381
:100FA000AF93BF93CF93DF93EF93FF93C0E0D1E074
:100FB000688170E0809154010E9458078093540129
:100FC00089810E949A07FF91EF91DF91CF91BF91A4
:100FD000AF919F918F917F916F915F914F913F91D1
:100FE0002F910F900FBE0F901F901895FC0140811C
:100FF00021E030E002C0220F331F6A95E2F7242B74
:10100000208310928500109284008FE39CE99093D6
:10101000870080938600E0E8F0E080E880838081AC
:1010200082608083E1E8F0E088E1808380818260F3
:101030008083089520ED37E0482F429FC001439FF1
:10104000900D11246AE570E00E94F70A072E000C4B
:10105000880B990B0E9453090E949A0A0E941C094E
:1010600070E070938B0060938A0008955058BB27FE
:10107000AA270E944E080C94F3090E94E50938F053
:101080000E94EC0920F039F49F3F19F426F40C94E7
:10109000D2090EF4E095E7FB0C94CC09E92F0E94ED
:1010A000040A58F3BA17620773078407950720F0FC
:1010B00079F4A6F50C94260A0EF4E0950B2EBA2FBF
:1010C000A02D0B01B90190010C01CA01A00111244E
:1010D000FF27591B99F0593F50F4503E68F11A16FA
:1010E000F040A22F232F342F4427585FF3CF46958B
:1010F00037952795A795F0405395C9F77EF41F16AD
:10110000BA0B620B730B840BBAF09150A1F0FF0F76
:10111000BB1F661F771F881FC2F70EC0BA0F621F62
:10112000731F841F48F4879577956795B795F79552
:101130009E3F08F0B0CF9395880F08F09927EE0FE7
:101140009795879508950E94B7080C94F3090E941B
:10115000EC0958F00E94E50940F029F45F3F29F0BE
:101160000C94CC0951110C94270A0C94D2090E94BA
:10117000040A68F39923B1F3552391F3951B550B9A
:10118000BB27AA2762177307840738F09F5F5F4F5A
:10119000220F331F441FAA1FA9F335D00E2E3AF099
:1011A000E0E832D091505040E695001CCAF72BD0B1
:1011B000FE2F29D0660F771F881FBB1F2617370702
:1011C0004807AB07B0E809F0BB0B802DBF01FF2734
:1011D00093585F4F3AF09E3F510578F00C94CC093C
:1011E0000C94270A5F3FE4F3983ED4F386957795F5
:1011F0006795B795F7959F5FC9F7880F911D9695ED
:10120000879597F90895E1E0660F771F881FBB1F48
:10121000621773078407BA0720F0621B730B840BF5
:10122000BA0BEE1F88F7E09508950E941C09689498
:10123000B1110C94270A08950E940C0A88F09F5758
:1012400098F0B92F9927B751B0F0E1F0660F771FEA
:10125000881F991F1AF0BA95C9F714C0B13091F0E0
:101260000E94260AB1E008950C94260A672F782F71
:101270008827B85F39F0B93FCCF3869577956795A5
:10128000B395D9F73EF490958095709561957F4F11
:101290008F4F9F4F089597FB16F40E94D5090C9429
:1012A0008F09E89409C097FB3EF49095809570955E
:1012B00061957F4F8F4F9F4F9923A9F0F92F96E9A2
:1012C000BB279395F695879577956795B795F11117
:1012D000F8CFFAF4BB0F11F460FF1BC06F5F7F4FB4
:1012E0008F4F9F4F16C0882311F096E911C07723C6
:1012F00021F09EE8872F762F05C0662371F096E8CF
:10130000862F70E060E02AF09A95660F771F881F9D
:10131000DAF7880F9695879597F90895E894F92F4D
:1013200096EBFF2381F0121613061406440B9395D7
:10133000F69587957795679557954040FF23B9F7C0
:101340001BC099270895882351F49850D2F7872B12
:10135000762F652F542F432F322F20E0B1F3121632
:1013600013061406440B88233AF09A95440F551F30
:10137000661F771F881FCAF755234AF4440F551F6D
:1013800011F460FF04C06F5F7F4F8F4F9F4F880F36
:101390009695879597F9089597F99F6780E870E08B
:1013A00060E008959FEF80EC08959095809570958A
:1013B000609550954095309521953F4F4F4F5F4F29
:1013C0006F4F7F4F8F4F9F4F089500240A9416163A
:1013D000170618060906089500240A941216130623
:1013E000140605060895092E0394000C11F48823B1
:1013F00052F0BB0F40F4BF2B11F460FF04C06F5FCD
:101400007F4F8F4F9F4F089557FD9058440F551FA2
:1014100059F05F3F71F04795880F97FB991F61F076
:101420009F3F79F087950895121613061406551FED
:10143000F2CF4695F1DF08C0161617061806991F59
:10144000F1CF86957105610508940895E894BB274E
:1014500066277727CB0197F908950E94400A0C94DC
:10146000F3090E94E50938F00E94EC0920F0952369
:1014700011F00C94CC090C94D20911240C94270A75
:101480000E94040A70F3959FC1F3950F50E0551F19
:10149000629FF001729FBB27F00DB11D639FAA27C9
:1014A000F00DB11DAA1F649F6627B00DA11D661F18
:1014B000829F2227B00DA11D621F739FB00DA11D39
:1014C000621F839FA00D611D221F749F3327A00DF3
:1014D000611D231F849F600D211D822F762F6A2F8F
:1014E00011249F5750409AF0F1F088234AF0EE0FF4
:1014F000FF1FBB1F661F771F881F91505040A9F721
:101500009E3F510580F00C94CC090C94270A5F3F54
:10151000E4F3983ED4F3869577956795B795F7955C
:10152000E7959F5FC1F7FE2B880F911D96958795D4
:1015300097F908950E940C0AE8F09E37E8F0963972
:10154000B8F49E3848F4672F782F8827985FF9CF32
:1015500086957795679593959539D0F3B62FB170A9
:101560006B0F711D811D20F4879577956795939575
:101570000C94BE0A0C94D90A0C94270A882371F49F
:10158000772321F09850872B762F07C0662311F41C
:1015900099270DC09051862B70E060E02AF09A9553
:1015A000660F771F881FDAF7880F9695879597F94A
:1015B00008959F3F31F0915020F487957795679576
:1015C000B795880F911D9695879597F90895DB013A
:1015D0008F939F930E940B0BBF91AF91A29F800DA1
:1015E000911DA39F900DB29F900D1124089597FB1C
:1015F000072E16F4009407D077FD09D00E94A30CA3
:1016000007FC05D03EF4909581959F4F0895709505
:1016100061957F4F08950E94B70CA59F900DB49FD0
:10162000900DA49F800D911D11240895B7FF0C9477
:101630000B0B0E940B0B821B930B0895DF93CF9330
:101640001F930F939A9DF02D219FF00D8B9DF00D10
:101650008A9DE02DF10D039FF00D029FE00DF11D1D
:101660004E9DE00DF11D5E9DF00D4F9DF00D7F93A1
:101670006F93BF92AF925F934F93D5010E94B70CC7
:101680008B01AC01D7010E94B70CEB01E80FF91FE9
:10169000D6010E946E0B2F913F91D6010E94B70C8C
:1016A000C60FD71FE81FF91FAF91BF910E946E0BA5
:1016B0002F913F910E94B70CC60FD71FE81FF91F4B
:1016C000D6010E94B70CE60FF71F9801BE01CF01AB
:1016D00011240F911F91CF91DF9108950E94B70CB3
:1016E000460F571FC81FD91F08F4319608956894F4
:1016F00001C0E894F92FF12B12F00C94AB0BA0E091
:10170000B0E0E5E8FBE00C941D0C092E059422F4F2
:101710000E94070C112392F4F0E80F26FFEFE094EB
:10172000F09400951095B094C094D094A194BF0A01
:10173000CF0ADF0AEF0AFF0A0F0B1F0B0E94B60B3E
:1017400007FC0E94070CCDB7DEB7ECE00C94390C17
:10175000689401C0E8948F929F92CF93DF930E9488
:10176000B60BDF91CF919F908F9008958824992494
:10177000F401E401B0E49F93AA279A158B049C041A
:10178000ED05FE05CF05D007A10798F4AD2FDC2F9E
:10179000CF2FFE2FE92D982C892E982F872F762F6B
:1017A000652F542F432F322F2227B85031F7BF9186
:1017B00027C01B2EBF91BB27220F331F441F551F6D
:1017C000661F771F881F991F881C991CEE1FFF1F1B
:1017D000CC1FDD1FAA1FBB1F8A149B04EC05FD054F
:1017E000CE05DF05A007B10748F08A189B08EC0971
:1017F000FD09CE09DF09A00BB10B21601A94E1F6B7
:101800002EF49401AF01BE01CD01000C0895609546
:1018100070958095909530954095509521953F4FC6
:101820004F4F5F4F6F4F7F4F8F4F9F4F08952F92B6
:101830003F924F925F926F927F928F929F92AF9260
:10184000BF92CF92DF92EF92FF920F931F93CF93AD
:10185000DF93CDB7DEB7CA1BDB0B0FB6F894DEBF44
:101860000FBECDBF09942A88398848885F846E846A
:101870007D848C849B84AA84B984C884DF80EE80B4
:10188000FD800C811B81AA81B981CE0FD11D0FB6BD
:10189000F894DEBF0FBECDBFED0108950F93083061
:1018A00090F0982F872F762F652F542F432F322FAC
:1018B00022270850F4CF220F331F441F551F661FE5
:1018C000771F881F991F0A95B2F70F91089597FB0C
:1018D00010F8169400080F93083098F00850232F42
:1018E000342F452F562F672F782F892F902DF4CF27
:1018F000059497958795779567955795479537956B
:1019000027950A95AAF70F9108952A0D3B1D4C1DA6
:101910005D1D6E1D7F1D801F911F08952A193B09B3
:101920004C095D096E097F09800B910B0895002415
:10193000A7FD00942A173005400550056005700585
:10194000800590050895AA1BBB1B51E107C0AA1F83
:10195000BB1FA617B70710F0A61BB70B881F991F50
:101960005A95A9F780959095BC01CD010895A29F45
:10197000B001B39FC001A39F700D811D1124911D63
:10198000B29F700D811D1124911D0895BB274A300F
:1019900031F4992322F4BDE2909581959F4F0C94E8
:1019A000D20CBB27FB015527AA27880F991FAA1F16
:1019B000A41710F0A41B83955051B9F7A05DAA336A
:1019C00008F0A95DA193009779F7B111B193119235
:1019D000CB010C94EB0CDC01FC01672F7191772398
:1019E000E1F7329704C07C916D9370836291AE17DA
:0A19F000BF07C8F30895F894FFCF75
:1019FA003C503C000A2020202020202020202020AB
:101A0A0020202020202020202020202020202020CC
:101A1A002020202020202020202020200044657023
:101A2A0074683A00636D0056616C76653A00250069
:101A3A0050756D703A0050726573737572653A002D
:041A4A0050610000E7
:00000001FF
