S0160000576174657254616E6B547269616C2E7372656381
S11300000C9434000C9451000C9451000C94510045
S11300100C9451000C9451000C9451000C94510018
S11300200C9451000C9451000C94C1040C94A90438
S11300300C9451000C9451000C9451000C945100F8
S11300400C9451000C9451000C9451000C945100E8
S11300500C9451000C9451000C9451000C945100D8
S11300600C9451000C94510011241FBECFEFD8E022
S1130070DEBFCDBF11E0A0E0B1E0EEE8FDE102C0DB
S113008005900D92A03BB107D9F721E0A0EBB1E0B8
S113009001C01D92A43EB207E1F70E9468090C94C6
S11300A0C50E0C940000CF93C82F8EEE0E946D05F0
S11300B08C2F0E949E050E949A058FEE0E946D056A
S11300C00E94CD05C82F0E949A058C2FCF910895C8
S11300D0CF93DF93C82F8EEE0E946D058C2F0E9464
S11300E09E050E949A058FEE0E946D050E94B5053B
S11300F0C82FD0E0DC2FCC270E94CD05C82B0E944E
S11301009A05CE01DF91CF910895CF92DF92EF92BD
S1130110FF92F82E8EEE0E946D058F2D0E949E0593
S11301200E949A058FEE0E946D050E94B505C82EA7
S1130130D12CE12CF12CFE2CED2CDC2CCC240E94B7
S1130140B505C82AFE2CED2CDC2CCC240E94CD0550
S1130150C82A0E949A05C701B601FF90EF90DF906C
S1130160CF9008954F925F926F927F928F929F9259
S1130170AF92BF92CF92DF92EF92FF928AEF0E94EA
S113018085006B017C01C114D10480E8E806F10408
S113019009F48EC0B701A601689416F876956795A0
S11301A0579547951694D1F7E2EBF1E08081918160
S11301B0A0E0B0E0880F991FAA1FBB1F9A01AB01F2
S11301C0281B390B4A0B5B0BA281B3810E94F40CF0
S11301D04B015C01072E7BE0B694A7949794879417
S11301E07A95D1F7702DCD2CDE2CEF2CFF24808155
S11301F09181A7019601281B390B4109510980817E
S1130200918126013701481A590A61087108C3010E
S1130210B2010E94D90C9B01AC01012E1CE0569541
S11302204795379527951A95D1F7102DA481B58157
S11302300E94F40CDC01CB01072E7EE0B695A79555
S1130240979587957A95D1F7702D880D991DAA1DDC
S1130250BB1D8093D3019093D401A093D501B09397
S1130260D6018091D3019091D401A091D501B09190
S1130270D601AC01BD01440F551F661F771F440F03
S1130280551F661F771F840F951FA61FB71F805821
S11302909F4FAF4FBF4F692F7A2F8B2F99270E9403
S11302A01A0B20E030E048EC52E40E946C0A04C0CF
S11302B060E070E080EC9FE7FF90EF90DF90CF90DC
S11302C0BF90AF909F908F907F906F905F904F9072
S11302D008952F923F924F925F926F927F928F92E6
S11302E09F92AF92BF92CF92DF92EF92FF920F93C1
S11302F01F93CF93DF93CDB7DEB76E970FB6F89405
S1130300DEBF0FBECDBF0E94B20087EF0E94850002
S11303106115710500E88007910509F43DC29B0150
S1130320AC01689413F8559547953795279516941D
S1130330D1F7298B3A8B4B8B5C8B8091D3019091B5
S1130340D401A091D501B091D6018C019D0140E06A
S113035050E0BA018F8B188F298F3A8F4B8F5C8FA7
S11303606D8F7E8F282F312F498D5A8D60E070E07C
S113037080E090E0345F41405109610971098109CD
S1130380910929833A83442E552E662E772E282EE2
S1130390392EA22EB32EC42ED52EE62EF72E082FDC
S11303A0192F0E94FC0C2B833C834D835E836F8347
S11303B078878B879C878091C2019091C301192F04
S11303C0110F110BA82EB92EC12ED12EE12EF12E14
S11303D0012F8B859C850E94FC0C29873A874D87C9
S11303E05E87862E972E8F87988B8091C00190917F
S11303F0C101192F110F110BA82EB92EC12ED12E08
S1130400E12EF12E012F29813A81442D552D662D9F
S1130410772D822D932D0E94FC0C01E10E942C0E5D
S1130420A22EB32EC42ED52EE62EF72E082F192F6A
S113043029853A854D855E85682D792D8F85988926
S11304400E94630E822E932E49875A87B62FA72FB8
S1130450F82FE92F8091BE019091BF01192F110F40
S1130460110B282F392F412F512F612F712F812FDD
S1130470912F03E20E942C0EA22EB32EC42ED52E51
S1130480E62EF72E082F192F282D392D49855A8548
S11304906B2F7A2F8F2F9E2F0E94630E29873A8706
S11304A04D875E876F87788B8D8B9E8B8091BC0187
S11304B09091BD01192F110F110BA82EB92EC12E29
S11304C0D12EE12EF12E012F2B813C814D815E81B5
S11304D06F8178858B859C850E94FC0C08E00E94C6
S11304E0450E2B833C834D835E83862E972E8F830C
S11304F098878091BA019091BB01192F110F110BAC
S1130500A82EB92EC12ED12EE12EF12E012F298134
S11305103A81442D552D662D772D822D932D0E94E1
S1130520FC0C0CE00E942C0EA22EB32EC42ED52E51
S1130530E62EF72E082F192F2B813C814D815E81E9
S1130540682D792D8F8198850E94630E70588F4F86
S11305509F4FE091B801F091B9011F01AE2EB32C69
S1130560C12CD12CE12CF12C00E010E00E94FC0CF9
S113057001E20E94450E422E532E642E752E862EC5
S1130580972E8A839983A0E00E94750E09F409C10D
S113059080E090E0A0E1B0E029893A894B895C8948
S11305A0821B930BA40BB50B5C016D01282F3B2D13
S11305B04C2D5D2D60E070E080E090E00FE10E9442
S11305C02C0EA984BA84CD84DE84EF84F8880D8946
S11305D01E890E946C0E0F2EF5E3AF2EF02D0F2E08
S11305E0FCE0BF2EF02DC12CD12CE12CF12C00E02D
S11305F010E00E94FC0CA42CB52CC62CD72CE82CA3
S1130600F92C0A8119810E94570D29833A834B835F
S11306105C836D837E838F839887A091C801B0919A
S1130620C901EB2FEE0FEE0B0DE00E94450E222EBA
S1130630332E442E552E662E772E882E992EA22EDA
S1130640B32EC42ED52EE62EF72E082F192F2A2FBF
S11306503B2F4E2F5E2F6E2F7E2F8E2F9E2F0E94AC
S1130660FC0CA22EB32EC42ED52EE62EF72E082F68
S1130670192F222D332D442D552D662D772D882DA0
S1130680992D0E94FC0C09E10E94450E522E432E26
S1130690342E252E6B877C8789879A878091C601A3
S11306A09091C701192F110F110BA82EB92EC12E2D
S11306B0D12EE12EF12E012F29813A814B815C81CB
S11306C06D817E818F8198850E94FC0C03E10E94DC
S11306D0450E622E732E842E952EB62FA72FF82F3B
S11306E0E92F29813A814B815C816D817E818F81E3
S11306F09885A52CB42CC32CD22CEB84FC840985BE
S11307001A850E94630EA22EB32EC42ED52EE62E79
S1130710F72E082F192F262D372D482D592D6B2FE5
S11307207A2F8F2F9E2F0E94630E08E00E94450EA1
S1130730822E932E642E752EB62FA72FF82FE92F15
S11307404091C4015091C501952F990F990B242F05
S1130750352F492F592F692F792F892F04E00E94B3
S11307602C0EA22EB32EC42ED52EE62EF72E082F35
S1130770192F282D392D462D572D6B2F7A2F8F2F7A
S11307809E2F0E94630E0E94140B20E030E040E88C
S11307905BE30E94FB0B08C060E070E080EC9FE725
S11307A003C060E070E0CB016E960FB6F894DEBF34
S11307B00FBECDBFDF91CF911F910F91FF90EF90AE
S11307C0DF90CF90BF90AF909F908F907F906F906D
S11307D05F904F903F902F9008950E946800982753
S11307E08927982708950E94ED0308950F931F9376
S11307F0CF93DF9388E80E94ED03C2EBD1E09983A5
S113080088838AE80E94F3039B838A838CE80E948E
S1130810F3039D838C838EE80E94ED039F838E8374
S113082080E90E94F3039987888782E90E94F30391
S11308309B878A8784E90E94F3039D878C8786E9D6
S11308400E94F3039F878E8788E90E94F303998BA4
S1130850888B8AE90E94F3039B8B8A8B8CE90E9424
S1130860F3039D8B8C8B8EE90E94F3039F8B8E8BFD
S113087081EA0E945300888F81EE0E94F3039A8FCD
S1130880898F83EE0E9453008B8F84EE0E94530065
S113089090E1899F8001112485EE0E9453008F709E
S11308A0082B1D8F0C8F86EE0E94530090E1899FC8
S11308B08001112485EE0E94530082958F70082BCD
S11308C01F8F0E8F87EE0E94530088A3DF91CF9174
S11308D01F910F91089580ED0E945300803699F482
S11308E08EEE0E946D0585EF0E949E058CE60E94A7
S11308F09E0584EF0E949E0587EB0E949E050E9440
S11309009A050E94F6030895FC01408121E030E03D
S113091002C0220F331F6A95E2F7242B2083089527
S1130920FC01908121E030E002C0220F331F6A9560
S1130930E2F72095292320830895FC01408121E0DA
S113094030E002C0220F331F6A95E2F7242B208384
S113095008951F920F920FB60F9211248F939F93B5
S11309609BB188E098279BB994E09A95F1F79BB1E5
S113097089278BB99F918F910F900FBE0F901F9075
S113098018951F920F920FB60F921124CF92DF92F7
S1130990EF92FF922F933F934F935F936F937F93C5
S11309A08F939F93AF93BF93CF93DF93EF93FF9373
S11309B08091810086FF0EC0E1E8F0E080818F7BAA
S11309C0808380918600909187009093E2018093C8
S11309D0E10140C0E1E8F0E08081806480836091BF
S11309E08600709187007093D8016093D70180913D
S11309F0E1019091E201EB01C81BD90BD093E00116
S1130A00C093DF016091DD017091DE0180E090E030
S1130A100E941A0B6B017C01BE01DD0F880B990B40
S1130A200E941C0BA70196010E94FB0B20E030E002
S1130A3040E251E40E94FB0B20E030E041E154E449
S1130A400E946C0A6093D9017093DA018093DB01F0
S1130A509093DC01FF91EF91DF91CF91BF91AF9122
S1130A609F918F917F916F915F914F913F912F91C2
S1130A70FF90EF90DF90CF900F900FBE0F901F90DC
S1130A8018958AB188608AB9E1E8F0E080818068CD
S1130A908083808183608083808188608083AFE6E7
S1130AA0B0E08C9182628C938081806480838CE539
S1130AB094E4909389008093880084E090E090937C
S1130AC0DE018093DD0108956091D9017091DA010E
S1130AD08091DB019091DC01089594EA9093BC002D
S1130AE020E431E009C02150310931F48091E3015F
S1130AF081608093E30108959091BC0099231CF0D8
S1130B002115310581F78093BB0084E88093BC00F4
S1130B1080E491E008C0019731F48091E3018260A0
S1130B208093E30108952091BC00222314F00097E0
S1130B3091F7089584E98093BC0008958093BB00E5
S1130B4084E88093BC0080E491E008C0019731F40C
S1130B508091E30184608093E30108952091BC00B7
S1130B60222314F0009791F7089584EC8093BC003D
S1130B7080E491E009C0019739F48091E301886031
S1130B808093E30180E008952091BC00222314F0B7
S1130B90009789F78091BB00089584E88093BC0096
S1130BA080E491E009C0019739F48091E301806108
S1130BB08093E30180E008952091BC00222314F087
S1130BC0009789F78091BB00089585B1806885B945
S1130BD085E08A95F1F7000085B18F7785B908958E
S1130BE0CF93C82F662321F085B1816085B903C0F6
S1130BF085B18E7F85B98AB180618AB98AB18460F2
S1130C008AB98AB180648AB98AB180688AB98BB199
S1130C108F778BB98BB18F7B8BB98BB18B7F8BB972
S1130C208BB18F7E8BB9CC231CF48BB180688BB9CC
S1130C30C6FF03C08BB180648BB9C5FF03C08BB101
S1130C4084608BB9C4FF03C08BB180618BB90E94EF
S1130C50E5058BB18F778BB98BB18F7B8BB98BB15A
S1130C608B7F8BB98BB18F7E8BB9C3FF03C08BB1E4
S1130C7080688BB9C2FF03C08BB180648BB9C1FF9C
S1130C8003C08BB184608BB9C0FF03C08BB180619A
S1130C908BB90E94E5058BB180618BB98BB18460FF
S1130CA08BB98BB180648BB98BB180688BB987EBBE
S1130CB09BE00197F1F700C00000CF91089560E038
S1130CC00E94F0050895611104C080580E945F06D7
S1130CD0089580540E945F06089581E00E945F0693
S1130CE0089561E00E94F0050895CF93DF93FC011D
S1130CF003C00E947106FE01EF01219680818111DB
S1130D00F8CFDF91CF910895CF93C82F84B181603C
S1130D1084B98AB180628AB984B1806884B98AB19D
S1130D2080618AB98AB184608AB98AB180648AB9D7
S1130D308AB180688AB98FEF99EF0197F1F700C003
S1130D4000008BB184608BB98BB180618BB90E9438
S1130D50E5058FE19EE40197F1F700C000000E94D1
S1130D60E5058FEF90E00197F1F700C000000E94C5
S1130D70E5058FEF90E00197F1F700C000008BB11B
S1130D808F7E8BB90E94E5058FEF90E00197F1F714
S1130D9000C0000088E20E945F0688E00E945F06AF
S1130DA00E946D0686E00E945F068C2F0E945F06FB
S1130DB0CF910895CF93DF938091B1018B30A0F14F
S1130DC0C1E8D0E08881887F88830E946B04888191
S1130DD0887F88838CE00E9484061092B10120E011
S1130DE030E044EC52E460E070E0CB010E94F60B8A
S1130DF018164CF466E080E00E9463068CE091E0F3
S1130E000E94750608C066E080E00E94630683E7DE
S1130E1091E00E94750660E070E0CB010E94680CCE
S1130E200E94E50ACB0107C08F5F8093B1018091D6
S1130E300A0190910B01DF91CF9108952091060151
S1130E403091070181E090E0232B11F080E090E0E5
S1130E509093070180930601019731F461E08BE2DE
S1130E6090E00E949D04089561E08BE290E00E946E
S1130E7090040895E1E8F0E09081987F90830E94C7
S1130E80BF098CE00E94840608950F931F93CF93AB
S1130E90DF93C82F8B01CB0181559109879770F49B
S1130EA0DFEFDC0FD23308F0D4E060E080E00E9492
S1130EB0630682E191E00E94750601C0DC2FC8013F
S1130EC0895C91098336910570F4D43018F4D1E02B
S1130ED0DC0F01C0D0E060E080E00E94630682E1A4
S1130EE091E00E947506C801875891408797D8F40D
S1130EF0C130A9F42C2F30E0F901EE0FFF1FEE5F93
S1130F00FE4F80819181009751F00597220F331F86
S1130F10F901EE5FFE4F918380830E943A07C2304D
S1130F2011F40E941E0700351105E4F42C2F30E063
S1130F30F901EE0FFF1FEE5FFE4F80819181843631
S1130F40910561F0C13051F40596220F331FF90168
S1130F50EE5FFE4F918380830E943A07C23011F402
S1130F600E941E078D2FDF91CF911F910F9108953D
S1130F70CF92DF92EF92FF921F93CF93DF939091E2
S1130F80B1019B3050F1182F1092B101C1E8D0E0AB
S1130F908881887F88830E9441050E9464056B01D3
S1130FA07C018881887F88838CE00E948406612F7D
S1130FB070E080E090E00E941C0BA70196010E9463
S1130FC0FF0920E030E040E251E40E946C0A0E94F4
S1130FD0680C0E94DE0A862F05C09F5F9093B101C2
S1130FE080910201DF91CF911F91FF90EF90DF90EC
S1130FF0CF900895CF92DF92EF92FF920F931F93B9
S1131000CF93DF938091B1018531B0F180910001DC
S11310100E94B80702E011E0082E000C990BF801B9
S113102091838083C1E8D0E08881887F88830E948F
S11310306B040E9469016B017C018881887F88832D
S11310408CE00E9484061092B101F80160817181E4
S113105080E090E00E941A0BA70196010E94FF090C
S11310602DEC3CEC4CE151E40E94FB0B0E94680C1B
S11310700E94E50ACB0107C08F5F8093B101809184
S1131080080190910901DF91CF911F910F91FF9079
S1131090EF90DF90CF900895EF92FF920F931F93FC
S11310A0CF93DF9300D0CDB7DEB7082F80E290E076
S11310B09A83898361E080E00E946306023009F428
S11310C080C028F4002351F00130B1F1F8C003309E
S11310D009F49CC0043009F4C2C0F1C0809100013D
S11310E00E94B807082E000C990B9093030180937B
S11310F00201E02FF0E0EE0FFF1FEE5FFE4F4AE02B
S1131100BE016F5F7F4F808191810E94900ECE015E
S113111001960E94750660E080E00E9463068AE7FB
S113112091E00E94750661E085E00E94630681E813
S113113091E00E947506C3C010E0C801880F991F92
S11311409C012E5F3E4F79014AE0BE016F5F7F4FE5
S1131150F901808191810E94900ECE0101960E9436
S11311607506F701808191818F35910541F461E025
S113117082E00E94630688E791E00E947506000FF2
S1131180111FF801EE5FFE4F80819181059741F4B4
S113119061E081E00E94630688E791E00E947506A1
S11311A060E080E00E94630684E891E00E94750696
S11311B061E085E00E9463068BE891E00E94750679
S11311C07EC010E0000F111F0E5F1E4F4AE0BE01EB
S11311D06F5F7F4FF801808191810E94900EF8012A
S11311E080819181019729F48DE891E00E94750630
S11311F004C081E991E00E94750660E080E00E94ED
S1131200630685E991E00E94750659C00E94FA07B9
S11312109093090180930801E02FF0E0EE0FFF1F87
S1131220EE5FFE4F4AE0BE016F5F7F4F8081918188
S11312300E94900ECE0101960E94750660E080E047
S11312400E9463068BE991E00E94750661E085E0E7
S11312500E94630685EA91E00E94750630C00E94F0
S1131260DA0690930B0180930A01E02FF0E0EE0F71
S1131270FF1FEE5FFE4F4AE0BE016F5F7F4F80812C
S113128091810E94900ECE0101960E94750661E044
S113129082E00E94630688E791E00E94750660E0A0
S11312A080E00E94630688EA91E00E94750661E08E
S11312B085E00E9463068BE891E00E9475060F901A
S11312C00F90DF91CF911F910F91FF90EF900895B0
S11312D00E9441058CE00E94840661E08AE290E06D
S11312E00E948404ECE7F0E0808180648083808144
S11312F08F7780838081807F8083EAE7F0E080813C
S1131300806880837894EAE7F0E080818064808359
S11313106091780070917900809101010E944507E5
S1131320809301012FEF83EC99E02150804090409D
S1131330E1F700C00000809101010E944C088091F7
S1131340B0018730C8F0809100010E94B807C2E064
S1131350D1E0082E000C990B998388830E94FA0728
S11313609F838E830E94DA06998788878091B001D3
S11313708F5F8093B001C7CF1092B001C4CFCF93D9
S1131380C82F88E00E9484068AB180628AB98FEFF0
S113139087BD6C2F70E080E090E00E941C0B2AEC6B
S11313A03EEF49EF5CE30E94FB0B2CEF3BE742E18D
S11313B051E40E94000A20E030E040E853E40E9437
S11313C0FB0B20E030E048EC52E40E946C0A9B01E5
S11313D0AC0160E070E08FE793E40E94FF090E9493
S11313E0680C0E94E50A68BD84B5836384BD85B535
S11313F0896085BD85B58C6085BDCF9108955058B1
S1131400BB27AA270E94170A0C94BC0B0E94AE0BA0
S113141038F00E94B50B20F039F49F3F19F426F4FC
S11314200C949B0B0EF4E095E7FB0C94950BE92FC1
S11314300E94CD0B58F3BA17620773078407950708
S113144020F079F4A6F50C94EF0B0EF4E0950B2E36
S1131450BA2FA02D0B01B90190010C01CA01A00102
S11314601124FF27591B99F0593F50F4503E68F15D
S11314701A16F040A22F232F342F4427585FF3CF9E
S1131480469537952795A795F0405395C9F77EF46F
S11314901F16BA0B620B730B840BBAF09150A1F0B8
S11314A0FF0FBB1F661F771F881FC2F70EC0BA0F3E
S11314B0621F731F841F48F4879577956795B795C6
S11314C0F7959E3F08F0B0CF9395880F08F09927C1
S11314D0EE0F9795879508950E94800A0C94BC0B93
S11314E00E94B50B58F00E94AE0B40F029F45F3F08
S11314F029F00C94950B51110C94F00B0C949B0B4C
S11315000E94CD0B68F39923B1F3552391F3951BF6
S1131510550BBB27AA2762177307840738F09F5F10
S11315205F4F220F331F441FAA1FA9F335D00E2E7D
S11315303AF0E0E832D091505040E695001CCAF7EA
S11315402BD0FE2F29D0660F771F881FBB1F2617AD
S113155037074807AB07B0E809F0BB0B802DBF0184
S1131560FF2793585F4F3AF09E3F510578F00C9453
S1131570950B0C94F00B5F3FE4F3983ED4F38695FF
S113158077956795B795F7959F5FC9F7880F911D74
S11315909695879597F90895E1E0660F771F881F60
S11315A0BB1F621773078407BA0720F0621B730B13
S11315B0840BBA0BEE1F88F7E09508950E94E50AA4
S11315C06894B1110C94F00B08950E94D50B88F027
S11315D09F5798F0B92F9927B751B0F0E1F0660FF3
S11315E0771F881F991F1AF0BA95C9F714C0B13034
S11315F091F00E94EF0BB1E008950C94EF0B672F6C
S1131600782F8827B85F39F0B93FCCF38695779562
S11316106795B395D9F73EF490958095709561954B
S11316207F4F8F4F9F4F089597FB16F40E949E0B98
S11316300C94580BE89409C097FB3EF49095809560
S1131640709561957F4F8F4F9F4F9923A9F0F92F84
S113165096E9BB279395F695879577956795B79502
S1131660F111F8CFFAF4BB0F11F460FF1BC06F5FE8
S11316707F4F8F4F9F4F16C0882311F096E911C0FA
S1131680772321F09EE8872F762F05C0662371F01B
S113169096E8862F70E060E02AF09A95660F771F2F
S11316A0881FDAF7880F9695879597F90895E89437
S11316B0F92F96EBFF2381F0121613061406440B40
S11316C09395F69587957795679557954040FF23B1
S11316D0B9F71BC099270895882351F49850D2F77D
S11316E0872B762F652F542F432F322F20E0B1F311
S11316F0121613061406440B88233AF09A95440FE5
S1131700551F661F771F881FCAF755234AF4440FD5
S1131710551F11F460FF04C06F5F7F4F8F4F9F4FC1
S1131720880F9695879597F9089597F99F6780E8AC
S113173070E060E008959FEF80EC089590958095A7
S11317407095609550954095309521953F4F4F4F3A
S11317505F4F6F4F7F4F8F4F9F4F089500240A9420
S11317601616170618060906089500240A94121678
S11317701306140605060895092E0394000C11F4AB
S1131780882352F0BB0F40F4BF2B11F460FF04C058
S11317906F5F7F4F8F4F9F4F089557FD9058440FB1
S11317A0551F59F05F3F71F04795880F97FB991FBC
S11317B061F09F3F79F08795089512161306140679
S11317C0551FF2CF4695F1DF08C016161706180606
S11317D0991FF1CF86957105610508940895E894E1
S11317E0BB2766277727CB0197F908950E948C0CB5
S11317F008F48FEF08950E940E0C0C94BC0B0E9409
S1131800AE0B38F00E94B50B20F0952311F00C9428
S1131810950B0C949B0B11240C94F00B0E94CD0B94
S113182070F3959FC1F3950F50E0551F629FF0012F
S1131830729FBB27F00DB11D639FAA27F00DB11D48
S1131840AA1F649F6627B00DA11D661F829F2227D1
S1131850B00DA11D621F739FB00DA11D621F839F58
S1131860A00D611D221F749F3327A00D611D231F2E
S1131870849F600D211D822F762F6A2F11249F577C
S113188050409AF0F1F088234AF0EE0FFF1FBB1F7F
S1131890661F771F881F91505040A9F79E3F51053E
S11318A080F00C94950B0C94F00B5F3FE4F3983E9E
S11318B0D4F3869577956795B795F795E7959F5FE8
S11318C0C1F7FE2B880F911D9695879597F908957A
S11318D00E94D50BE8F09E37E8F09639B8F49E38AC
S11318E048F4672F782F8827985FF9CF86957795E6
S11318F0679593959539D0F3B62FB1706B0F711D21
S1131900811D20F487957795679593950C94B00C79
S11319100C94CB0C0C94F00B990F0008550FAA0BE8
S1131920E0E8FEEF16161706E807F907C0F01216EE
S11319301306E407F50798F0621B730B840B950BF1
S113194039F40A2661F0232B242B252B21F4089546
S11319500A2609F4A140A6958FEF811D811D0895E3
S1131960882371F4772321F09850872B762F07C0B2
S1131970662311F499270DC09051862B70E060E026
S11319802AF09A95660F771F881FDAF7880F9695C5
S1131990879597F908959F3F31F0915020F48795EA
S11319A077956795B795880F911D9695879597F9C3
S11319B00895DB018F939F930E94E90CBF91AF912F
S11319C0A29F800D911DA39F900DB29F900D112495
S11319D008950E94810EA59F900DB49F900DA49F21
S11319E0800D911D11240895B7FF0C94E90C0E94F9
S11319F0E90C821B930B0895DF93CF931F930F93EE
S1131A009A9DF02D219FF00D8B9DF00D8A9DE02D68
S1131A10F10D039FF00D029FE00DF11D4E9DE00DB1
S1131A20F11D5E9DF00D4F9DF00D7F936F93BF925E
S1131A30AF925F934F93D5010E94810E8B01AC014D
S1131A40D7010E94810EEB01E80FF91FD6010E9415
S1131A504C0D2F913F91D6010E94810EC60FD71FC6
S1131A60E81FF91FAF91BF910E944C0D2F913F9138
S1131A700E94810EC60FD71FE81FF91FD6010E94CE
S1131A80810EE60FF71F9801BE01CF0111240F91BB
S1131A901F91CF91DF9108950E94810E460F571F29
S1131AA0C81FD91F08F431960895689401C0E894BA
S1131AB0F92FF12B12F00C94890DA0E0B0E0E3E6CD
S1131AC0FDE00C94FB0D092E059422F40E94E50D13
S1131AD0112392F4F0E80F26FFEFE094F0940095C0
S1131AE01095B094C094D094A194BF0ACF0ADF0A91
S1131AF0EF0AFF0A0F0B1F0B0E94940D07FC0E94B4
S1131B00E50DCDB7DEB7ECE00C94170E689401C078
S1131B10E8948F929F92CF93DF930E94940DDF916C
S1131B20CF919F908F90089588249924F401E40123
S1131B30B0E49F93AA279A158B049C04ED05FE0537
S1131B40CF05D007A10798F4AD2FDC2FCF2FFE2FA0
S1131B50E92D982C892E982F872F762F652F542FB7
S1131B60432F322F2227B85031F7BF9127C01B2EA5
S1131B70BF91BB27220F331F441F551F661F771FBA
S1131B80881F991F881C991CEE1FFF1FCC1FDD1F87
S1131B90AA1FBB1F8A149B04EC05FD05CE05DF05B7
S1131BA0A007B10748F08A189B08EC09FD09CE0983
S1131BB0DF09A00BB10B21601A94E1F62EF4940115
S1131BC0AF01BE01CD01000C08956095709580951C
S1131BD0909530954095509521953F4F4F4F5F4FCD
S1131BE06F4F7F4F8F4F9F4F08952F923F924F9289
S1131BF05F926F927F928F929F92AF92BF92CF9299
S1131C00DF92EF92FF920F931F93CF93DF93CDB7A1
S1131C10DEB7CA1BDB0B0FB6F894DEBF0FBECDBF19
S1131C2009942A88398848885F846E847D848C84EA
S1131C309B84AA84B984C884DF80EE80FD800C81F3
S1131C401B81AA81B981CE0FD11D0FB6F894DEBFD6
S1131C500FBECDBFED0108950F93083090F0982F7B
S1131C60872F762F652F542F432F322F222708508A
S1131C70F4CF220F331F441F551F661F771F881F81
S1131C80991F0A95B2F70F91089597FB10F81694CF
S1131C9000080F93083098F00850232F342F452F55
S1131CA0562F672F782F892F902DF4CF0594979571
S1131CB087957795679557954795379527950A950D
S1131CC0AAF70F9108952A0D3B1D4C1D5D1D6E1D35
S1131CD07F1D801F911F08952A193B094C095D0936
S1131CE06E097F09800B910B08950024A7FD0094D1
S1131CF02A173005400550056005700580059005DC
S1131D000895A29FB001B39FC001A39F700D811DD0
S1131D101124911DB29F700D811D1124911D0895F0
S1131D20BB274A3031F4992322F4BDE29095819582
S1131D309F4F0C949C0EBB27FB015527AA27880FA5
S1131D40991FAA1FA41710F0A41B83955051B9F72B
S1131D50A05DAA3308F0A95DA193009779F7B111AA
S1131D60B1931192CB010C94B50EDC01FC01672FE9
S1131D7071917723E1F7329704C07C916D9370835E
S1111D806291AE17BF07C8F30895F894FFCF21
S1131D8E64013C0000000000000046005241494E30
S1131D9E2100202020202020202020202020202050
S1131DAE2020202020202020202020202020202021
S1131DBE2020202020202020202020202020202011
S1131DCE2020202020202020202020202020202001
S1131DDE20202020202020202020202020202020F1
S1131DEE20202020202020202020202020202020E1
S1131DFE2020202020202020200044657074683A82
S1131E0E00636D0056616C76653A0025004F6E20B6
S1131E1E004F66660050756D703A005072657373AC
S1131E2E7572653A0050610048756D69643A000038
S9030000FC
