S0160000576174657254616E6B547269616C2E7372656381
S11300000C9434000C9451000C9451000C94510045
S11300100C9451000C9451000C9451000C94510018
S11300200C9451000C9451000C94C1040C94A90438
S11300300C9451000C9451000C9451000C945100F8
S11300400C9451000C9451000C9451000C945100E8
S11300500C9451000C9451000C9451000C945100D8
S11300600C9451000C94510011241FBECFEFD8E022
S1130070DEBFCDBF11E0A0E0B1E0E6EBFBE102C0E2
S113008005900D92A03AB107D9F721E0A0EAB1E0BA
S113009001C01D92A33DB207E1F70E949A080C9497
S11300A0D90D0C940000CF93C82F8EEE0E946505E5
S11300B08C2F0E9496050E9492058FEE0E94650582
S11300C00E94C505C82F0E9492058C2FCF910895D8
S11300D0CF93DF93C82F8EEE0E9465058C2F0E946C
S11300E096050E9492058FEE0E9465050E94AD055B
S11300F0C82FD0E0DC2FCC270E94C505C82B0E9456
S11301009205CE01DF91CF910895CF92DF92EF92C5
S1130110FF92F82E8EEE0E9465058F2D0E949605A3
S11301200E9492058FEE0E9465050E94AD05C82EBF
S1130130D12CE12CF12CFE2CED2CDC2CCC240E94B7
S1130140AD05C82AFE2CED2CDC2CCC240E94C50560
S1130150C82A0E949205C701B601FF90EF90DF9074
S1130160CF9008954F925F926F927F928F929F9259
S1130170AF92BF92CF92DF92EF92FF928AEF0E94EA
S113018085006B017C01C114D10480E8E806F10408
S113019009F48EC0B701A601689416F876956795A0
S11301A0579547951694D1F7E1EAF1E08081918162
S11301B0A0E0B0E0880F991FAA1FBB1F9A01AB01F2
S11301C0281B390B4A0B5B0BA281B3810E94F40BF1
S11301D04B015C01072E7BE0B694A7949794879417
S11301E07A95D1F7702DCD2CDE2CEF2CFF24808155
S11301F09181A7019601281B390B4109510980817E
S1130200918126013701481A590A61087108C3010E
S1130210B2010E94C50B9B01AC01012E1CE0569556
S11302204795379527951A95D1F7102DA481B58157
S11302300E94F40BDC01CB01072E7EE0B695A79556
S1130240979587957A95D1F7702D880D991DAA1DDC
S1130250BB1D8093C2019093C301A093C401B093CA
S1130260C5018091C2019091C301A091C401B091D4
S1130270C501AC01BD01440F551F661F771F440F14
S1130280551F661F771F840F951FA61FB71F805821
S11302909F4FAF4FBF4F692F7A2F8B2F99270E9403
S11302A02F0A20E030E048EC52E40E94880904C0A0
S11302B060E070E080EC9FE7FF90EF90DF90CF90DC
S11302C0BF90AF909F908F907F906F905F904F9072
S11302D008952F923F924F925F926F927F928F92E6
S11302E09F92AF92BF92CF92DF92EF92FF920F93C1
S11302F01F93CF93DF93CDB7DEB76E970FB6F89405
S1130300DEBF0FBECDBF0E94B20087EF0E94850002
S11303106115710500E88007910509F43DC29B0150
S1130320AC01689413F8559547953795279516941D
S1130330D1F7298B3A8B4B8B5C8B8091C2019091C6
S1130340C301A091C401B091C5018C019D0140E09D
S113035050E0BA018F8B188F298F3A8F4B8F5C8FA7
S11303606D8F7E8F282F312F498D5A8D60E070E07C
S113037080E090E0345F41405109610971098109CD
S1130380910929833A83442E552E662E772E282EE2
S1130390392EA22EB32EC42ED52EE62EF72E082FDC
S11303A0192F0E94FC0B2B833C834D835E836F8348
S11303B078878B879C878091B1019091B201192F26
S11303C0110F110BA82EB92EC12ED12EE12EF12E14
S11303D0012F8B859C850E94FC0B29873A874D87CA
S11303E05E87862E972E8F87988B8091AF01909190
S11303F0B001192F110F110BA82EB92EC12ED12E19
S1130400E12EF12E012F29813A81442D552D662D9F
S1130410772D822D932D0E94FC0B01E10E942C0D5F
S1130420A22EB32EC42ED52EE62EF72E082F192F6A
S113043029853A854D855E85682D792D8F85988926
S11304400E94630D822E932E49875A87B62FA72FB9
S1130450F82FE92F8091AD019091AE01192F110F62
S1130460110B282F392F412F512F612F712F812FDD
S1130470912F03E20E942C0DA22EB32EC42ED52E52
S1130480E62EF72E082F192F282D392D49855A8548
S11304906B2F7A2F8F2F9E2F0E94630D29873A8707
S11304A04D875E876F87788B8D8B9E8B8091AB0198
S11304B09091AC01192F110F110BA82EB92EC12E3A
S11304C0D12EE12EF12E012F2B813C814D815E81B5
S11304D06F8178858B859C850E94FC0B08E00E94C7
S11304E0450D2B833C834D835E83862E972E8F830D
S11304F098878091A9019091AA01192F110F110BCE
S1130500A82EB92EC12ED12EE12EF12E012F298134
S11305103A81442D552D662D772D822D932D0E94E1
S1130520FC0B0CE00E942C0DA22EB32EC42ED52E53
S1130530E62EF72E082F192F2B813C814D815E81E9
S1130540682D792D8F8198850E94630D70588F4F87
S11305509F4FE091A701F091A8011F01AE2EB32C8B
S1130560C12CD12CE12CF12C00E010E00E94FC0BFA
S113057001E20E94450D422E532E642E752E862EC6
S1130580972E8A839983A0E00E94750D09F409C10E
S113059080E090E0A0E1B0E029893A894B895C8948
S11305A0821B930BA40BB50B5C016D01282F3B2D13
S11305B04C2D5D2D60E070E080E090E00FE10E9442
S11305C02C0DA984BA84CD84DE84EF84F8880D8947
S11305D01E890E946C0D0F2EF5E3AF2EF02D0F2E09
S11305E0FCE0BF2EF02DC12CD12CE12CF12C00E02D
S11305F010E00E94FC0BA42CB52CC62CD72CE82CA4
S1130600F92C0A8119810E94570C29833A834B8360
S11306105C836D837E838F839887A091B701B091AB
S1130620B801EB2FEE0FEE0B0DE00E94450D222ECC
S1130630332E442E552E662E772E882E992EA22EDA
S1130640B32EC42ED52EE62EF72E082F192F2A2FBF
S11306503B2F4E2F5E2F6E2F7E2F8E2F9E2F0E94AC
S1130660FC0BA22EB32EC42ED52EE62EF72E082F69
S1130670192F222D332D442D552D662D772D882DA0
S1130680992D0E94FC0B09E10E94450D522E432E28
S1130690342E252E6B877C8789879A878091B501B4
S11306A09091B601192F110F110BA82EB92EC12E3E
S11306B0D12EE12EF12E012F29813A814B815C81CB
S11306C06D817E818F8198850E94FC0B03E10E94DD
S11306D0450D622E732E842E952EB62FA72FF82F3C
S11306E0E92F29813A814B815C816D817E818F81E3
S11306F09885A52CB42CC32CD22CEB84FC840985BE
S11307001A850E94630DA22EB32EC42ED52EE62E7A
S1130710F72E082F192F262D372D482D592D6B2FE5
S11307207A2F8F2F9E2F0E94630D08E00E94450DA3
S1130730822E932E642E752EB62FA72FF82FE92F15
S11307404091B3015091B401952F990F990B242F27
S1130750352F492F592F692F792F892F04E00E94B3
S11307602C0DA22EB32EC42ED52EE62EF72E082F36
S1130770192F282D392D462D572D6B2F7A2F8F2F7A
S11307809E2F0E94630D0E94290A20E030E040E879
S11307905BE30E940B0B08C060E070E080EC9FE715
S11307A003C060E070E0CB016E960FB6F894DEBF34
S11307B00FBECDBFDF91CF911F910F91FF90EF90AE
S11307C0DF90CF90BF90AF909F908F907F906F906D
S11307D05F904F903F902F9008950E946800982753
S11307E08927982708950E94ED0308950F931F9376
S11307F0CF93DF9388E80E94ED03C1EAD1E09983A7
S113080088838AE80E94F3039B838A838CE80E948E
S1130810F3039D838C838EE80E94ED039F838E8374
S113082080E90E94F3039987888782E90E94F30391
S11308309B878A8784E90E94F3039D878C8786E9D6
S11308400E94F3039F878E8788E90E94F303998BA4
S1130850888B8AE90E94F3039B8B8A8B8CE90E9424
S1130860F3039D8B8C8B8EE90E94F3039F8B8E8BFD
S113087081EA0E945300888F81EE0E94F3039A8FCD
S1130880898F83EE0E9453008B8F84EE0E94530065
S113089090E1899F8001112485EE0E9453008F709E
S11308A0082B1D8F0C8F86EE0E94530090E1899FC8
S11308B08001112485EE0E94530082958F70082BCD
S11308C01F8F0E8F87EE0E94530088A3DF91CF9174
S11308D01F910F91089580ED0E945300803699F482
S11308E08EEE0E94650585EF0E9496058CE60E94B7
S11308F0960584EF0E94960587EB0E9496050E9458
S113090092050E94F6030895FC01408121E030E045
S113091002C0220F331F6A95E2F7242B2083089527
S1130920FC01908121E030E002C0220F331F6A9560
S1130930E2F72095292320830895FC01408121E0DA
S113094030E002C0220F331F6A95E2F7242B208384
S113095008951F920F920FB60F9211248F939F93B5
S113096095B188E0982795B994E09A95F1F795B1F7
S1130970892785B99F918F910F900FBE0F901F907B
S113098018951F920F920FB60F921124CF92DF92F7
S1130990EF92FF922F933F934F935F936F937F93C5
S11309A08F939F93AF93BF93CF93DF93EF93FF9373
S11309B08091810086FF0EC0E1E8F0E080818F7BAA
S11309C0808380918600909187009093D1018093D9
S11309D0D00140C0E1E8F0E08081806480836091D0
S11309E08600709187007093C7016093C60180915F
S11309F0D0019091D101EB01C81BD90BD093CF0149
S1130A00C093CE016091CC017091CD0180E090E063
S1130A100E942F0A6B017C01BE01DD0F880B990B2C
S1130A200E94310AA70196010E940B0B20E030E0DE
S1130A3040E251E40E940B0B20E030E041E154E439
S1130A400E9488096093C8017093C9018093CA0108
S1130A509093CB01FF91EF91DF91CF91BF91AF9133
S1130A609F918F917F916F915F914F913F912F91C2
S1130A70FF90EF90DF90CF900F900FBE0F901F90DC
S1130A80189584B1886084B9E1E8F0E080818068D9
S1130A908083808183608083808188608083AFE6E7
S1130AA0B0E08C9182628C938081806480838CE539
S1130AB094E4909389008093880084E090E090937C
S1130AC0CD018093CC017894089594EA9093BC006E
S1130AD020E431E009C02150310931F48091D20180
S1130AE081608093D20108959091BC0099231CF0F9
S1130AF02115310581F78093BB0084E88093BC0005
S1130B0080E491E008C0019731F48091D2018260C1
S1130B108093D20108952091BC00222314F0009701
S1130B2091F7089584E98093BC0008958093BB00F5
S1130B3084E88093BC0080E491E008C0019731F41C
S1130B408091D20184608093D20108952091BC00E9
S1130B50222314F0009791F7089584EC8093BC004D
S1130B6080E491E009C0019739F48091D201886052
S1130B708093D20180E008952091BC00222314F0D8
S1130B80009789F78091BB00089584E88093BC00A6
S1130B9080E491E009C0019739F48091D201806129
S1130BA08093D20180E008952091BC00222314F0A8
S1130BB0009789F78091BB00089585B1806885B955
S1130BC085E08A95F1F7000085B18F7785B908959E
S1130BD0CF93C82F662321F085B1816085B903C006
S1130BE085B18E7F85B98AB180618AB98AB1806204
S1130BF08AB98AB180648AB98AB180688AB98BB1AA
S1130C008F778BB98BB18F7B8BB98BB18F7D8BB980
S1130C108BB18F7E8BB9CC231CF48BB180688BB9DC
S1130C20C6FF03C08BB180648BB9C5FF03C08BB111
S1130C3080628BB9C4FF03C08BB180618BB90E9401
S1130C40DD058BB18F778BB98BB18F7B8BB98BB172
S1130C508F7D8BB98BB18F7E8BB9C3FF03C08BB1F2
S1130C6080688BB9C2FF03C08BB180648BB9C1FFAC
S1130C7003C08BB180628BB9C0FF03C08BB18061AC
S1130C808BB90E94DD058BB180618BB98BB1806219
S1130C908BB98BB180648BB98BB180688BB987EBCE
S1130CA09BE00197F1F700C00000CF91089560E048
S1130CB00E94E8050895611104C080580E945706F7
S1130CC0089580540E945706089581E00E945706B3
S1130CD0089561E00E94E8050895CF93DF93FC0135
S1130CE003C00E946906FE01EF01219680818111F3
S1130CF0F8CFDF91CF910895CF93C82F84B181604D
S1130D0084B98AB180628AB984B1806884B98AB1AD
S1130D1080618AB98AB180628AB98AB180648AB9E9
S1130D208AB180688AB98FEF99EF0197F1F700C013
S1130D3000008BB180628BB98BB180618BB90E944A
S1130D40DD058FE19EE40197F1F700C000000E94E9
S1130D50DD058FEF90E00197F1F700C000000E94DD
S1130D60DD058FEF90E00197F1F700C000008BB133
S1130D708F7E8BB90E94DD058FEF90E00197F1F72C
S1130D8000C0000088E20E94570688E00E945706CF
S1130D900E94650686E00E9457068C2F0E94570623
S1130DA0CF910895209105013091060181E090E0F2
S1130DB0232B11F080E090E09093060180930501CD
S1130DC0019731F461E08BE290E00E949D04089564
S1130DD061E08BE290E00E9490040895CF93C82FC5
S1130DE085B162E090E00E94DB088C2F0E94FF082E
S1130DF0CF9108950F931F93CF93DF93C82F8B0147
S1130E00CB0181559109879770F4DFEFDC0FD23362
S1130E1008F0D3E060E080E00E945B068AE091E0A5
S1130E200E946D0601C0DC2FC801895C91098336DC
S1130E30910570F4D33018F4D1E0DC0F01C0D0E098
S1130E4060E080E00E945B068AE091E00E946D060B
S1130E50C801875891408797D8F4C130A9F48C2FE2
S1130E6090E0FC01EE0FFF1FEF5FFE4F2081318108
S1130E702115310549F025503109880F991FFC01CE
S1130E80EF5FFE4F31832083C23011F40E94D206FB
S1130E9000351105DCF48C2F90E0FC01EE0FFF1FF0
S1130EA0EF5FFE4F208131812436310559F0C13086
S1130EB049F42B5F3F4F880F991FFC01EF5FFE4FF2
S1130EC031832083C23011F40E94D2068D2FDF912A
S1130ED0CF911F910F9108958091A001853130F039
S1130EE01092A0018CE00E947C0603C08F5F809367
S1130EF0A001809101010895CF92DF92EF92FF92B9
S1130F000F931F93CF93DF938091A0018531E0F17C
S1130F10809109010E946C0701E011E0082E000C89
S1130F20990BF80191838083C1E8D0E08881887FA0
S1130F3088830E946B040E9469016B017C01888193
S1130F40887F88838CE00E947C061092A001F801BF
S1130F506081718180E090E00E942F0AA7019601D0
S1130F600E941B0920E030E249E156E40E940B0B89
S1130F7020E030E44CE156E40E9488090E94780B9A
S1130F800E94FA09862F05C08F5F8093A00180918B
S1130F900701DF91CF911F910F91FF90EF90DF90A8
S1130FA0CF9008950F931F93CF93DF9300D0CDB7C5
S1130FB0DEB7082F80E290E09A83898361E080E0C5
S1130FC00E945B060130B1F138F0023009F45DC0D3
S1130FD0033009F47FC0A7C0809109010E946C0707
S1130FE0082E000C990B9093020180930101E02FCD
S1130FF0F0E0EE0FFF1FEF5FFE4F4AE0BE016F5FB0
S11310007F4F808191810E94A40DCE0101960E94A0
S11310106D0660E080E00E945B0682E791E00E943A
S11310206D0661E085E00E945B0689E791E00E941D
S11310306D0679C0E02FF0E0EE0FFF1FEF5FFE4F6B
S11310404AE0BE016F5F7F4F808191810E94A40DB1
S1131050CE0101960E946D0661E082E00E945B066B
S113106080E791E00E946D0660E080E00E945B06EC
S11310708CE791E00E946D0661E085E00E945B06CA
S113108083E891E00E946D064EC010E0000F111F2E
S11310900F5F1E4F4AE0BE016F5F7F4FF8018081F2
S11310A091810E94A40DF80180819181019729F416
S11310B085E891E00E946D0604C089E891E00E94F1
S11310C06D0660E080E00E945B068DE891E00E947E
S11310D06D0629C00E947C0790E0909308018093DC
S11310E00701E02FF0E0EE0FFF1FEF5FFE4F4AE035
S11310F0BE016F5F7F4F808191810E94A40DCE015C
S113110001960E946D0660E080E00E945B0683E920
S113111091E00E946D0661E085E00E945B068DE926
S113112091E00E946D060F900F90DF91CF911F9177
S11311300F9108950E9441058CE00E947C0661E0B5
S11311408AE290E00E948404ECE7F0E0808180640D
S1131150808380818F7780838081807F8083EAE7AA
S1131160F0E08081806880838081886080838081D2
S113117087608083EAE7F0E0808180648083609107
S1131180780070917900809100010E94FA068093A2
S113119000012FEF83EC99E0215080409040E1F76B
S11311A000C00000809100010E94D20780910301D9
S11311B00E94EE06DFCFFC01408121E030E002C056
S11311C0220F331F6A95E2F7242B208310928500A7
S11311D0109284008FE39CE99093870080938600AB
S11311E0E0E8F0E080E88083808182608083E1E849
S11311F0F0E088E18083808182608083089520ED1F
S113120037E0482F429FC001439F900D11246AE5A7
S113121070E00E94D50B072E000C880B990B0E94DE
S1131220310A0E94780B0E94FA0970E070938B00D7
S113123060938A0008955058BB27AA270E94330957
S11312400C94D10A0E94C30A38F00E94CA0A20F002
S113125039F49F3F19F426F40C94B00A0EF4E09587
S1131260E7FB0C94AA0AE92F0E94E20A58F3BA1782
S1131270620773078407950720F079F4A6F50C94A8
S1131280040B0EF4E0950B2EBA2FA02D0B01B9011F
S113129090010C01CA01A0011124FF27591B99F0E8
S11312A0593F50F4503E68F11A16F040A22F232FF4
S11312B0342F4427585FF3CF469537952795A79544
S11312C0F0405395C9F77EF41F16BA0B620B730BEB
S11312D0840BBAF09150A1F0FF0FBB1F661F771F5C
S11312E0881FC2F70EC0BA0F621F731F841F48F411
S11312F0879577956795B795F7959E3F08F0B0CF9A
S11313009395880F08F09927EE0F97958795089580
S11313100E949C090C94D10A0E94CA0A58F00E94A7
S1131320C30A40F029F45F3F29F00C94AA0A511132
S11313300C94050B0C94B00A0E94E20A68F39923FA
S1131340B1F3552391F3951B550BBB27AA276217BD
S11313507307840738F09F5F5F4F220F331F441FCA
S1131360AA1FA9F335D00E2E3AF0E0E832D09150FE
S11313705040E695001CCAF72BD0FE2F29D0660FEB
S1131380771F881FBB1F261737074807AB07B0E82E
S113139009F0BB0B802DBF01FF2793585F4F3AF034
S11313A09E3F510578F00C94AA0A0C94050B5F3FFC
S11313B0E4F3983ED4F3869577956795B795F795BA
S11313C09F5FC9F7880F911D9695879597F90895A2
S11313D0E1E0660F771F881FBB1F6217730784073E
S11313E0BA0720F0621B730B840BBA0BEE1F88F74D
S11313F0E09508950E94EA0A88F09F5798F0B92F63
S11314009927B751B0F0E1F0660F771F881F991F35
S11314101AF0BA95C9F714C0B13091F00E94040BC8
S1131420B1E008950C94040B672F782F8827B85FD8
S113143039F0B93FCCF3869577956795B395D9F78D
S11314403EF490958095709561957F4F8F4F9F4F97
S1131450089597FB16F40E94B30A0C946D0AE8945D
S113146009C097FB3EF490958095709561957F4FE8
S11314708F4F9F4F9923A9F0F92F96E9BB27939596
S1131480F695879577956795B795F111F8CFFAF4A6
S1131490BB0F11F460FF1BC06F5F7F4F8F4F9F4FD7
S11314A016C0882311F096E911C0772321F09EE835
S11314B0872F762F05C0662371F096E8862F70E09B
S11314C060E02AF09A95660F771F881FDAF7880F75
S11314D09695879597F90895E894F92F96EBFF234D
S11314E081F0121613061406440B9395F69587950E
S11314F07795679557954040FF23B9F71BC0992707
S11315000895882351F49850D2F7872B762F652FAE
S1131510542F432F322F20E0B1F312161306140672
S1131520440B88233AF09A95440F551F661F771F82
S1131530881FCAF755234AF4440F551F11F460FF5E
S113154004C06F5F7F4F8F4F9F4F880F969587958D
S113155097F9089597F99F6780E870E060E008952F
S11315609FEF80EC089590958095709560955095C7
S11315704095309521953F4F4F4F5F4F6F4F7F4FB1
S11315808F4F9F4F089500240A94161617061806C5
S11315900906089500240A94121613061406050673
S11315A00895092E0394000C11F4882352F0BB0F04
S11315B040F4BF2B11F460FF04C06F5F7F4F8F4F67
S11315C09F4F089557FD9058440F551F59F05F3FA2
S11315D071F04795880F97FB991F61F09F3F79F051
S11315E087950895121613061406551FF2CF4695D3
S11315F0F1DF08C0161617061806991FF1CF869555
S11316007105610508940895E894BB276627772738
S1131610CB0197F908950E941E0B0C94D10A0E94E5
S1131620C30A38F00E94CA0A20F0952311F00C94E2
S1131630AA0A0C94B00A11240C94050B0E94E20A25
S113164070F3959FC1F3950F50E0551F629FF00111
S1131650729FBB27F00DB11D639FAA27F00DB11D2A
S1131660AA1F649F6627B00DA11D661F829F2227B3
S1131670B00DA11D621F739FB00DA11D621F839F3A
S1131680A00D611D221F749F3327A00D611D231F10
S1131690849F600D211D822F762F6A2F11249F575E
S11316A050409AF0F1F088234AF0EE0FFF1FBB1F61
S11316B0661F771F881F91505040A9F79E3F510520
S11316C080F00C94AA0A0C94050B5F3FE4F3983E57
S11316D0D4F3869577956795B795F795E7959F5FCA
S11316E0C1F7FE2B880F911D9695879597F908955C
S11316F00E94EA0AE8F09E37E8F09639B8F49E387A
S113170048F4672F782F8827985FF9CF86957795C7
S1131710679593959539D0F3B62FB1706B0F711D02
S1131720811D20F487957795679593950C949C0B70
S11317300C94B70B0C94050B882371F4772321F0D8
S11317409850872B762F07C0662311F499270DC074
S11317509051862B70E060E02AF09A95660F771F0F
S1131760881FDAF7880F9695879597F908959F3F14
S113177031F0915020F4879577956795B795880F48
S1131780911D9695879597F90895DB018F939F9303
S11317900E94E90BBF91AF91A29F800D911DA39F61
S11317A0900DB29F900D1124089597FB072E16F407
S11317B0009407D077FD09D00E94810D07FC05D065
S11317C03EF4909581959F4F0895709561957F4F54
S11317D008950E94950DA59F900DB49F900DA49F10
S11317E0800D911D11240895B7FF0C94E90B0E94FC
S11317F0E90B821B930B0895DF93CF931F930F93F1
S11318009A9DF02D219FF00D8B9DF00D8A9DE02D6A
S1131810F10D039FF00D029FE00DF11D4E9DE00DB3
S1131820F11D5E9DF00D4F9DF00D7F936F93BF9260
S1131830AF925F934F93D5010E94950D8B01AC013C
S1131840D7010E94950DEB01E80FF91FD6010E9404
S11318504C0C2F913F91D6010E94950DC60FD71FB6
S1131860E81FF91FAF91BF910E944C0C2F913F913B
S11318700E94950DC60FD71FE81FF91FD6010E94BD
S1131880950DE60FF71F9801BE01CF0111240F91AA
S11318901F91CF91DF9108950E94950D460F571F18
S11318A0C81FD91F08F431960895689401C0E894BC
S11318B0F92FF12B12F00C94890CA0E0B0E0E3E6D0
S11318C0FCE00C94FB0C092E059422F40E94E50C18
S11318D0112392F4F0E80F26FFEFE094F0940095C2
S11318E01095B094C094D094A194BF0ACF0ADF0A93
S11318F0EF0AFF0A0F0B1F0B0E94940C07FC0E94B7
S1131900E50CCDB7DEB7ECE00C94170D689401C07C
S1131910E8948F929F92CF93DF930E94940CDF916F
S1131920CF919F908F90089588249924F401E40125
S1131930B0E49F93AA279A158B049C04ED05FE0539
S1131940CF05D007A10798F4AD2FDC2FCF2FFE2FA2
S1131950E92D982C892E982F872F762F652F542FB9
S1131960432F322F2227B85031F7BF9127C01B2EA7
S1131970BF91BB27220F331F441F551F661F771FBC
S1131980881F991F881C991CEE1FFF1FCC1FDD1F89
S1131990AA1FBB1F8A149B04EC05FD05CE05DF05B9
S11319A0A007B10748F08A189B08EC09FD09CE0985
S11319B0DF09A00BB10B21601A94E1F62EF4940117
S11319C0AF01BE01CD01000C08956095709580951E
S11319D0909530954095509521953F4F4F4F5F4FCF
S11319E06F4F7F4F8F4F9F4F08952F923F924F928B
S11319F05F926F927F928F929F92AF92BF92CF929B
S1131A00DF92EF92FF920F931F93CF93DF93CDB7A3
S1131A10DEB7CA1BDB0B0FB6F894DEBF0FBECDBF1B
S1131A2009942A88398848885F846E847D848C84EC
S1131A309B84AA84B984C884DF80EE80FD800C81F5
S1131A401B81AA81B981CE0FD11D0FB6F894DEBFD8
S1131A500FBECDBFED0108950F93083090F0982F7D
S1131A60872F762F652F542F432F322F222708508C
S1131A70F4CF220F331F441F551F661F771F881F83
S1131A80991F0A95B2F70F91089597FB10F81694D1
S1131A9000080F93083098F00850232F342F452F57
S1131AA0562F672F782F892F902DF4CF0594979573
S1131AB087957795679557954795379527950A950F
S1131AC0AAF70F9108952A0D3B1D4C1D5D1D6E1D37
S1131AD07F1D801F911F08952A193B094C095D0938
S1131AE06E097F09800B910B08950024A7FD0094D3
S1131AF02A173005400550056005700580059005DE
S1131B000895AA1BBB1B51E107C0AA1FBB1FA61740
S1131B10B70710F0A61BB70B881F991F5A95A9F792
S1131B2080959095BC01CD010895A29FB001B39F0B
S1131B30C001A39F700D811D1124911DB29F700DD2
S1131B40811D1124911D0895BB274A3031F4992336
S1131B5022F4BDE2909581959F4F0C94B00DBB2764
S1131B60FB015527AA27880F991FAA1FA41710F055
S1131B70A41B83955051B9F7A05DAA3308F0A95D61
S1131B80A193009779F7B111B1931192CB010C9401
S1131B90C90DDC01FC01672F71917723E1F73297BE
S1131BA004C07C916D9370836291AE17BF07C8F334
S1091BB00895F894FFCF34
S1131BB6013C00500000000000642020202020206A
S1131BC6202020202020202020202020202020200B
S1131BD620202020202020202020202020202020FB
S1131BE620202020202020202020202020202020EB
S1131BF620202020202020202020202020202020DB
S1131C0620202020202020202020202020202020CA
S1131C1620202020202020202020202020202020BA
S1131C26200044657074683A00636D0056616C76F2
S1131C36653A0025004F6E20004F66660050756DAC
S1131C46703A0050726573737572653A005061009C
S9030000FC
