S0160000576174657254616E6B547269616C2E7372656381
S11300000C9434000C9451000C9451000C94510045
S11300100C9451000C9451000C9451000C94510018
S11300200C9451000C9451000C94C1040C94A90438
S11300300C9451000C9451000C9451000C945100F8
S11300400C9451000C9451000C9451000C945100E8
S11300500C9451000C9451000C9451000C945100D8
S11300600C9451000C94510011241FBECFEFD8E022
S1130070DEBFCDBF11E0A0E0B1E0EEEAFAE102C0DC
S113008005900D92AC39B107D9F721E0ACE9B1E0A4
S113009001C01D92AE3CB207E1F70E9403080C9424
S11300A0550D0C940000CF93C82F8EEE0E944A0584
S11300B08C2F0E947B050E9477058FEE0E944A05D3
S11300C00E94AA05C82F0E9477058C2FCF9108950E
S11300D0CF93DF93C82F8EEE0E944A058C2F0E9487
S11300E07B050E9477058FEE0E944A050E949205C7
S11300F0C82FD0E0DC2FCC270E94AA05C82B0E9471
S11301007705CE01DF91CF910895CF92DF92EF92E0
S1130110FF92F82E8EEE0E944A058F2D0E947B05D9
S11301200E9477058FEE0E944A050E949205C82E10
S1130130D12CE12CF12CFE2CED2CDC2CCC240E94B7
S11301409205C82AFE2CED2CDC2CCC240E94AA0596
S1130150C82A0E947705C701B601FF90EF90DF908F
S1130160CF9008954F925F926F927F928F929F9259
S1130170AF92BF92CF92DF92EF92FF928AEF0E94EA
S113018085006B017C01C114D10480E8E806F10408
S113019009F48EC0B701A601689416F876956795A0
S11301A0579547951694D1F7ECE9F1E08081918158
S11301B0A0E0B0E0880F991FAA1FBB1F9A01AB01F2
S11301C0281B390B4A0B5B0BA281B3810E94700B75
S11301D04B015C01072E7BE0B694A7949794879417
S11301E07A95D1F7702DCD2CDE2CEF2CFF24808155
S11301F09181A7019601281B390B4109510980817E
S1130200918126013701481A590A61087108C3010E
S1130210B2010E94410B9B01AC01012E1CE05695DA
S11302204795379527951A95D1F7102DA481B58157
S11302300E94700BDC01CB01072E7EE0B695A795DA
S1130240979587957A95D1F7702D880D991DAA1DDC
S1130250BB1D8093BD019093BE01A093BF01B093D9
S1130260C0018091BD019091BE01A091BF01B091E8
S1130270C001AC01BD01440F551F661F771F440F19
S1130280551F661F771F840F951FA61FB71F805821
S11302909F4FAF4FBF4F692F7A2F8B2F99270E9403
S11302A0AB0920E030E048EC52E40E94FD0804C0B1
S11302B060E070E080EC9FE7FF90EF90DF90CF90DC
S11302C0BF90AF909F908F907F906F905F904F9072
S11302D008952F923F924F925F926F927F928F92E6
S11302E09F92AF92BF92CF92DF92EF92FF920F93C1
S11302F01F93CF93DF93CDB7DEB76E970FB6F89405
S1130300DEBF0FBECDBF0E94B20087EF0E94850002
S11303106115710500E88007910509F43DC29B0150
S1130320AC01689413F8559547953795279516941D
S1130330D1F7298B3A8B4B8B5C8B8091BD019091CB
S1130340BE01A091BF01B091C0018C019D0140E0AC
S113035050E0BA018F8B188F298F3A8F4B8F5C8FA7
S11303606D8F7E8F282F312F498D5A8D60E070E07C
S113037080E090E0345F41405109610971098109CD
S1130380910929833A83442E552E662E772E282EE2
S1130390392EA22EB32EC42ED52EE62EF72E082FDC
S11303A0192F0E94780B2B833C834D835E836F83CC
S11303B078878B879C878091AC019091AD01192F30
S11303C0110F110BA82EB92EC12ED12EE12EF12E14
S11303D0012F8B859C850E94780B29873A874D874E
S11303E05E87862E972E8F87988B8091AA01909195
S11303F0AB01192F110F110BA82EB92EC12ED12E1E
S1130400E12EF12E012F29813A81442D552D662D9F
S1130410772D822D932D0E94780B01E10E94A80C68
S1130420A22EB32EC42ED52EE62EF72E082F192F6A
S113043029853A854D855E85682D792D8F85988926
S11304400E94DF0C822E932E49875A87B62FA72F3E
S1130450F82FE92F8091A8019091A901192F110F6C
S1130460110B282F392F412F512F612F712F812FDD
S1130470912F03E20E94A80CA22EB32EC42ED52ED7
S1130480E62EF72E082F192F282D392D49855A8548
S11304906B2F7A2F8F2F9E2F0E94DF0C29873A878C
S11304A04D875E876F87788B8D8B9E8B8091A6019D
S11304B09091A701192F110F110BA82EB92EC12E3F
S11304C0D12EE12EF12E012F2B813C814D815E81B5
S11304D06F8178858B859C850E94780B08E00E944B
S11304E0C10C2B833C834D835E83862E972E8F8392
S11304F098878091A4019091A501192F110F110BD8
S1130500A82EB92EC12ED12EE12EF12E012F298134
S11305103A81442D552D662D772D822D932D0E94E1
S1130520780B0CE00E94A80CA22EB32EC42ED52E5C
S1130530E62EF72E082F192F2B813C814D815E81E9
S1130540682D792D8F8198850E94DF0C70588F4F0C
S11305509F4FE091A201F091A3011F01AE2EB32C95
S1130560C12CD12CE12CF12C00E010E00E94780B7E
S113057001E20E94C10C422E532E642E752E862E4B
S1130580972E8A839983A0E00E94F10C09F409C193
S113059080E090E0A0E1B0E029893A894B895C8948
S11305A0821B930BA40BB50B5C016D01282F3B2D13
S11305B04C2D5D2D60E070E080E090E00FE10E9442
S11305C0A80CA984BA84CD84DE84EF84F8880D89CC
S11305D01E890E94E80C0F2EF5E3AF2EF02D0F2E8E
S11305E0FCE0BF2EF02DC12CD12CE12CF12C00E02D
S11305F010E00E94780BA42CB52CC62CD72CE82C28
S1130600F92C0A8119810E94D30B29833A834B83E5
S11306105C836D837E838F839887A091B201B091B0
S1130620B301EB2FEE0FEE0B0DE00E94C10C222E56
S1130630332E442E552E662E772E882E992EA22EDA
S1130640B32EC42ED52EE62EF72E082F192F2A2FBF
S11306503B2F4E2F5E2F6E2F7E2F8E2F9E2F0E94AC
S1130660780BA22EB32EC42ED52EE62EF72E082FED
S1130670192F222D332D442D552D662D772D882DA0
S1130680992D0E94780B09E10E94C10C522E432E31
S1130690342E252E6B877C8789879A878091B001B9
S11306A09091B101192F110F110BA82EB92EC12E43
S11306B0D12EE12EF12E012F29813A814B815C81CB
S11306C06D817E818F8198850E94780B03E10E9461
S11306D0C10C622E732E842E952EB62FA72FF82FC1
S11306E0E92F29813A814B815C816D817E818F81E3
S11306F09885A52CB42CC32CD22CEB84FC840985BE
S11307001A850E94DF0CA22EB32EC42ED52EE62EFF
S1130710F72E082F192F262D372D482D592D6B2FE5
S11307207A2F8F2F9E2F0E94DF0C08E00E94C10CAD
S1130730822E932E642E752EB62FA72FF82FE92F15
S11307404091AE015091AF01952F990F990B242F31
S1130750352F492F592F692F792F892F04E00E94B3
S1130760A80CA22EB32EC42ED52EE62EF72E082FBB
S1130770192F282D392D462D572D6B2F7A2F8F2F7A
S11307809E2F0E94DF0C0E94A50920E030E040E883
S11307905BE30E94870A08C060E070E080EC9FE79A
S11307A003C060E070E0CB016E960FB6F894DEBF34
S11307B00FBECDBFDF91CF911F910F91FF90EF90AE
S11307C0DF90CF90BF90AF909F908F907F906F906D
S11307D05F904F903F902F9008950E946800982753
S11307E08927982708950E94ED0308950F931F9376
S11307F0CF93DF9388E80E94ED03CCE9D1E099839D
S113080088838AE80E94F3039B838A838CE80E948E
S1130810F3039D838C838EE80E94ED039F838E8374
S113082080E90E94F3039987888782E90E94F30391
S11308309B878A8784E90E94F3039D878C8786E9D6
S11308400E94F3039F878E8788E90E94F303998BA4
S1130850888B8AE90E94F3039B8B8A8B8CE90E9424
S1130860F3039D8B8C8B8EE90E94F3039F8B8E8BFD
S113087081EA0E945300888F81EE0E94F3039A8FCD
S1130880898F83EE0E9453008B8F84EE0E94530065
S113089090E1899F8001112485EE0E9453008F709E
S11308A0082B1D8F0C8F86EE0E94530090E1899FC8
S11308B08001112485EE0E94530082958F70082BCD
S11308C01F8F0E8F87EE0E94530088A3DF91CF9174
S11308D01F910F91089580ED0E945300803699F482
S11308E08EEE0E944A0585EF0E947B058CE60E94ED
S11308F07B0584EF0E947B0587EB0E947B050E94A9
S113090077050E94F6030895FC01408121E030E060
S113091002C0220F331F6A95E2F7242B2083089527
S1130920FC01908121E030E002C0220F331F6A9560
S1130930E2F72095292320830895FC01408121E0DA
S113094030E002C0220F331F6A95E2F7242B208384
S113095008951F920F920FB60F9211248F939F93B5
S113096095B188E0982795B994E09A95F1F795B1F7
S1130970892785B99F918F910F900FBE0F901F907B
S113098018951F920F920FB60F921124CF92DF92F7
S1130990EF92FF922F933F934F935F936F937F93C5
S11309A08F939F93AF93BF93CF93DF93EF93FF9373
S11309B08091810086FF0EC0E1E8F0E080818F7BAA
S11309C0808380918600909187009093CC018093DE
S11309D0CB0140C0E1E8F0E08081806480836091D5
S11309E08600709187007093C2016093C101809169
S11309F0CB019091CC01EB01C81BD90BD093CA0158
S1130A00C093C9016091C7017091C80180E090E072
S1130A100E94AB096B017C01BE01DD0F880B990BB1
S1130A200E94AD09A70196010E94870A20E030E0E8
S1130A3040E251E40E94870A20E030E041E154E4BE
S1130A400E94FD086093C3017093C4018093C501A3
S1130A509093C601FF91EF91DF91CF91BF91AF9138
S1130A609F918F917F916F915F914F913F912F91C2
S1130A70FF90EF90DF90CF900F900FBE0F901F90DC
S1130A8018956091C3017091C4018091C501909142
S1130A90C601089594EA9093BC0020E431E009C0B3
S1130AA02150310931F48091CD0181608093CD01D1
S1130AB008959091BC0099231CF02115310581F70C
S1130AC08093BB0084E88093BC0080E491E008C07C
S1130AD0019731F48091CD0182608093CD01089516
S1130AE02091BC00222314F0009791F7089584E923
S1130AF08093BC0008958093BB0084E88093BC007D
S1130B0080E491E008C0019731F48091CD018460C4
S1130B108093CD0108952091BC00222314F0009706
S1130B2091F7089584EC8093BC0080E491E009C0BF
S1130B30019739F48091CD0188608093CD0180E0E4
S1130B4008952091BC00222314F0009789F7809126
S1130B50BB00089584E88093BC0080E491E009C060
S1130B60019739F48091CD0180618093CD0180E0BB
S1130B7008952091BC00222314F0009789F78091F6
S1130B80BB00089585B1806885B985E08A95F1F741
S1130B90000085B18F7785B90895CF93C82F662358
S1130BA021F085B1816085B903C085B18E7F85B997
S1130BB08AB180618AB98AB180628AB98AB1806453
S1130BC08AB98AB180688AB98BB18F778BB98BB1B6
S1130BD08F7B8BB98BB18F7D8BB98BB18F7E8BB9AA
S1130BE0CC231CF48BB180688BB9C6FF03C08BB1D6
S1130BF080648BB9C5FF03C08BB180628BB9C4FF1D
S1130C0003C08BB180618BB90E94C2058BB18F7711
S1130C108BB98BB18F7B8BB98BB18F7D8BB98BB13A
S1130C208F7E8BB9C3FF03C08BB180688BB9C2FFC1
S1130C3003C08BB180648BB9C1FF03C08BB18062E8
S1130C408BB9C0FF03C08BB180618BB90E94C20510
S1130C508BB180618BB98BB180628BB98BB18064AD
S1130C608BB98BB180688BB987EB9BE00197F1F767
S1130C7000C00000CF91089560E00E94CD05089562
S1130C80611104C080580E943C06089580540E945B
S1130C903C06089581E00E943C06089561E00E94AC
S1130CA0CD050895CF93DF93FC0103C00E944E0647
S1130CB0FE01EF01219680818111F8CFDF91CF9160
S1130CC00895CF93C82F84B1816084B98AB18062BA
S1130CD08AB984B1806884B98AB180618AB98AB1D9
S1130CE080628AB98AB180648AB98AB180688AB913
S1130CF08FEF99EF0197F1F700C000008BB180628C
S1130D008BB98BB180618BB90E94C2058FE19EE4DF
S1130D100197F1F700C000000E94C2058FEF90E038
S1130D200197F1F700C000000E94C2058FEF90E028
S1130D300197F1F700C000008BB18F7E8BB90E9440
S1130D40C2058FEF90E00197F1F700C0000088E240
S1130D500E943C0688E00E943C060E944A0686E007
S1130D600E943C068C2F0E943C06CF9108950F935D
S1130D701F93CF93DF9300D0CDB7DEB7182F062F84
S1130D8080E290E09A8389834AE0BE016F5F7F4FDF
S1130D90802F90E00E94200D61E080E00E944006D8
S1130DA01130E1F030F0123071F1133009F43FC02A
S1130DB052C0CE0101960E94520660E080E00E947B
S1130DC0400686E091E00E94520661E085E00E94C0
S1130DD040068DE091E00E9452063DC0CE0101968E
S1130DE00E94520660E080E00E94400680E191E0AB
S1130DF00E94520661E085E00E94400687E191E08E
S1130E000E94520628C0013029F489E191E00E9431
S1130E10520604C08DE191E00E94520660E080E039
S1130E200E94400681E291E00E94520614C0CE0165
S1130E3001960E94520660E080E00E94400687E22C
S1130E4091E00E94520661E085E00E94400681E341
S1130E5091E00E9452060F900F90DF91CF911F9165
S1130E600F910895CF92DF92EF92FF92CF93C82F04
S1130E700E9469016B017C016C2F70E080E090E0BE
S1130E800E94AD09A70196010E94900820E030E27B
S1130E9049E156E40E94870A20E030E04AE754E43E
S1130EA00E94FD080E94F40A0E947609862FCF91C1
S1130EB0FF90EF90DF90CF9008959091030181E02F
S1130EC0911180E080930301813031F461E08BE281
S1130ED090E00E949D04089561E08BE290E00E94FE
S1130EE090040895CF93C82F62E084E290E00E94BA
S1130EF050088C2F0E947408CF9108950F931F936C
S1130F00CF93DF93C82F8B01D82FCB018155910943
S1130F10879768F4DFEFDC0FD23308F0D3E060E0AA
S1130F2080E00E94400684E391E00E945206C801DA
S1130F30895C91098336910570F4D3301CF4D1E0B7
S1130F40DC0F01C0D0E060E080E00E94400684E352
S1130F5091E00E945206C80187589140879798F4FF
S1130F60C13069F48C2F90E0FC01EF5FFE4F2081CB
S1130F70222329F0FC01EF5FFE4F25502083C2306D
S1130F8011F40E945D07003511059CF48C2F90E04C
S1130F90FC01EF5FFE4F2081243639F0C13029F483
S1130FA0FC01EF5FFE4F2B5F2083C23011F40E94DF
S1130FB05D078D2FDF91CF911F910F910895CF92EF
S1130FC0DF92EF92FF92682F70E080E090E00E9441
S1130FD0AD096B017C010E94410520E030E048EC42
S1130FE052E40E94FD089B01AC01C701B6010E94B6
S1130FF090080E94F40A0E946F09862FFF90EF90D8
S1131000DF90CF9008958CE00E94610661E08AE24F
S113101090E00E9484040E946B04ECE7F0E080817D
S11310208064808380818F7780838081807F8083C8
S1131030EAE7F0E080818068808380818860808333
S1131040808187608083EAE7F0E080818064808328
S11310506091780070917900809100010E947E0770
S113106080930001C1E0D1E0E82FF0E0EF5FFE4F94
S113107060810E94B7062FEF83EC99E021508040F5
S11310809040E1F700C00000809105010E94DF0755
S113109088830E9432078B8389810E947207D3CF91
S11310A0FC01408121E030E002C0220F331F6A9529
S11310B0E2F7242B208310928500109284008FE3A2
S11310C09CE99093870080938600E0E8F0E080E854
S11310D08083808182608083E1E8F0E088E180831E
S11310E0808182608083089520ED37E0482F429FFD
S11310F0C001439F900D11246AE570E00E94510BDA
S1131100072E000C880B990B0E94AD090E94F40A6B
S11311100E94760970E070938B0060938A000895B2
S11311205058BB27AA270E94A8080C944D0A0E9475
S11311303F0A38F00E94460A20F039F49F3F19F420
S113114026F40C942C0A0EF4E095E7FB0C94260A82
S1131150E92F0E945E0A58F3BA17620773078407DF
S1131160950720F079F4A6F50C94800A0EF4E09526
S11311700B2EBA2FA02D0B01B90190010C01CA014D
S1131180A0011124FF27591B99F0593F50F4503EF8
S113119068F11A16F040A22F232F342F4427585FEA
S11311A0F3CF469537952795A795F0405395C9F702
S11311B07EF41F16BA0B620B730B840BBAF09150BA
S11311C0A1F0FF0FBB1F661F771F881FC2F70EC059
S11311D0BA0F621F731F841F48F48795779567952C
S11311E0B795F7959E3F08F0B0CF9395880F08F018
S11311F09927EE0F9795879508950E9411090C94ED
S11312004D0A0E94460A58F00E943F0A40F029F411
S11312105F3F29F00C94260A51110C94810A0C9416
S11312202C0A0E945E0A68F39923B1F3552391F3C3
S1131230951B550BBB27AA2762177307840738F041
S11312409F5F5F4F220F331F441FAA1FA9F335D09E
S11312500E2E3AF0E0E832D091505040E695001C52
S1131260CAF72BD0FE2F29D0660F771F881FBB1F0C
S1131270261737074807AB07B0E809F0BB0B802DEA
S1131280BF01FF2793585F4F3AF09E3F510578F016
S11312900C94260A0C94810A5F3FE4F3983ED4F33D
S11312A0869577956795B795F7959F5FC9F7880FEA
S11312B0911D9695879597F90895E1E0660F771F3C
S11312C0881FBB1F621773078407BA0720F0621BCD
S11312D0730B840BBA0BEE1F88F7E09508950E94F8
S11312E076096894B1110C94810A08950E94660AE3
S11312F088F09F5798F0B92F9927B751B0F0E1F0D3
S1131300660F771F881F991F1AF0BA95C9F714C082
S1131310B13091F00E94800AB1E008950C94800AE3
S1131320672F782F8827B85F39F0B93FCCF38695BB
S113133077956795B395D9F73EF490958095709518
S113134061957F4F8F4F9F4F089597FB16F40E942E
S11313502F0A0C94E909E89409C097FB3EF4909590
S11313608095709561957F4F8F4F9F4F9923A9F07A
S1131370F92F96E9BB279395F69587957795679509
S1131380B795F111F8CFFAF4BB0F11F460FF1BC04D
S11313906F5F7F4F8F4F9F4F16C0882311F096E9E0
S11313A011C0772321F09EE8872F762F05C066238E
S11313B071F096E8862F70E060E02AF09A95660F47
S11313C0771F881FDAF7880F9695879597F9089500
S11313D0E894F92F96EBFF2381F0121613061406F6
S11313E0440B9395F6958795779567955795404067
S11313F0FF23B9F71BC099270895882351F4985007
S1131400D2F7872B762F652F542F432F322F20E0CE
S1131410B1F3121613061406440B88233AF09A9576
S1131420440F551F661F771F881FCAF755234AF4B8
S1131430440F551F11F460FF04C06F5F7F4F8F4F3F
S11314409F4F880F9695879597F9089597F99F6709
S113145080E870E060E008959FEF80EC0895909537
S113146080957095609550954095309521953F4FA6
S11314704F4F5F4F6F4F7F4F8F4F9F4F0895002403
S11314800A941616170618060906089500240A94E5
S113149012161306140605060895092E0394000C6B
S11314A011F4882352F0BB0F40F4BF2B11F460FFFA
S11314B004C06F5F7F4F8F4F9F4F089557FD905823
S11314C0440F551F59F05F3F71F04795880F97FB04
S11314D0991F61F09F3F79F08795089512161306BE
S11314E01406551FF2CF4695F1DF08C016161706ED
S11314F01806991FF1CF8695710561050894089522
S1131500E894BB2766277727CB0197F908950E94B3
S11315109A0A0C944D0A0E943F0A38F00E94460A27
S113152020F0952311F00C94260A0C942C0A112413
S11315300C94810A0E945E0A70F3959FC1F3950F83
S113154050E0551F629FF001729FBB27F00DB11D43
S1131550639FAA27F00DB11DAA1F649F6627B00DD3
S1131560A11D661F829F2227B00DA11D621F739FBC
S1131570B00DA11D621F839FA00D611D221F749FCA
S11315803327A00D611D231F849F600D211D822F11
S1131590762F6A2F11249F5750409AF0F1F0882338
S11315A04AF0EE0FFF1FBB1F661F771F881F915065
S11315B05040A9F79E3F510580F00C94260A0C94E4
S11315C0810A5F3FE4F3983ED4F386957795679557
S11315D0B795F795E7959F5FC1F7FE2B880F911D8F
S11315E09695879597F908950E94660AE8F09E37C4
S11315F0E8F09639B8F49E3848F4672F782F882796
S1131600985FF9CF86957795679593959539D0F33B
S1131610B62FB1706B0F711D811D20F487957795DE
S1131620679593950C94180B0C94330B0C94810AC6
S1131630882371F4772321F09850872B762F07C0E5
S1131640662311F499270DC09051862B70E060E059
S11316502AF09A95660F771F881FDAF7880F9695F8
S1131660879597F908959F3F31F0915020F487951D
S113167077956795B795880F911D9695879597F9F6
S11316800895DB018F939F930E94650BBF91AF91E7
S1131690A29F800D911DA39F900DB29F900D1124C8
S11316A0089597FB072E16F4009407D077FD09D010
S11316B00E94FD0C07FC05D03EF4909581959F4F48
S11316C00895709561957F4F08950E94110DA59F0F
S11316D0900DB49F900DA49F800D911D1124089529
S11316E0B7FF0C94650B0E94650B821B930B089546
S11316F0DF93CF931F930F939A9DF02D219FF00DAD
S11317008B9DF00D8A9DE02DF10D039FF00D029F3E
S1131710E00DF11D4E9DE00DF11D5E9DF00D4F9D00
S1131720F00D7F936F93BF92AF925F934F93D50168
S11317300E94110D8B01AC01D7010E94110DEB0128
S1131740E80FF91FD6010E94C80B2F913F91D601D3
S11317500E94110DC60FD71FE81FF91FAF91BF914B
S11317600E94C80B2F913F910E94110DC60FD71FE5
S1131770E81FF91FD6010E94110DE60FF71F98010B
S1131780BE01CF0111240F911F91CF91DF910895D4
S11317900E94110D460F571FC81FD91F08F4319618
S11317A00895689401C0E894F92FF12B12F00C9479
S11317B0050CA0E0B0E0EFEDFBE00C94770C092EF3
S11317C0059422F40E94610C112392F4F0E80F2690
S11317D0FFEFE094F09400951095B094C094D094E9
S11317E0A194BF0ACF0ADF0AEF0AFF0A0F0B1F0BEF
S11317F00E94100C07FC0E94610CCDB7DEB7ECE030
S11318000C94930C689401C0E8948F929F92CF93A8
S1131810DF930E94100CDF91CF919F908F900895D9
S113182088249924F401E401B0E49F93AA279A152B
S11318308B049C04ED05FE05CF05D007A10798F4A1
S1131840AD2FDC2FCF2FFE2FE92D982C892E982F2A
S1131850872F762F652F542F432F322F2227B850EE
S113186031F7BF9127C01B2EBF91BB27220F331F17
S1131870441F551F661F771F881F991F881C991CBA
S1131880EE1FFF1FCC1FDD1FAA1FBB1F8A149B0462
S1131890EC05FD05CE05DF05A007B10748F08A1861
S11318A09B08EC09FD09CE09DF09A00BB10B2160EF
S11318B01A94E1F62EF49401AF01BE01CD01000C9F
S11318C008956095709580959095309540955095C4
S11318D021953F4F4F4F5F4F6F4F7F4F8F4F9F4F1C
S11318E008952F923F924F925F926F927F928F92C0
S11318F09F92AF92BF92CF92DF92EF92FF920F939B
S11319001F93CF93DF93CDB7DEB7CA1BDB0B0FB6A4
S1131910F894DEBF0FBECDBF09942A883988488861
S11319205F846E847D848C849B84AA84B984C884F7
S1131930DF80EE80FD800C811B81AA81B981CE0FEE
S1131940D11D0FB6F894DEBF0FBECDBFED010895D3
S11319500F93083090F0982F872F762F652F542FF0
S1131960432F322F22270850F4CF220F331F441F56
S1131970551F661F771F881F991F0A95B2F70F918D
S1131980089597FB10F8169400080F93083098F008
S11319900850232F342F452F562F672F782F892F48
S11319A0902DF4CF059497958795779567955795DE
S11319B04795379527950A95AAF70F9108952A0D0B
S11319C03B1D4C1D5D1D6E1D7F1D801F911F0895C5
S11319D02A193B094C095D096E097F09800B910B9B
S11319E008950024A7FD00942A17300540055005EA
S11319F060057005800590050895AA1BBB1B51E185
S1131A0007C0AA1FBB1FA617B70710F0A61BB70B6A
S1131A10881F991F5A95A9F780959095BC01CD010F
S1131A200895A29FB001B39FC001A39F700D811DB3
S1131A301124911DB29F700D811D1124911D0895D3
S1131A40BB274A3031F4992322F4BDE29095819565
S1131A509F4F0C942C0DBB27FB015527AA27880FF9
S1131A60991FAA1FA41710F0A41B83955051B9F70E
S1131A70A05DAA3308F0A95DA193009779F7B1118D
S1131A80B1931192CB010C94450DDC01FC01672F3D
S1131A9071917723E1F7329704C07C916D93708341
S1111AA06291AE17BF07C8F30895F894FFCF04
S1131AAE023C5000006444657074683A00636D0033
S1131ABE56616C76653A0025004F6E20004F6666BF
S1131ACE0050756D703A0050726573737572653A95
S1131ADE00506100202020202020202020202020C3
S1131AEE20202020202020202020202020202020E4
S1131AFE20202020202020202020202020202020D4
S1131B0E20202020202020202020202020202020C3
S1131B1E20202020202020202020202020202020B3
S1131B2E20202020202020202020202020202020A3
S10F1B3E20202020202020202020200037
S9030000FC
