S0160000576174657254616E6B547269616C2E7372656381
S11300000C9434000C9464040C9451000C9451002E
S11300100C9451000C9451000C9451000C94510018
S11300200C9451000C9451000C9451000C94510008
S11300300C9451000C9451000C9451000C945100F8
S11300400C9451000C9451000C9451000C945100E8
S11300500C9451000C9451000C9451000C945100D8
S11300600C9451000C94510011241FBECFEFD8E022
S1130070DEBFCDBF11E0A0E0B1E0E8E6FFE002C0E2
S113008005900D92AA3AB107D9F721E0AAEAB1E0A6
S113009001C01D92A33BB207E1F70E9406040C9431
S11300A0B2070C940000FC01408121E030E002C062
S11300B0220F331F6A95E2F7242B20830895FC0155
S11300C0808121E030E002C0220F331F6A95E2F7FD
S11300D02095822380838181282321830895FC0134
S11300E0908121E030E002C0220F331F6A95E2F7CD
S11300F02095292320830895FC01408121E030E0EC
S113010002C0220F331F6A95E2F7242B208308953F
S113011085B1806885B985E08A95F1F7000085B1DD
S11301208F7785B90895CF93C82F662321F085B1C1
S1130130816085B903C085B18E7F85B98AB180613C
S11301408AB98AB188608AB98AB180648AB98AB165
S113015080688AB98BB18F778BB98BB18F7B8BB960
S11301608BB1877F8BB98BB18F7E8BB9CC231CF479
S11301708BB180688BB9C6FF03C08BB180648BB927
S1130180C5FF03C08BB188608BB9C4FF03C08BB1BA
S113019080618BB90E9488008BB18F778BB98BB14A
S11301A08F7B8BB98BB1877F8BB98BB18F7E8BB9EA
S11301B0C3FF03C08BB180688BB9C2FF03C08BB18E
S11301C080648BB9C1FF03C08BB188608BB9C0FF59
S11301D003C08BB180618BB90E9488008BB18061B0
S11301E08BB98BB188608BB98BB180648BB98BB1BF
S11301F080688BB987EB9BE00197F1F700C00000A2
S1130200CF91089560E00E9493000895611104C0A5
S113021080580E940201089580540E9402010895AA
S113022081E00E940201089561E00E949300089514
S1130230CF93DF93FC0103C00E941401FE01EF0180
S1130240219680818111F8CFDF91CF910895CF93CA
S1130250C82F84B1816084B98AB180628AB984B1BB
S1130260806884B98AB180618AB98AB188608AB9A0
S11302708AB180648AB98AB180688AB98FEF99EFAC
S11302800197F1F700C000008BB188608BB98BB186
S113029080618BB90E9488008FE19EE40197F1F799
S11302A000C000000E9488008FEF90E00197F1F7F2
S11302B000C000000E9488008FEF90E00197F1F7E2
S11302C000C000008BB18F7E8BB90E9488008FEF35
S11302D090E00197F1F700C0000088E20E9402015B
S11302E088E00E9402010E94100186E00E9402013F
S11302F08C2F0E940201CF910895CF9363E088E28E
S113030090E00E947C008091B0018531D0F08EEEA7
S11303100E94F20480E00E940F050E942305E1EB95
S1130320F0E08081876080838FEE0E94F2040E9457
S11303301905C82F0E9423051092B0018C2F90E05C
S113034007C08F5F8093B00180910A0190910B01E7
S1130350CF910895209106013091070181E090E04A
S1130360232B11F080E090E0909307018093060125
S1130370019731F461E08BE290E00E947C000895E3
S113038061E08BE290E00E946F000895E1E8F0E004
S11303909081987F90830E94A3048CE00E9427019F
S11303A008950F931F93CF93DF93C82F8B01CB0135
S11303B081559109879770F4DFEFDC0FD23308F091
S11303C0D4E060E080E00E9406018CE091E00E94AD
S11303D0180101C0DC2FC801895C9109833691059D
S11303E070F4D43018F4D1E0DC0F01C0D0E060E048
S11303F080E00E9406018CE091E00E941801C8018F
S1130400875891408797D8F4C130A9F42C2F30E055
S1130410F901EE0FFF1FEE5FFE4F8081918100977F
S113042051F00597220F331FF901EE5FFE4F9183C0
S113043080830E94C601C23011F40E94AA010035D3
S11304401105E4F42C2F30E0F901EE0FFF1FEE5FED
S1130450FE4F808191818436910561F0C13051F461
S11304600596220F331FF901EE5FFE4F91838083BF
S11304700E94C601C23011F40E94AA018D2FDF919F
S1130480CF911F910F9108958DB381608DBBE9E6E3
S1130490F0E080818160808380818D7F80831092F1
S11304A0B00085E08093B100789481E08093B2013C
S11304B016C065E085E290E00E947C0020E52A9564
S11304C0F1F765E085E290E00E946F008FEF99E616
S11304D028E1815090402040E1F700C00000809165
S11304E0B2018111E6CF8091AA019091AB010895E8
S11304F08091B001853188F01092B0010E944402CD
S1130500909303018093020161E080E00E94060160
S11305108BE691E00E94180103C08F5F8093B001C5
S113052080910201909103010895CF92DF92EF929E
S1130530FF92CF938091B001853108F441C08EEED3
S11305400E94F20481E00E940F050E942305E1EB62
S1130550F0E08081876080838FEE0E94F2040E9425
S11305601905C82F0E9423051092B0018091000143
S11305700E947802BC017727072E000C880B990B88
S11305800E9437062DEC3CEC4CE151E40E94C3067A
S113059020E030E048EC52E40E9494056B017C01B9
S11305A06C2F70E080E090E00E943706A70196016E
S11305B00E9428050E9430070E940606CB0107C04E
S11305C08F5F8093B0018091080190910901CF91D0
S11305D0FF90EF90DF90CF900895EF92FF920F93EA
S11305E01F93CF93DF9300D0CDB7DEB7082F80E2FF
S11305F090E09A83898361E080E00E9406010230E2
S113060009F47DC028F4002351F0013099F1F5C0BC
S1130610033009F499C0043009F4BFC0EEC08091DE
S113062000010E9478029093030180930201E02F5D
S1130630F0E0EE0FFF1FEE5FFE4F4AE0BE016F5F7A
S11306407F4F808191810E947D07CE0101960E9497
S1130650180160E080E00E94060184E791E00E94B6
S1130660180161E085E00E9406018BE791E00E9499
S11306701801C3C010E0C801880F991F9C012E5FA8
S11306803E4F79014AE0BE016F5F7F4FF9018081DF
S113069091810E947D07CE0101960E941801F70105
S11306A0808191818F35910541F461E082E00E945F
S11306B0060182E791E00E941801000F111FF80162
S11306C0EE5FFE4F80819181059741F461E081E006
S11306D00E94060182E791E00E94180160E080E038
S11306E00E9406018EE791E00E94180161E085E016
S11306F00E94060185E891E00E9418017EC010E086
S1130700000F111F0E5F1E4F4AE0BE016F5F7F4F47
S1130710F801808191810E947D07F8018081918197
S1130720019729F487E891E00E94180104C08BE83E
S113073091E00E94180160E080E00E9406018FE8C9
S113074091E00E94180159C00E94950290930901FA
S113075080930801E02FF0E0EE0FFF1FEE5FFE4FE5
S11307604AE0BE016F5F7F4F808191810E947D07C7
S1130770CE0101960E94180160E080E00E9406010B
S113078085E991E00E94180161E085E00E9406017C
S11307908FE991E00E94180130C00E947D0190937E
S11307A00B0180930A01E02FF0E0EE0FFF1FEE5FD4
S11307B0FE4F4AE0BE016F5F7F4F808191810E94AE
S11307C07D07CE0101960E94180161E082E00E943B
S11307D0060182E791E00E94180160E080E00E9437
S11307E0060182EA91E00E94180161E085E00E941E
S11307F0060185E891E00E9418010F900F90DF91A7
S1130800CF911F910F91FF90EF9008958CE00E947B
S1130810270161E08AE290E00E94530065E084E2EF
S113082090E00E94530066E08AE290E00E945F003C
S1130830ECE7F0E080818064808380818F7780831F
S11308408081807F8083EAE7F0E080818068808314
S113085078940E94E304EAE7F0E080818064808376
S113086060917800709179008091B1010E94D1016A
S11308708093B1012FEF83EC99E0215080409040A8
S1130880E1F700C000008091B1010E94ED02809167
S1130890AF018730B0F0809100010E947802C2E07D
S11308A0D1E0998388830E9495029F838E830E945E
S11308B07D01998788878091AF018F5F8093AF0115
S11308C0CACF1092AF01C7CF1F920F920FB60F92EB
S11308D011248F939F93EF93FF938091AD01909197
S11308E0AE01892B61F4E1EBF0E0808181608083CB
S11308F081E090E09093AE018093AD011BC0E2EBE8
S1130900F0E0808190E09093AB018093AA01109273
S1130910B10010821092AE011092AD018091AC0131
S11309208F5F8093AC01863028F08DB38E7F8DBBB2
S11309301092B201FF91EF919F918F910F900FBE92
S11309400F901F901895CF93C82F88E00E9427011D
S11309508AB180628AB98FEF87BD6C2F70E080E026
S113096090E00E9437062AEC3EEF49EF5CE30E94D8
S1130970C3062CEF3BE742E151E40E94280520E046
S113098030E040E853E40E94C30620E030E048EC45
S113099052E40E9494059B01AC0160E070E08FE793
S11309A093E40E9427050E9430070E94060668BD52
S11309B084B5836384BD85B5896085BD85B58C6048
S11309C085BDCF91089587B18F7C87B988B1806345
S11309D088B9E9EBF0E080818C7F808388E980939B
S11309E0B800089594EA9093BC009091BC009923B8
S11309F0E4F78093BB0084E88093BC008091BC0042
S1130A008823E4F78091B900887F883121F080340D
S1130A1021F480E0089580E0089581E008958093B2
S1130A20BB0084E88093BC008091BC008823E4F779
S1130A30089584E88093BC008091BC008823E4F787
S1130A408091BB00089584E98093BC0008955058B8
S1130A50BB27AA270E943F050C9489060E947B06A7
S1130A6038F00E94820620F039F49F3F19F426F4EE
S1130A700C9478060EF4E095E7FB0C947206E92FCB
S1130A800E949A0658F3BA176207730784079507FA
S1130A9020F079F4A6F50C94BC060EF4E0950B2E28
S1130AA0BA2FA02D0B01B90190010C01CA01A001BC
S1130AB01124FF27591B99F0593F50F4503E68F117
S1130AC01A16F040A22F232F342F4427585FF3CF58
S1130AD0469537952795A795F0405395C9F77EF429
S1130AE01F16BA0B620B730B840BBAF09150A1F072
S1130AF0FF0FBB1F661F771F881FC2F70EC0BA0FF8
S1130B00621F731F841F48F4879577956795B7957F
S1130B10F7959E3F08F0B0CF9395880F08F099277A
S1130B20EE0F9795879508950E94A8050C94890661
S1130B300E94820658F00E947B0640F029F45F3F31
S1130B4029F00C94720651110C94BD060C9478068D
S1130B500E949A0668F39923B1F3552391F3951BE8
S1130B60550BBB27AA2762177307840738F09F5FCA
S1130B705F4F220F331F441FAA1FA9F335D00E2E37
S1130B803AF0E0E832D091505040E695001CCAF7A4
S1130B902BD0FE2F29D0660F771F881FBB1F261767
S1130BA037074807AB07B0E809F0BB0B802DBF013E
S1130BB0FF2793585F4F3AF09E3F510578F00C940D
S1130BC072060C94BD065F3FE4F3983ED4F3869519
S1130BD077956795B795F7959F5FC9F7880F911D2E
S1130BE09695879597F90895E1E0660F771F881F1A
S1130BF0BB1F621773078407BA0720F0621B730BCD
S1130C00840BBA0BEE1F88F7E09508950E94A206A4
S1130C1088F09F5798F0B92F9927B751B0F0E1F0B9
S1130C20660F771F881F991F1AF0BA95C9F714C069
S1130C30B13091F00E94BC06B1E008950C94BC065A
S1130C40672F782F8827B85F39F0B93FCCF38695A2
S1130C5077956795B395D9F73EF4909580957095FF
S1130C6061957F4F8F4F9F4F0895E89409C097FB7C
S1130C703EF490958095709561957F4F8F4F9F4F6F
S1130C809923A9F0F92F96E9BB279395F6958795B3
S1130C9077956795B795F111F8CFFAF4BB0F11F476
S1130CA060FF1BC06F5F7F4F8F4F9F4F16C088231D
S1130CB011F096E911C0772321F09EE8872F762F53
S1130CC005C0662371F096E8862F70E060E02AF094
S1130CD09A95660F771F881FDAF7880F9695879580
S1130CE097F9089597F99F6780E870E060E00895A8
S1130CF09FEF80EC089500240A9416161706180630
S1130D000906089500240A9412161306140605060B
S1130D100895092E0394000C11F4882352F0BB0F9C
S1130D2040F4BF2B11F460FF04C06F5F7F4F8F4FFF
S1130D309F4F089557FD9058440F551F59F05F3F3A
S1130D4071F04795880F97FB991F61F09F3F79F0E9
S1130D5087950895121613061406551FF2CF46956B
S1130D60F1DF08C0161617061806991FF1CF8695ED
S1130D707105610508940895E894BB2766277727D1
S1130D80CB0197F908950E94D6060C9489060E9417
S1130D907B0638F00E94820620F0952311F00C9413
S1130DA072060C94780611240C94BD060E949A06CF
S1130DB070F3959FC1F3950F50E0551F629FF001AA
S1130DC0729FBB27F00DB11D639FAA27F00DB11DC3
S1130DD0AA1F649F6627B00DA11D661F829F22274C
S1130DE0B00DA11D621F739FB00DA11D621F839FD3
S1130DF0A00D611D221F749F3327A00D611D231FA9
S1130E00849F600D211D822F762F6A2F11249F57F6
S1130E1050409AF0F1F088234AF0EE0FFF1FBB1FF9
S1130E20661F771F881F91505040A9F79E3F5105B8
S1130E3080F00C9472060C94BD065F3FE4F3983E78
S1130E40D4F3869577956795B795F795E7959F5F62
S1130E50C1F7FE2B880F911D9695879597F90895F4
S1130E600E94A206E8F09E37E8F09639B8F49E385E
S1130E7048F4672F782F8827985FF9CF8695779560
S1130E80679593959539D0F3B62FB1706B0F711D9B
S1130E90811D20F487957795679593950C94540755
S1130EA00C946F070C94BD06882371F4772321F00A
S1130EB09850872B762F07C0662311F499270DC00D
S1130EC09051862B70E060E02AF09A95660F771FA8
S1130ED0881FDAF7880F9695879597F908959F3FAD
S1130EE031F0915020F4879577956795B795880FE1
S1130EF0911D9695879597F90895BB274A3031F44B
S1130F00992322F4BDE2909581959F4F0C94890713
S1130F10BB27FB015527AA27880F991FAA1FA417CF
S1130F2010F0A41B83955051B9F7A05DAA3308F0C3
S1130F30A95DA193009779F7B111B1931192CB01F7
S1130F400C94A207DC01FC01672F71917723E1F770
S1130F50329704C07C916D9370836291AE17BF0782
S10B0F60C8F30895F894FFCFD3
S1130F6890013C00000000000000460020202020E2
S1130F782020202020202020202020202020202065
S1130F882020202020202020202020202020202055
S1130F982020202020202020202020202020202045
S1130FA82020202020202020202020202020202035
S1130FB82020202020202020202020202020202025
S1130FC82020202020202020202020202020202015
S1130FD82020200044657074683A00636D005661EF
S1130FE86C76653A0025004F6E20004F6666005007
S1130FF8756D703A0050726573737572653A005076
S10D1008610048756D69643A000048
S9030000FC
